{"contracts/GovernanceToken.sol":{"GovernanceToken":{"abi":[{"inputs":[{"internalType":"address","name":"initialOwner","type":"address"}],"stateMutability":"nonpayable","type":"constructor"},{"inputs":[],"name":"CheckpointUnorderedInsertion","type":"error"},{"inputs":[],"name":"ECDSAInvalidSignature","type":"error"},{"inputs":[{"internalType":"uint256","name":"length","type":"uint256"}],"name":"ECDSAInvalidSignatureLength","type":"error"},{"inputs":[{"internalType":"bytes32","name":"s","type":"bytes32"}],"name":"ECDSAInvalidSignatureS","type":"error"},{"inputs":[{"internalType":"uint256","name":"increasedSupply","type":"uint256"},{"internalType":"uint256","name":"cap","type":"uint256"}],"name":"ERC20ExceededSafeSupply","type":"error"},{"inputs":[{"internalType":"address","name":"spender","type":"address"},{"internalType":"uint256","name":"allowance","type":"uint256"},{"internalType":"uint256","name":"needed","type":"uint256"}],"name":"ERC20InsufficientAllowance","type":"error"},{"inputs":[{"internalType":"address","name":"sender","type":"address"},{"internalType":"uint256","name":"balance","type":"uint256"},{"internalType":"uint256","name":"needed","type":"uint256"}],"name":"ERC20InsufficientBalance","type":"error"},{"inputs":[{"internalType":"address","name":"approver","type":"address"}],"name":"ERC20InvalidApprover","type":"error"},{"inputs":[{"internalType":"address","name":"receiver","type":"address"}],"name":"ERC20InvalidReceiver","type":"error"},{"inputs":[{"internalType":"address","name":"sender","type":"address"}],"name":"ERC20InvalidSender","type":"error"},{"inputs":[{"internalType":"address","name":"spender","type":"address"}],"name":"ERC20InvalidSpender","type":"error"},{"inputs":[{"internalType":"uint256","name":"deadline","type":"uint256"}],"name":"ERC2612ExpiredSignature","type":"error"},{"inputs":[{"internalType":"address","name":"signer","type":"address"},{"internalType":"address","name":"owner","type":"address"}],"name":"ERC2612InvalidSigner","type":"error"},{"inputs":[{"internalType":"uint256","name":"timepoint","type":"uint256"},{"internalType":"uint48","name":"clock","type":"uint48"}],"name":"ERC5805FutureLookup","type":"error"},{"inputs":[],"name":"ERC6372InconsistentClock","type":"error"},{"inputs":[{"internalType":"address","name":"account","type":"address"},{"internalType":"uint256","name":"currentNonce","type":"uint256"}],"name":"InvalidAccountNonce","type":"error"},{"inputs":[],"name":"InvalidShortString","type":"error"},{"inputs":[{"internalType":"address","name":"owner","type":"address"}],"name":"OwnableInvalidOwner","type":"error"},{"inputs":[{"internalType":"address","name":"account","type":"address"}],"name":"OwnableUnauthorizedAccount","type":"error"},{"inputs":[{"internalType":"uint8","name":"bits","type":"uint8"},{"internalType":"uint256","name":"value","type":"uint256"}],"name":"SafeCastOverflowedUintDowncast","type":"error"},{"inputs":[{"internalType":"string","name":"str","type":"string"}],"name":"StringTooLong","type":"error"},{"inputs":[{"internalType":"uint256","name":"expiry","type":"uint256"}],"name":"VotesExpiredSignature","type":"error"},{"anonymous":false,"inputs":[{"indexed":true,"internalType":"address","name":"owner","type":"address"},{"indexed":true,"internalType":"address","name":"spender","type":"address"},{"indexed":false,"internalType":"uint256","name":"value","type":"uint256"}],"name":"Approval","type":"event"},{"anonymous":false,"inputs":[{"indexed":true,"internalType":"address","name":"delegator","type":"address"},{"indexed":true,"internalType":"address","name":"fromDelegate","type":"address"},{"indexed":true,"internalType":"address","name":"toDelegate","type":"address"}],"name":"DelegateChanged","type":"event"},{"anonymous":false,"inputs":[{"indexed":true,"internalType":"address","name":"delegate","type":"address"},{"indexed":false,"internalType":"uint256","name":"previousVotes","type":"uint256"},{"indexed":false,"internalType":"uint256","name":"newVotes","type":"uint256"}],"name":"DelegateVotesChanged","type":"event"},{"anonymous":false,"inputs":[],"name":"EIP712DomainChanged","type":"event"},{"anonymous":false,"inputs":[{"indexed":true,"internalType":"address","name":"member","type":"address"},{"indexed":false,"internalType":"uint256","name":"amount","type":"uint256"}],"name":"MemberAdded","type":"event"},{"anonymous":false,"inputs":[{"indexed":true,"internalType":"address","name":"previousOwner","type":"address"},{"indexed":true,"internalType":"address","name":"newOwner","type":"address"}],"name":"OwnershipTransferred","type":"event"},{"anonymous":false,"inputs":[{"indexed":true,"internalType":"address","name":"from","type":"address"},{"indexed":true,"internalType":"address","name":"to","type":"address"},{"indexed":false,"internalType":"uint256","name":"value","type":"uint256"}],"name":"Transfer","type":"event"},{"inputs":[],"name":"CLOCK_MODE","outputs":[{"internalType":"string","name":"","type":"string"}],"stateMutability":"view","type":"function"},{"inputs":[],"name":"DOMAIN_SEPARATOR","outputs":[{"internalType":"bytes32","name":"","type":"bytes32"}],"stateMutability":"view","type":"function"},{"inputs":[],"name":"INITIAL_MEMBER_GRANT","outputs":[{"internalType":"uint256","name":"","type":"uint256"}],"stateMutability":"view","type":"function"},{"inputs":[],"name":"MAX_SUPPLY","outputs":[{"internalType":"uint256","name":"","type":"uint256"}],"stateMutability":"view","type":"function"},{"inputs":[{"internalType":"address","name":"member","type":"address"}],"name":"addMember","outputs":[],"stateMutability":"nonpayable","type":"function"},{"inputs":[{"internalType":"address","name":"owner","type":"address"},{"internalType":"address","name":"spender","type":"address"}],"name":"allowance","outputs":[{"internalType":"uint256","name":"","type":"uint256"}],"stateMutability":"view","type":"function"},{"inputs":[{"internalType":"address","name":"spender","type":"address"},{"internalType":"uint256","name":"value","type":"uint256"}],"name":"approve","outputs":[{"internalType":"bool","name":"","type":"bool"}],"stateMutability":"nonpayable","type":"function"},{"inputs":[{"internalType":"address","name":"account","type":"address"}],"name":"balanceOf","outputs":[{"internalType":"uint256","name":"","type":"uint256"}],"stateMutability":"view","type":"function"},{"inputs":[{"internalType":"address","name":"account","type":"address"},{"internalType":"uint32","name":"pos","type":"uint32"}],"name":"checkpoints","outputs":[{"components":[{"internalType":"uint48","name":"_key","type":"uint48"},{"internalType":"uint208","name":"_value","type":"uint208"}],"internalType":"struct Checkpoints.Checkpoint208","name":"","type":"tuple"}],"stateMutability":"view","type":"function"},{"inputs":[],"name":"clock","outputs":[{"internalType":"uint48","name":"","type":"uint48"}],"stateMutability":"view","type":"function"},{"inputs":[],"name":"decimals","outputs":[{"internalType":"uint8","name":"","type":"uint8"}],"stateMutability":"view","type":"function"},{"inputs":[{"internalType":"address","name":"delegatee","type":"address"}],"name":"delegate","outputs":[],"stateMutability":"nonpayable","type":"function"},{"inputs":[{"internalType":"address","name":"delegatee","type":"address"},{"internalType":"uint256","name":"nonce","type":"uint256"},{"internalType":"uint256","name":"expiry","type":"uint256"},{"internalType":"uint8","name":"v","type":"uint8"},{"internalType":"bytes32","name":"r","type":"bytes32"},{"internalType":"bytes32","name":"s","type":"bytes32"}],"name":"delegateBySig","outputs":[],"stateMutability":"nonpayable","type":"function"},{"inputs":[{"internalType":"address","name":"account","type":"address"}],"name":"delegates","outputs":[{"internalType":"address","name":"","type":"address"}],"stateMutability":"view","type":"function"},{"inputs":[],"name":"eip712Domain","outputs":[{"internalType":"bytes1","name":"fields","type":"bytes1"},{"internalType":"string","name":"name","type":"string"},{"internalType":"string","name":"version","type":"string"},{"internalType":"uint256","name":"chainId","type":"uint256"},{"internalType":"address","name":"verifyingContract","type":"address"},{"internalType":"bytes32","name":"salt","type":"bytes32"},{"internalType":"uint256[]","name":"extensions","type":"uint256[]"}],"stateMutability":"view","type":"function"},{"inputs":[{"internalType":"uint256","name":"timepoint","type":"uint256"}],"name":"getPastTotalSupply","outputs":[{"internalType":"uint256","name":"","type":"uint256"}],"stateMutability":"view","type":"function"},{"inputs":[{"internalType":"address","name":"account","type":"address"},{"internalType":"uint256","name":"timepoint","type":"uint256"}],"name":"getPastVotes","outputs":[{"internalType":"uint256","name":"","type":"uint256"}],"stateMutability":"view","type":"function"},{"inputs":[{"internalType":"address","name":"account","type":"address"}],"name":"getVotes","outputs":[{"internalType":"uint256","name":"","type":"uint256"}],"stateMutability":"view","type":"function"},{"inputs":[{"internalType":"address","name":"to","type":"address"},{"internalType":"uint256","name":"amount","type":"uint256"}],"name":"mintReward","outputs":[],"stateMutability":"nonpayable","type":"function"},{"inputs":[],"name":"name","outputs":[{"internalType":"string","name":"","type":"string"}],"stateMutability":"view","type":"function"},{"inputs":[{"internalType":"address","name":"owner","type":"address"}],"name":"nonces","outputs":[{"internalType":"uint256","name":"","type":"uint256"}],"stateMutability":"view","type":"function"},{"inputs":[{"internalType":"address","name":"account","type":"address"}],"name":"numCheckpoints","outputs":[{"internalType":"uint32","name":"","type":"uint32"}],"stateMutability":"view","type":"function"},{"inputs":[],"name":"owner","outputs":[{"internalType":"address","name":"","type":"address"}],"stateMutability":"view","type":"function"},{"inputs":[{"internalType":"address","name":"owner","type":"address"},{"internalType":"address","name":"spender","type":"address"},{"internalType":"uint256","name":"value","type":"uint256"},{"internalType":"uint256","name":"deadline","type":"uint256"},{"internalType":"uint8","name":"v","type":"uint8"},{"internalType":"bytes32","name":"r","type":"bytes32"},{"internalType":"bytes32","name":"s","type":"bytes32"}],"name":"permit","outputs":[],"stateMutability":"nonpayable","type":"function"},{"inputs":[],"name":"renounceOwnership","outputs":[],"stateMutability":"nonpayable","type":"function"},{"inputs":[],"name":"symbol","outputs":[{"internalType":"string","name":"","type":"string"}],"stateMutability":"view","type":"function"},{"inputs":[],"name":"totalSupply","outputs":[{"internalType":"uint256","name":"","type":"uint256"}],"stateMutability":"view","type":"function"},{"inputs":[{"internalType":"address","name":"to","type":"address"},{"internalType":"uint256","name":"value","type":"uint256"}],"name":"transfer","outputs":[{"internalType":"bool","name":"","type":"bool"}],"stateMutability":"nonpayable","type":"function"},{"inputs":[{"internalType":"address","name":"from","type":"address"},{"internalType":"address","name":"to","type":"address"},{"internalType":"uint256","name":"value","type":"uint256"}],"name":"transferFrom","outputs":[{"internalType":"bool","name":"","type":"bool"}],"stateMutability":"nonpayable","type":"function"},{"inputs":[{"internalType":"address","name":"newOwner","type":"address"}],"name":"transferOwnership","outputs":[],"stateMutability":"nonpayable","type":"function"}],"evm":{"bytecode":{"linkReferences":{},"object":"6101608060405234620000995760206200354780380380916200002282620000b4565b8439126200009957516001600160a01b03811681036200009957620000479062000172565b60405161248990816200107e82396080518161194d015260a05181611a08015260c05181611917015260e0518161199c015261010051816119c2015261012051816107f40152610140518161081d0152f35b600080fd5b634e487b7160e01b600052604160045260246000fd5b601f01601f1916610160908101906001600160401b03821190821017620000da57604052565b6200009e565b604081019081106001600160401b03821117620000da57604052565b604051906200010b82620000e0565b565b604051906200011c82620000e0565b60068252565b604051906200013182620000e0565b60018252565b604051906200014682620000e0565b601482527f4d6963726f4772616e742044414f20546f6b656e0000000000000000000000006020830152565b6200017c62000137565b6200018662000137565b90620001916200010d565b906020651351d490539560d21b81840152620001ac62000122565b603160f81b828201908152855190959194916001600160401b038211620000da57620001e582620001df6003546200033c565b62000379565b8390601f8311600114620002ac576200021f93929160009183620002a0575b50508160011b916000199060031b1c191617600355620004dd565b6200022a826200070c565b6101205262000239836200081f565b61014052815191012060e052519020610100524660a0526200025a620009d0565b6080523060c0526001600160a01b03811615620002875780620002816200010b92620005d0565b62000619565b604051631e4fbdf760e01b815260006004820152602490fd5b01519050388062000204565b6003600052601f19831691907fc2575a0e9e593c00f959f8c92f12db2869c3395a3b0502d05e2516446f71f85b9260005b87828210620003255750509160019391856200021f979694106200030b575b505050811b01600355620004dd565b015160001960f88460031b161c19169055388080620002fc565b6001859682939686015181550195019301620002dd565b90600182811c921680156200036e575b60208310146200035857565b634e487b7160e01b600052602260045260246000fd5b91607f16916200034c565b601f811162000386575050565b6000906003825260208220906020601f850160051c83019410620003c7575b601f0160051c01915b828110620003bb57505050565b818155600101620003ae565b9092508290620003a5565b601f8111620003df575050565b6000906004825260208220906020601f850160051c8301941062000420575b601f0160051c01915b8281106200041457505050565b81815560010162000407565b9092508290620003fe565b601f811162000438575050565b6000906005825260208220906020601f850160051c8301941062000479575b601f0160051c01915b8281106200046d57505050565b81815560010162000460565b909250829062000457565b601f811162000491575050565b6000906006825260208220906020601f850160051c83019410620004d2575b601f0160051c01915b828110620004c657505050565b818155600101620004b9565b9092508290620004b0565b80519091906001600160401b038111620000da576200050981620005036004546200033c565b620003d2565b602080601f83116001146200054857508192936000926200053c575b50508160011b916000199060031b1c191617600455565b01519050388062000525565b6004600052601f198316949091907f8a35acfbc15ff81a39ae7d344fd709f28e8600b4aa8c65c6b64bfe7fe36bd19b926000905b878210620005b75750508360019596106200059d575b505050811b01600455565b015160001960f88460031b161c1916905538808062000592565b806001859682949686015181550195019301906200057c565b600b80546001600160a01b039283166001600160a01b0319821681179092559091167f8be0079c531659141344cd1fd0a4f28419497f9722a3daafe3b4186f6b6457e0600080a3565b6001600160a01b0381168015620006f35760025469d3c21bcecceda100000090818101809111620006ed576002556001600160a01b038316600090815260208190526040902090815401905560007fddf252ad1be2c89b69c2b068fc378daa952ba7f163c4a11628f55a4df523b3ef60405180620006a5819069d3c21bcecceda1000000602083019252565b0390a36002546001600160d01b038111620006c657506200010b9062000a3c565b604051630e58ae9360e11b815260048101919091526001600160d01b036024820152604490fd5b62000d7b565b60405163ec442f0560e01b815260006004820152602490fd5b90815160208082106000146200072d575050906200072a9062000953565b90565b6001600160401b038211620000da5762000754826200074e6005546200033c565b6200042b565b80601f831160011462000794575081929360009262000788575b50508160011b916000199060031b1c19161760055560ff90565b0151905038806200076e565b6005600052601f198316949091907f036b6384b5eca791c62761152d0c79bb0604c104a5fb6f4eb0703f3154bb3db0926000905b87821062000806575050836001959610620007ec575b505050811b0160055560ff90565b015160001960f88460031b161c19169055388080620007de565b80600185968294968601518155019501930190620007c8565b90815160208082106000146200083d575050906200072a9062000953565b6001600160401b038211620000da5762000864826200085e6006546200033c565b62000484565b80601f8311600114620008a4575081929360009262000898575b50508160011b916000199060031b1c19161760065560ff90565b0151905038806200087e565b6006600052601f198316949091907ff652222313e28459528d920b65115c16c04f3efc82aaedc97be59f3f377c0d3f926000905b87821062000916575050836001959610620008fc575b505050811b0160065560ff90565b015160001960f88460031b161c19169055388080620008ee565b80600185968294968601518155019501930190620008d8565b60208151910151906020811062000944575090565b6000199060200360031b1b1690565b601f8151116200096e5762000968816200092f565b90511790565b6040519063305a27a960e01b82528160208060048301528251908160248401526000935b828510620009b6575050604492506000838284010152601f80199101168101030190fd5b848101820151868601604401529381019385935062000992565b60e051610100516040519060208201927f8b73c3c69bb8fe3d512ecc4cf759cc79239f7b179b0ffacaa9a75d522b39400f8452604083015260608201524660808201523060a082015260a0815260c0810181811060018060401b03821117620000da5760405251902090565b65ffffffffffff9081431162000b0e57600a546000908062000adc57505062000a786200010b9262000a6f600062001038565b90431662000e6f565b50506001600160a01b0390811690811562000aca575b60086020527f5eff886ea0ce6ca488a3d6e336d6c0f75f46d19b42c06ce5ee98e42c96d256c75460009283526040909220548116911662000b2d565b62000ad462000c8c565b505062000a8e565b9092600019938285810111620006ed576200010b9462000a7893602083600a62000a6f95522001015460301c62001038565b6040516306dfcc6560e41b815260306004820152436024820152604490fd5b6001600160a01b03808316929190811690818414158062000c83575b62000b55575b50505050565b8162000bc3575b50508162000b6d575b808062000b4f565b6001600160a01b03166000908152600960205260409020600080516020620035278339815191529062000ba09062000d0b565b604080516001600160d01b039384168152919092166020820152a2388062000b65565b6001600160a01b0316600090815260096020526040902065ffffffffffff80431162000b0e5781546000908062000c4557505062000c2290600080516020620035278339815191529262000c1860006200105a565b9143169062000f6b565b604080516001600160d01b039384168152919092166020820152a2388062000b5c565b919092600019938385810111620006ed57600080516020620035278339815191529462000c22946020838562000c1895522001015460301c6200105a565b50600162000b49565b65ffffffffffff80431162000b0e57600a546000908062000cdd57505060005b6001600160d01b0390811669d3c21bcecceda0ffffff1901908111620006ed5762000cd991431662000e6f565b9091565b600019918183810111620006ed57600a90520160008051602062003507833981519152015460301c62000cac565b65ffffffffffff9081431162000b0e5780546000908062000d595750506000905b6001600160d01b0391821669d3c21bcecceda100000001918211620006ed5762000cd99243169062000f6b565b600019918183810111620006ed578084602092522001015460301c9062000d2c565b634e487b7160e01b600052601160045260246000fd5b600019810191908211620006ed57565b600a549068010000000000000000821015620000da576001820180600a5582101562000e0357600a60005280516020919091015160301b65ffffffffffff191665ffffffffffff91909116176000805160206200350783398151915290910155565b634e487b7160e01b600052603260045260246000fd5b90815468010000000000000000811015620000da576001810180845581101562000e035760009283526020928390208251929093015160301b65ffffffffffff191665ffffffffffff9290921691909117910155565b600a54919291801562000f3c5762000e8b62000ea49162000d91565b600a600052600080516020620035078339815191520190565b9081549165ffffffffffff9081841691831680831162000f2a5786920362000eec5762000ee592509065ffffffffffff82549181199060301b169116179055565b60301c9190565b505062000f249062000f0f62000f01620000fc565b65ffffffffffff9092168252565b6001600160d01b038516602082015262000da1565b62000ee5565b604051632520601d60e01b8152600490fd5b5062000f659062000f5062000f01620000fc565b6001600160d01b038416602082015262000da1565b60009190565b805492939280156200100e5762000f8662000f939162000d91565b8260005260206000200190565b9182549265ffffffffffff9182851692811680841162000f2a5787930362000fd5575062000ee592509065ffffffffffff82549181199060301b169116179055565b91505062000f249162000ff962000feb620000fc565b65ffffffffffff9093168352565b6001600160d01b038616602083015262000e19565b509062000f65916200102362000feb620000fc565b6001600160d01b038516602083015262000e19565b6001600160d01b0390811669d3c21bcecceda100000001908111620006ed5790565b6001600160d01b0390811669d3c21bcecceda0ffffff1901908111620006ed579056fe6080604052600436101561001257600080fd5b60003560e01c806306fdde03146101f7578063095ea7b3146101f257806318160ddd146101ed57806323b872dd146101e8578063313ce567146101e357806332cb6b0c146101de5780633644e515146101d95780633a46b1a8146101d45780634bf5d7e9146101cf578063587cde1e146101ca5780635c19a95c146101c55780636fcfff45146101c057806370a08231146101bb578063715018a6146101b65780637ecebe00146101b157806384b0196e146101ac5780638da5cb5b146101a75780638e539e8c146101a257806391ddadf41461019d57806395d89b41146101985780639a49090e146101935780639ab24eb01461018e578063a9059cbb14610189578063c3cda52014610184578063c5f3e4b21461017f578063ca6d56dc1461017a578063d505accf14610175578063dd62ed3e14610170578063f1127ed81461016b5763f2fde38b1461016657600080fd5b611089565b610fd6565b610f7e565b610e4a565b610d16565b610cf2565b610c29565b610be3565b610b9a565b610a9c565b6109f5565b6109c9565b6108fa565b6108d1565b6107d9565b61079f565b610741565b610708565b6106a0565b61067c565b610641565b6105af565b6104c7565b6104a4565b61047e565b610462565b6103b5565b610397565b610366565b610250565b919082519283825260005b848110610228575050826000602080949584010152601f8019910116010190565b602081830181015184830182015201610207565b90602061024d9281815201906101fc565b90565b34610335576000806003193601126103325760405190806003546102738161152f565b8085529160019180831690811561030857506001146102ad575b6102a98561029d818703826111ce565b6040519182918261023c565b0390f35b9250600383527fc2575a0e9e593c00f959f8c92f12db2869c3395a3b0502d05e2516446f71f85b5b8284106102f057505050810160200161029d826102a961028d565b805460208587018101919091529093019281016102d5565b8695506102a99693506020925061029d94915060ff191682840152151560051b820101929361028d565b80fd5b600080fd5b600435906001600160a01b038216820361033557565b602435906001600160a01b038216820361033557565b346103355760403660031901126103355761038c61038261033a565b6024359033611662565b602060405160018152f35b34610335576000366003190112610335576020600254604051908152f35b34610335576060366003190112610335576103ce61033a565b6103d6610350565b6001600160a01b03821660009081526001602090815260408083203384529091529020604435919054926000198410610420575b6104149350611569565b60405160018152602090f35b82841061043c576104378361041495033383611716565b61040a565b604051637dc7a0d960e11b81523360048201526024810185905260448101849052606490fd5b3461033557600036600319011261033557602060405160128152f35b346103355760003660031901126103355760206040516a084595161401484a0000008152f35b346103355760003660031901126103355760206104bf611914565b604051908152f35b34610335576040366003190112610335576001600160a01b036104e861033a565b166000908152600960205260408120906105036024356111ff565b91805482938160058111610555575b5090602094610521928461213f565b8061053b5750505b6040516001600160d01b039091168152f35b91610547849293611c6c565b92815220015460301c610529565b9461055f86611ca9565b86039586116105aa576020956105219385875265ffffffffffff80838a8a20015416908516106000146105985750915b91925094610512565b9291506105a490611c7b565b9061058f565b611519565b34610335576000366003190112610335576105c943611c3a565b65ffffffffffff806105da43611c3a565b1691160361062f576102a96040516105f181611159565b601d81527f6d6f64653d626c6f636b6e756d6265722666726f6d3d64656661756c7400000060208201526040519182916020835260208301906101fc565b6040516301bfc1c560e61b8152600490fd5b346103355760203660031901126103355760206001600160a01b038061066561033a565b166000526008825260406000205416604051908152f35b346103355760203660031901126103355761069e61069861033a565b33611240565b005b34610335576020366003190112610335576001600160a01b036106c161033a565b16600052600960205260406000205463ffffffff908181116106e95760209160405191168152f35b604490604051906306dfcc6560e41b8252602060048301526024820152fd5b346103355760203660031901126103355760206104bf61072661033a565b6001600160a01b031660009081526020819052604090205490565b34610335576000806003193601126103325761075b611117565b600b80546001600160a01b0319811690915581906001600160a01b03167f8be0079c531659141344cd1fd0a4f28419497f9722a3daafe3b4186f6b6457e08280a380f35b34610335576020366003190112610335576001600160a01b036107c061033a565b1660005260076020526020604060002054604051908152f35b346103355760008060031936011261033257610883906108187f0000000000000000000000000000000000000000000000000000000000000000611a54565b6108417f0000000000000000000000000000000000000000000000000000000000000000611b4d565b916040519161084f8361117a565b818352604051948594600f60f81b865261087560209360e08589015260e08801906101fc565b9086820360408801526101fc565b904660608601523060808601528260a086015284820360c08601528080855193848152019401925b8281106108ba57505050500390f35b8351855286955093810193928101926001016108ab565b3461033557600036600319011261033557600b546040516001600160a01b039091168152602090f35b34610335576020366003190112610335576109166004356111ff565b600a5490600082916005841161096e575b61093193506120d6565b60008161094657505060405160008152602090f35b600a610953602093611c6c565b9152600080516020612414833981519152015460301c610529565b919261097981611ca9565b81039081116105aa5761093193600a835265ffffffffffff8083600080516020612414833981519152015416908516106000146109b7575091610927565b9291506109c390611c7b565b90610927565b346103355760003660031901126103355760206109e543611c3a565b65ffffffffffff60405191168152f35b3461033557600080600319360112610332576040519080600454610a188161152f565b808552916001918083169081156103085750600114610a41576102a98561029d818703826111ce565b9250600483527f8a35acfbc15ff81a39ae7d344fd709f28e8600b4aa8c65c6b64bfe7fe36bd19b5b828410610a8457505050810160200161029d826102a961028d565b80546020858701810191909152909301928101610a69565b3461033557604036600319011261033557610ab561033a565b602435610ac0611117565b6002548181018091116105aa57610ae46a084595161401484a0000008211156121a0565b6001600160a01b038316908115610b81576002556001600160a01b038316600090815260208181526040808320805486019055518481527fddf252ad1be2c89b69c2b068fc378daa952ba7f163c4a11628f55a4df523b3ef9190a3600254916001600160d01b038311610b5b5761069e925061232a565b604051630e58ae9360e11b8152600481018490526001600160d01b036024820152604490fd5b60405163ec442f0560e01b815260006004820152602490fd5b34610335576020366003190112610335576001600160a01b03610bbb61033a565b166000526009602052602060018060d01b03610bda6040600020611e1e565b16604051908152f35b346103355760403660031901126103355761038c610bff61033a565b6024359033611569565b6064359060ff8216820361033557565b6084359060ff8216820361033557565b346103355760c036600319011261033557610c4261033a565b60443590602435610c51610c09565b834211610cd957610ccd61069e94610cd4926040519060208201927fe48329057bfd03d55e49b547132e39cffd9c1820ad7b9d4c5307691425d15adf845260018060a01b0388166040840152866060840152608083015260808252610cb582611196565b610cc860a4359360843593519020611a2e565b6117bf565b9182611769565b611240565b604051632341d78760e11b815260048101859052602490fd5b3461033557600036600319011261033557602060405168056bc75e2d631000008152f35b3461033557602036600319011261033557610d2f61033a565b610d37611117565b6002549068056bc75e2d63100000908183018093116105aa57610d676a084595161401484a0000008411156121a0565b6001600160a01b038116928315610b81576002556001600160a01b03811660009081526020819052604090208281540190558260007fddf252ad1be2c89b69c2b068fc378daa952ba7f163c4a11628f55a4df523b3ef60405180610dd8819068056bc75e2d63100000602083019252565b0390a36002546001600160d01b038111610e2357507fede8eed4383e9241982619b94dd83e488b274cced0fd07b8c0092a393defd52f91610e1a6020926121e2565b604051908152a2005b604051630e58ae9360e11b815260048101919091526001600160d01b036024820152604490fd5b346103355760e036600319011261033557610e6361033a565b610e6b610350565b60443590606435610e7a610c19565b814211610f65576001600160a01b0385811660008181526007602090815260409182902080546001810190915582517f6e71edae12b1b97f4d1f60370fef10105fa2faae0126114a169c64845d6126c99281019283529283019390935292861660608201526080810187905260a081019190915260c080820194909452928352610f1e929091610f0b60e0836111ce565b610cc860c4359360a43593519020611a2e565b6001600160a01b0384811690821603610f3b575061069e92611662565b6040516325c0072360e11b81526001600160a01b0391821660048201529084166024820152604490fd5b60405163313c898160e11b815260048101839052602490fd5b34610335576040366003190112610335576020610fcd610f9c61033a565b610fa4610350565b6001600160a01b0391821660009081526001855260408082209290931681526020919091522090565b54604051908152f35b3461033557604036600319011261033557610fef61033a565b6024359063ffffffff82168203610335576102a99161103f91611010611750565b50611019611750565b506001600160a01b03166000908152600960205260409020611039611750565b50611e4c565b506040519061104d82611159565b5465ffffffffffff811680835260309190911c60209283019081526040805192835290516001600160d01b031692820192909252918291820190565b34610335576020366003190112610335576110a261033a565b6110aa611117565b6001600160a01b039081169081156110fe57600b54826bffffffffffffffffffffffff60a01b821617600b55167f8be0079c531659141344cd1fd0a4f28419497f9722a3daafe3b4186f6b6457e0600080a3005b604051631e4fbdf760e01b815260006004820152602490fd5b600b546001600160a01b0316330361112b57565b60405163118cdaa760e01b8152336004820152602490fd5b634e487b7160e01b600052604160045260246000fd5b6040810190811067ffffffffffffffff82111761117557604052565b611143565b6020810190811067ffffffffffffffff82111761117557604052565b60a0810190811067ffffffffffffffff82111761117557604052565b60c0810190811067ffffffffffffffff82111761117557604052565b90601f8019910116810190811067ffffffffffffffff82111761117557604052565b604051906111fd82611159565b565b65ffffffffffff61120f43611c3a565b1680821015611222575061024d90611c3a565b6044925060405191637669fc0f60e11b835260048301526024820152fd5b6001600160a01b03818116600081815260086020526040812080548685166001600160a01b0319821681179092556111fd969416946112bd9390928691907f3134e8a2e6d97e929a7e54011ea5485d7d196dd5f0ba4d4ef95803e8e3fc257f9080a46001600160a01b031660009081526020819052604090205490565b915b6001600160a01b038083169392919081169081851415806113e4575b6112e7575b5050505050565b8161135a575b5050826112fc575b80806112e0565b6001600160a01b0316600090815260096020526040902060008051602061243483398151915291611337916113319091611c07565b90611429565b604080516001600160d01b039384168152919092166020820152a23880806112f5565b6001600160a01b0316600090815260096020526040902061137a84611c07565b61138343611c3a565b6001600160d01b0391828061139786611e1e565b1691169003928284116105aa57600080516020612434833981519152936113da926113c19261201a565b6040805192851683529316602082015291829190820190565b0390a238806112ed565b508315156112db565b6113f643611c3a565b6001600160d01b039068056bc75e2d631000008261141385611e1e565b16019182116105aa576114259261201a565b9091565b9061143343611c3a565b6001600160d01b0391828061144786611e1e565b169116019182116105aa576114259261201a565b61146443611c3a565b6001600160d01b0368056bc75e2d631000008161147f611dd4565b16019081116105aa5761142591611f31565b61149a43611c3a565b906001600160d01b039081806114ae611dd4565b169116019081116105aa5761142591611f31565b6114cb43611c3a565b6001600160d01b0368056bc75e2d630fffff198161147f611dd4565b6114f043611c3a565b906001600160d01b03908180611504611dd4565b16911690039081116115195761142591611f31565b634e487b7160e01b600052601160045260246000fd5b90600182811c9216801561155f575b602083101461154957565b634e487b7160e01b600052602260045260246000fd5b91607f169161153e565b6001600160a01b03808216949392919085156116495782168015610b81576001600160a01b0382166000908152602081905260409020549584871061161a57846111fd9697036115cb8460018060a01b03166000526000602052604060002090565b556001600160a01b0384166000908152602081815260409182902080548801905590518681527fddf252ad1be2c89b69c2b068fc378daa952ba7f163c4a11628f55a4df523b3ef9190a36123a8565b60405163391434e360e21b81526001600160a01b03841660048201526024810188905260448101869052606490fd5b604051634b637e8f60e11b815260006004820152602490fd5b6001600160a01b0380821692919083156116fd5782169384156116e457806116da7f8c5be1e5ebec7d5bd14f71427d1e84f3dd0314c0f7b2291e5b200ac8c7c3b925946116c360209560018060a01b03166000526001602052604060002090565b9060018060a01b0316600052602052604060002090565b55604051908152a3565b604051634a1406b160e11b815260006004820152602490fd5b60405163e602df0560e01b815260006004820152602490fd5b906001600160a01b03808316156116fd578116156116e4576116c361174d9260018060a01b03166000526001602052604060002090565b55565b6040519061175d82611159565b60006020838281520152565b6001600160a01b03811660009081526007602052604090208054600181019091559091819003611797575050565b6040516301d4b62360e61b81526001600160a01b039092166004830152602482015260449150fd5b9161024d93916117ce936117d7565b90929192611887565b91907f7fffffffffffffffffffffffffffffff5d576e7357a4501ddfe92f46681b20a0841161185b57926020929160ff608095604051948552168484015260408301526060820152600092839182805260015afa1561184f5780516001600160a01b0381161561184657918190565b50809160019190565b604051903d90823e3d90fd5b50505060009160039190565b6004111561187157565b634e487b7160e01b600052602160045260246000fd5b61189081611867565b80611899575050565b6118a281611867565b600181036118bc5760405163f645eedf60e01b8152600490fd5b6118c581611867565b600281036118e65760405163fce698f760e01b815260048101839052602490fd5b806118f2600392611867565b146118fa5750565b6040516335e2f38360e21b81526004810191909152602490fd5b307f00000000000000000000000000000000000000000000000000000000000000006001600160a01b03161480611a05575b1561196f577f000000000000000000000000000000000000000000000000000000000000000090565b60405160208101907f8b73c3c69bb8fe3d512ecc4cf759cc79239f7b179b0ffacaa9a75d522b39400f82527f000000000000000000000000000000000000000000000000000000000000000060408201527f000000000000000000000000000000000000000000000000000000000000000060608201524660808201523060a082015260a081526119ff816111b2565b51902090565b507f00000000000000000000000000000000000000000000000000000000000000004614611946565b604290611a39611914565b906040519161190160f01b8352600283015260228201522090565b60ff8114611a925760ff811690601f8211611a805760405191611a7683611159565b8252602082015290565b604051632cd44ac360e21b8152600490fd5b50604051600554816000611aa58361152f565b80835292600190818116908115611b2b5750600114611acc575b5061024d925003826111ce565b6005600090815291507f036b6384b5eca791c62761152d0c79bb0604c104a5fb6f4eb0703f3154bb3db05b848310611b10575061024d935050810160200138611abf565b81935090816020925483858901015201910190918492611af7565b90506020925061024d94915060ff191682840152151560051b82010138611abf565b60ff8114611b6f5760ff811690601f8211611a805760405191611a7683611159565b50604051600654816000611b828361152f565b80835292600190818116908115611b2b5750600114611ba8575061024d925003826111ce565b6006600090815291507ff652222313e28459528d920b65115c16c04f3efc82aaedc97be59f3f377c0d3f5b848310611bec575061024d935050810160200138611abf565b81935090816020925483858901015201910190918492611bd3565b6001600160d01b0390818111611c1b571690565b604490604051906306dfcc6560e41b825260d060048301526024820152fd5b65ffffffffffff90818111611c4d571690565b604490604051906306dfcc6560e41b8252603060048301526024820152fd5b6000198101919082116105aa57565b90600182018092116105aa57565b8115611c93570490565b634e487b7160e01b600052601260045260246000fd5b600181111561024d57600181600160801b811015611dc2575b611d6a611d60611d56611d4c611d42611d38611d7697600488600160401b611d719a1015611db5575b640100000000811015611da8575b62010000811015611d9b575b610100811015611d8f575b6010811015611d83575b1015611d7b575b60030260011c611d31818b611c89565b0160011c90565b611d31818a611c89565b611d318189611c89565b611d318188611c89565b611d318187611c89565b611d318186611c89565b8093611c89565b821190565b900390565b60011b611d21565b811c9160021b91611d1a565b60081c91811b91611d10565b60101c9160081b91611d05565b60201c9160101b91611cf9565b60401c9160201b91611ceb565b50600160401b9050608082901c611cc2565b600a5460009080611de6575050600090565b806000198101116105aa57600a7fc65a7bb8d6351c1cf70c95a316cc6a92839c986682d98bc35f958f4883f9d2a79252015460301c90565b805460009181611e3057505050600090565b6000199282848101116105aa5760209181522001015460301c90565b8054821015611e645760005260206000200190600090565b634e487b7160e01b600052603260045260246000fd5b600a5490600160401b821015611175576001820180600a55821015611e6457600a600052805160209091015160301b65ffffffffffff191665ffffffffffff919091161760008051602061241483398151915290910155565b8054600160401b81101561117557611ef091600182018155611e4c565b611f1b57815160209092015160301b65ffffffffffff191665ffffffffffff92909216919091179055565b634e487b7160e01b600052600060045260246000fd5b600a549192918015611ff057611f49611f6191611c6c565b600a6000526000805160206124148339815191520190565b9081549165ffffffffffff90818416918316808311611fde57869203611fa657611f9f92509065ffffffffffff82549181199060301b169116179055565b60301c9190565b5050611fd990611fc5611fb76111f0565b65ffffffffffff9092168252565b6001600160d01b0385166020820152611e7a565b611f9f565b604051632520601d60e01b8152600490fd5b5061201490612000611fb76111f0565b6001600160d01b0384166020820152611e7a565b60009190565b805492939280156120b15761203161203e91611c6c565b8260005260206000200190565b9182549265ffffffffffff91828516928116808411611fde5787930361207d5750611f9f92509065ffffffffffff82549181199060301b169116179055565b915050611fd99161209d61208f6111f0565b65ffffffffffff9093168352565b6001600160d01b0386166020830152611ed3565b5090612014916120c261208f6111f0565b6001600160d01b0385166020830152611ed3565b905b8281106120e457505090565b90918082169080831860011c82018092116105aa57600a60005265ffffffffffff80836000805160206124148339815191520154169085161060001461212d5750915b906120d8565b92915061213990611c7b565b90612127565b91905b83821061214f5750505090565b9091928083169080841860011c82018092116105aa5760008581526020902082015465ffffffffffff908116908416101561218e5750925b9190612142565b93925061219a90611c7b565b91612187565b156121a757565b60405162461bcd60e51b815260206004820152601360248201527213585e081cdd5c1c1b1e48195e18d959591959606a1b6044820152606490fd5b6121ea61145b565b50506001600160a01b0390811690811561231b575b60086020527f5eff886ea0ce6ca488a3d6e336d6c0f75f46d19b42c06ce5ee98e42c96d256c7546000928352604090922054811691168181141580612313575b612247575050565b806122a4575b50806122565750565b6001600160a01b038116600090815260096020526040902060008051602061243483398151915290612287906113ed565b604080516001600160d01b039384168152919092166020820152a2565b6001600160a01b03811660009081526009602052604090206122c543611c3a565b6001600160d01b039068056bc75e2d630fffff19826122e385611e1e565b1601928284116105aa576000805160206124348339815191529361230a926113c19261201a565b0390a23861224d565b50600161223f565b6123236114c2565b50506121ff565b906111fd9161234061233b83611c07565b611491565b50506001600160a01b03908116908115612390575b60086020527f5eff886ea0ce6ca488a3d6e336d6c0f75f46d19b42c06ce5ee98e42c96d256c7546000928352604090922054811691166112bf565b6123a161239c84611c07565b6114e7565b5050612355565b6111fd92916001600160a01b03918216919081908315612400575b169182156123ed575b600052600860205280604060002054169160005260406000205416906112bf565b6123f961239c85611c07565b50506123cc565b61240c61233b86611c07565b50506123c356fec65a7bb8d6351c1cf70c95a316cc6a92839c986682d98bc35f958f4883f9d2a8dec2bacdd2f05b59de34da9b523dff8be42e5e38e818c82fdb0bae774387a724a264697066735822122035a954f5b1b228e51873cb6c5c2fd709243033553eda2cb4a3979a970012d1a064736f6c63430008140033c65a7bb8d6351c1cf70c95a316cc6a92839c986682d98bc35f958f4883f9d2a8dec2bacdd2f05b59de34da9b523dff8be42e5e38e818c82fdb0bae774387a724","opcodes":"PUSH2 0x160 DUP1 PUSH1 0x40 MSTORE CALLVALUE PUSH3 0x99 JUMPI PUSH1 0x20 PUSH3 0x3547 DUP1 CODESIZE SUB DUP1 SWAP2 PUSH3 0x22 DUP3 PUSH3 0xB4 JUMP JUMPDEST DUP5 CODECOPY SLT PUSH3 0x99 JUMPI MLOAD PUSH1 0x1 PUSH1 0x1 PUSH1 0xA0 SHL SUB DUP2 AND DUP2 SUB PUSH3 0x99 JUMPI PUSH3 0x47 SWAP1 PUSH3 0x172 JUMP JUMPDEST PUSH1 0x40 MLOAD PUSH2 0x2489 SWAP1 DUP2 PUSH3 0x107E DUP3 CODECOPY PUSH1 0x80 MLOAD DUP2 PUSH2 0x194D ADD MSTORE PUSH1 0xA0 MLOAD DUP2 PUSH2 0x1A08 ADD MSTORE PUSH1 0xC0 MLOAD DUP2 PUSH2 0x1917 ADD MSTORE PUSH1 0xE0 MLOAD DUP2 PUSH2 0x199C ADD MSTORE PUSH2 0x100 MLOAD DUP2 PUSH2 0x19C2 ADD MSTORE PUSH2 0x120 MLOAD DUP2 PUSH2 0x7F4 ADD MSTORE PUSH2 0x140 MLOAD DUP2 PUSH2 0x81D ADD MSTORE RETURN JUMPDEST PUSH1 0x0 DUP1 REVERT JUMPDEST PUSH4 0x4E487B71 PUSH1 0xE0 SHL PUSH1 0x0 MSTORE PUSH1 0x41 PUSH1 0x4 MSTORE PUSH1 0x24 PUSH1 0x0 REVERT JUMPDEST PUSH1 0x1F ADD PUSH1 0x1F NOT AND PUSH2 0x160 SWAP1 DUP2 ADD SWAP1 PUSH1 0x1 PUSH1 0x1 PUSH1 0x40 SHL SUB DUP3 GT SWAP1 DUP3 LT OR PUSH3 0xDA JUMPI PUSH1 0x40 MSTORE JUMP JUMPDEST PUSH3 0x9E JUMP JUMPDEST PUSH1 0x40 DUP2 ADD SWAP1 DUP2 LT PUSH1 0x1 PUSH1 0x1 PUSH1 0x40 SHL SUB DUP3 GT OR PUSH3 0xDA JUMPI PUSH1 0x40 MSTORE JUMP JUMPDEST PUSH1 0x40 MLOAD SWAP1 PUSH3 0x10B DUP3 PUSH3 0xE0 JUMP JUMPDEST JUMP JUMPDEST PUSH1 0x40 MLOAD SWAP1 PUSH3 0x11C DUP3 PUSH3 0xE0 JUMP JUMPDEST PUSH1 0x6 DUP3 MSTORE JUMP JUMPDEST PUSH1 0x40 MLOAD SWAP1 PUSH3 0x131 DUP3 PUSH3 0xE0 JUMP JUMPDEST PUSH1 0x1 DUP3 MSTORE JUMP JUMPDEST PUSH1 0x40 MLOAD SWAP1 PUSH3 0x146 DUP3 PUSH3 0xE0 JUMP JUMPDEST PUSH1 0x14 DUP3 MSTORE PUSH32 0x4D6963726F4772616E742044414F20546F6B656E000000000000000000000000 PUSH1 0x20 DUP4 ADD MSTORE JUMP JUMPDEST PUSH3 0x17C PUSH3 0x137 JUMP JUMPDEST PUSH3 0x186 PUSH3 0x137 JUMP JUMPDEST SWAP1 PUSH3 0x191 PUSH3 0x10D JUMP JUMPDEST SWAP1 PUSH1 0x20 PUSH6 0x1351D4905395 PUSH1 0xD2 SHL DUP2 DUP5 ADD MSTORE PUSH3 0x1AC PUSH3 0x122 JUMP JUMPDEST PUSH1 0x31 PUSH1 0xF8 SHL DUP3 DUP3 ADD SWAP1 DUP2 MSTORE DUP6 MLOAD SWAP1 SWAP6 SWAP2 SWAP5 SWAP2 PUSH1 0x1 PUSH1 0x1 PUSH1 0x40 SHL SUB DUP3 GT PUSH3 0xDA JUMPI PUSH3 0x1E5 DUP3 PUSH3 0x1DF PUSH1 0x3 SLOAD PUSH3 0x33C JUMP JUMPDEST PUSH3 0x379 JUMP JUMPDEST DUP4 SWAP1 PUSH1 0x1F DUP4 GT PUSH1 0x1 EQ PUSH3 0x2AC JUMPI PUSH3 0x21F SWAP4 SWAP3 SWAP2 PUSH1 0x0 SWAP2 DUP4 PUSH3 0x2A0 JUMPI JUMPDEST POP POP DUP2 PUSH1 0x1 SHL SWAP2 PUSH1 0x0 NOT SWAP1 PUSH1 0x3 SHL SHR NOT AND OR PUSH1 0x3 SSTORE PUSH3 0x4DD JUMP JUMPDEST PUSH3 0x22A DUP3 PUSH3 0x70C JUMP JUMPDEST PUSH2 0x120 MSTORE PUSH3 0x239 DUP4 PUSH3 0x81F JUMP JUMPDEST PUSH2 0x140 MSTORE DUP2 MLOAD SWAP2 ADD KECCAK256 PUSH1 0xE0 MSTORE MLOAD SWAP1 KECCAK256 PUSH2 0x100 MSTORE CHAINID PUSH1 0xA0 MSTORE PUSH3 0x25A PUSH3 0x9D0 JUMP JUMPDEST PUSH1 0x80 MSTORE ADDRESS PUSH1 0xC0 MSTORE PUSH1 0x1 PUSH1 0x1 PUSH1 0xA0 SHL SUB DUP2 AND ISZERO PUSH3 0x287 JUMPI DUP1 PUSH3 0x281 PUSH3 0x10B SWAP3 PUSH3 0x5D0 JUMP JUMPDEST PUSH3 0x619 JUMP JUMPDEST PUSH1 0x40 MLOAD PUSH4 0x1E4FBDF7 PUSH1 0xE0 SHL DUP2 MSTORE PUSH1 0x0 PUSH1 0x4 DUP3 ADD MSTORE PUSH1 0x24 SWAP1 REVERT JUMPDEST ADD MLOAD SWAP1 POP CODESIZE DUP1 PUSH3 0x204 JUMP JUMPDEST PUSH1 0x3 PUSH1 0x0 MSTORE PUSH1 0x1F NOT DUP4 AND SWAP2 SWAP1 PUSH32 0xC2575A0E9E593C00F959F8C92F12DB2869C3395A3B0502D05E2516446F71F85B SWAP3 PUSH1 0x0 JUMPDEST DUP8 DUP3 DUP3 LT PUSH3 0x325 JUMPI POP POP SWAP2 PUSH1 0x1 SWAP4 SWAP2 DUP6 PUSH3 0x21F SWAP8 SWAP7 SWAP5 LT PUSH3 0x30B JUMPI JUMPDEST POP POP POP DUP2 SHL ADD PUSH1 0x3 SSTORE PUSH3 0x4DD JUMP JUMPDEST ADD MLOAD PUSH1 0x0 NOT PUSH1 0xF8 DUP5 PUSH1 0x3 SHL AND SHR NOT AND SWAP1 SSTORE CODESIZE DUP1 DUP1 PUSH3 0x2FC JUMP JUMPDEST PUSH1 0x1 DUP6 SWAP7 DUP3 SWAP4 SWAP7 DUP7 ADD MLOAD DUP2 SSTORE ADD SWAP6 ADD SWAP4 ADD PUSH3 0x2DD JUMP JUMPDEST SWAP1 PUSH1 0x1 DUP3 DUP2 SHR SWAP3 AND DUP1 ISZERO PUSH3 0x36E JUMPI JUMPDEST PUSH1 0x20 DUP4 LT EQ PUSH3 0x358 JUMPI JUMP JUMPDEST PUSH4 0x4E487B71 PUSH1 0xE0 SHL PUSH1 0x0 MSTORE PUSH1 0x22 PUSH1 0x4 MSTORE PUSH1 0x24 PUSH1 0x0 REVERT JUMPDEST SWAP2 PUSH1 0x7F AND SWAP2 PUSH3 0x34C JUMP JUMPDEST PUSH1 0x1F DUP2 GT PUSH3 0x386 JUMPI POP POP JUMP JUMPDEST PUSH1 0x0 SWAP1 PUSH1 0x3 DUP3 MSTORE PUSH1 0x20 DUP3 KECCAK256 SWAP1 PUSH1 0x20 PUSH1 0x1F DUP6 ADD PUSH1 0x5 SHR DUP4 ADD SWAP5 LT PUSH3 0x3C7 JUMPI JUMPDEST PUSH1 0x1F ADD PUSH1 0x5 SHR ADD SWAP2 JUMPDEST DUP3 DUP2 LT PUSH3 0x3BB JUMPI POP POP POP JUMP JUMPDEST DUP2 DUP2 SSTORE PUSH1 0x1 ADD PUSH3 0x3AE JUMP JUMPDEST SWAP1 SWAP3 POP DUP3 SWAP1 PUSH3 0x3A5 JUMP JUMPDEST PUSH1 0x1F DUP2 GT PUSH3 0x3DF JUMPI POP POP JUMP JUMPDEST PUSH1 0x0 SWAP1 PUSH1 0x4 DUP3 MSTORE PUSH1 0x20 DUP3 KECCAK256 SWAP1 PUSH1 0x20 PUSH1 0x1F DUP6 ADD PUSH1 0x5 SHR DUP4 ADD SWAP5 LT PUSH3 0x420 JUMPI JUMPDEST PUSH1 0x1F ADD PUSH1 0x5 SHR ADD SWAP2 JUMPDEST DUP3 DUP2 LT PUSH3 0x414 JUMPI POP POP POP JUMP JUMPDEST DUP2 DUP2 SSTORE PUSH1 0x1 ADD PUSH3 0x407 JUMP JUMPDEST SWAP1 SWAP3 POP DUP3 SWAP1 PUSH3 0x3FE JUMP JUMPDEST PUSH1 0x1F DUP2 GT PUSH3 0x438 JUMPI POP POP JUMP JUMPDEST PUSH1 0x0 SWAP1 PUSH1 0x5 DUP3 MSTORE PUSH1 0x20 DUP3 KECCAK256 SWAP1 PUSH1 0x20 PUSH1 0x1F DUP6 ADD PUSH1 0x5 SHR DUP4 ADD SWAP5 LT PUSH3 0x479 JUMPI JUMPDEST PUSH1 0x1F ADD PUSH1 0x5 SHR ADD SWAP2 JUMPDEST DUP3 DUP2 LT PUSH3 0x46D JUMPI POP POP POP JUMP JUMPDEST DUP2 DUP2 SSTORE PUSH1 0x1 ADD PUSH3 0x460 JUMP JUMPDEST SWAP1 SWAP3 POP DUP3 SWAP1 PUSH3 0x457 JUMP JUMPDEST PUSH1 0x1F DUP2 GT PUSH3 0x491 JUMPI POP POP JUMP JUMPDEST PUSH1 0x0 SWAP1 PUSH1 0x6 DUP3 MSTORE PUSH1 0x20 DUP3 KECCAK256 SWAP1 PUSH1 0x20 PUSH1 0x1F DUP6 ADD PUSH1 0x5 SHR DUP4 ADD SWAP5 LT PUSH3 0x4D2 JUMPI JUMPDEST PUSH1 0x1F ADD PUSH1 0x5 SHR ADD SWAP2 JUMPDEST DUP3 DUP2 LT PUSH3 0x4C6 JUMPI POP POP POP JUMP JUMPDEST DUP2 DUP2 SSTORE PUSH1 0x1 ADD PUSH3 0x4B9 JUMP JUMPDEST SWAP1 SWAP3 POP DUP3 SWAP1 PUSH3 0x4B0 JUMP JUMPDEST DUP1 MLOAD SWAP1 SWAP2 SWAP1 PUSH1 0x1 PUSH1 0x1 PUSH1 0x40 SHL SUB DUP2 GT PUSH3 0xDA JUMPI PUSH3 0x509 DUP2 PUSH3 0x503 PUSH1 0x4 SLOAD PUSH3 0x33C JUMP JUMPDEST PUSH3 0x3D2 JUMP JUMPDEST PUSH1 0x20 DUP1 PUSH1 0x1F DUP4 GT PUSH1 0x1 EQ PUSH3 0x548 JUMPI POP DUP2 SWAP3 SWAP4 PUSH1 0x0 SWAP3 PUSH3 0x53C JUMPI JUMPDEST POP POP DUP2 PUSH1 0x1 SHL SWAP2 PUSH1 0x0 NOT SWAP1 PUSH1 0x3 SHL SHR NOT AND OR PUSH1 0x4 SSTORE JUMP JUMPDEST ADD MLOAD SWAP1 POP CODESIZE DUP1 PUSH3 0x525 JUMP JUMPDEST PUSH1 0x4 PUSH1 0x0 MSTORE PUSH1 0x1F NOT DUP4 AND SWAP5 SWAP1 SWAP2 SWAP1 PUSH32 0x8A35ACFBC15FF81A39AE7D344FD709F28E8600B4AA8C65C6B64BFE7FE36BD19B SWAP3 PUSH1 0x0 SWAP1 JUMPDEST DUP8 DUP3 LT PUSH3 0x5B7 JUMPI POP POP DUP4 PUSH1 0x1 SWAP6 SWAP7 LT PUSH3 0x59D JUMPI JUMPDEST POP POP POP DUP2 SHL ADD PUSH1 0x4 SSTORE JUMP JUMPDEST ADD MLOAD PUSH1 0x0 NOT PUSH1 0xF8 DUP5 PUSH1 0x3 SHL AND SHR NOT AND SWAP1 SSTORE CODESIZE DUP1 DUP1 PUSH3 0x592 JUMP JUMPDEST DUP1 PUSH1 0x1 DUP6 SWAP7 DUP3 SWAP5 SWAP7 DUP7 ADD MLOAD DUP2 SSTORE ADD SWAP6 ADD SWAP4 ADD SWAP1 PUSH3 0x57C JUMP JUMPDEST PUSH1 0xB DUP1 SLOAD PUSH1 0x1 PUSH1 0x1 PUSH1 0xA0 SHL SUB SWAP3 DUP4 AND PUSH1 0x1 PUSH1 0x1 PUSH1 0xA0 SHL SUB NOT DUP3 AND DUP2 OR SWAP1 SWAP3 SSTORE SWAP1 SWAP2 AND PUSH32 0x8BE0079C531659141344CD1FD0A4F28419497F9722A3DAAFE3B4186F6B6457E0 PUSH1 0x0 DUP1 LOG3 JUMP JUMPDEST PUSH1 0x1 PUSH1 0x1 PUSH1 0xA0 SHL SUB DUP2 AND DUP1 ISZERO PUSH3 0x6F3 JUMPI PUSH1 0x2 SLOAD PUSH10 0xD3C21BCECCEDA1000000 SWAP1 DUP2 DUP2 ADD DUP1 SWAP2 GT PUSH3 0x6ED JUMPI PUSH1 0x2 SSTORE PUSH1 0x1 PUSH1 0x1 PUSH1 0xA0 SHL SUB DUP4 AND PUSH1 0x0 SWAP1 DUP2 MSTORE PUSH1 0x20 DUP2 SWAP1 MSTORE PUSH1 0x40 SWAP1 KECCAK256 SWAP1 DUP2 SLOAD ADD SWAP1 SSTORE PUSH1 0x0 PUSH32 0xDDF252AD1BE2C89B69C2B068FC378DAA952BA7F163C4A11628F55A4DF523B3EF PUSH1 0x40 MLOAD DUP1 PUSH3 0x6A5 DUP2 SWAP1 PUSH10 0xD3C21BCECCEDA1000000 PUSH1 0x20 DUP4 ADD SWAP3 MSTORE JUMP JUMPDEST SUB SWAP1 LOG3 PUSH1 0x2 SLOAD PUSH1 0x1 PUSH1 0x1 PUSH1 0xD0 SHL SUB DUP2 GT PUSH3 0x6C6 JUMPI POP PUSH3 0x10B SWAP1 PUSH3 0xA3C JUMP JUMPDEST PUSH1 0x40 MLOAD PUSH4 0xE58AE93 PUSH1 0xE1 SHL DUP2 MSTORE PUSH1 0x4 DUP2 ADD SWAP2 SWAP1 SWAP2 MSTORE PUSH1 0x1 PUSH1 0x1 PUSH1 0xD0 SHL SUB PUSH1 0x24 DUP3 ADD MSTORE PUSH1 0x44 SWAP1 REVERT JUMPDEST PUSH3 0xD7B JUMP JUMPDEST PUSH1 0x40 MLOAD PUSH4 0xEC442F05 PUSH1 0xE0 SHL DUP2 MSTORE PUSH1 0x0 PUSH1 0x4 DUP3 ADD MSTORE PUSH1 0x24 SWAP1 REVERT JUMPDEST SWAP1 DUP2 MLOAD PUSH1 0x20 DUP1 DUP3 LT PUSH1 0x0 EQ PUSH3 0x72D JUMPI POP POP SWAP1 PUSH3 0x72A SWAP1 PUSH3 0x953 JUMP JUMPDEST SWAP1 JUMP JUMPDEST PUSH1 0x1 PUSH1 0x1 PUSH1 0x40 SHL SUB DUP3 GT PUSH3 0xDA JUMPI PUSH3 0x754 DUP3 PUSH3 0x74E PUSH1 0x5 SLOAD PUSH3 0x33C JUMP JUMPDEST PUSH3 0x42B JUMP JUMPDEST DUP1 PUSH1 0x1F DUP4 GT PUSH1 0x1 EQ PUSH3 0x794 JUMPI POP DUP2 SWAP3 SWAP4 PUSH1 0x0 SWAP3 PUSH3 0x788 JUMPI JUMPDEST POP POP DUP2 PUSH1 0x1 SHL SWAP2 PUSH1 0x0 NOT SWAP1 PUSH1 0x3 SHL SHR NOT AND OR PUSH1 0x5 SSTORE PUSH1 0xFF SWAP1 JUMP JUMPDEST ADD MLOAD SWAP1 POP CODESIZE DUP1 PUSH3 0x76E JUMP JUMPDEST PUSH1 0x5 PUSH1 0x0 MSTORE PUSH1 0x1F NOT DUP4 AND SWAP5 SWAP1 SWAP2 SWAP1 PUSH32 0x36B6384B5ECA791C62761152D0C79BB0604C104A5FB6F4EB0703F3154BB3DB0 SWAP3 PUSH1 0x0 SWAP1 JUMPDEST DUP8 DUP3 LT PUSH3 0x806 JUMPI POP POP DUP4 PUSH1 0x1 SWAP6 SWAP7 LT PUSH3 0x7EC JUMPI JUMPDEST POP POP POP DUP2 SHL ADD PUSH1 0x5 SSTORE PUSH1 0xFF SWAP1 JUMP JUMPDEST ADD MLOAD PUSH1 0x0 NOT PUSH1 0xF8 DUP5 PUSH1 0x3 SHL AND SHR NOT AND SWAP1 SSTORE CODESIZE DUP1 DUP1 PUSH3 0x7DE JUMP JUMPDEST DUP1 PUSH1 0x1 DUP6 SWAP7 DUP3 SWAP5 SWAP7 DUP7 ADD MLOAD DUP2 SSTORE ADD SWAP6 ADD SWAP4 ADD SWAP1 PUSH3 0x7C8 JUMP JUMPDEST SWAP1 DUP2 MLOAD PUSH1 0x20 DUP1 DUP3 LT PUSH1 0x0 EQ PUSH3 0x83D JUMPI POP POP SWAP1 PUSH3 0x72A SWAP1 PUSH3 0x953 JUMP JUMPDEST PUSH1 0x1 PUSH1 0x1 PUSH1 0x40 SHL SUB DUP3 GT PUSH3 0xDA JUMPI PUSH3 0x864 DUP3 PUSH3 0x85E PUSH1 0x6 SLOAD PUSH3 0x33C JUMP JUMPDEST PUSH3 0x484 JUMP JUMPDEST DUP1 PUSH1 0x1F DUP4 GT PUSH1 0x1 EQ PUSH3 0x8A4 JUMPI POP DUP2 SWAP3 SWAP4 PUSH1 0x0 SWAP3 PUSH3 0x898 JUMPI JUMPDEST POP POP DUP2 PUSH1 0x1 SHL SWAP2 PUSH1 0x0 NOT SWAP1 PUSH1 0x3 SHL SHR NOT AND OR PUSH1 0x6 SSTORE PUSH1 0xFF SWAP1 JUMP JUMPDEST ADD MLOAD SWAP1 POP CODESIZE DUP1 PUSH3 0x87E JUMP JUMPDEST PUSH1 0x6 PUSH1 0x0 MSTORE PUSH1 0x1F NOT DUP4 AND SWAP5 SWAP1 SWAP2 SWAP1 PUSH32 0xF652222313E28459528D920B65115C16C04F3EFC82AAEDC97BE59F3F377C0D3F SWAP3 PUSH1 0x0 SWAP1 JUMPDEST DUP8 DUP3 LT PUSH3 0x916 JUMPI POP POP DUP4 PUSH1 0x1 SWAP6 SWAP7 LT PUSH3 0x8FC JUMPI JUMPDEST POP POP POP DUP2 SHL ADD PUSH1 0x6 SSTORE PUSH1 0xFF SWAP1 JUMP JUMPDEST ADD MLOAD PUSH1 0x0 NOT PUSH1 0xF8 DUP5 PUSH1 0x3 SHL AND SHR NOT AND SWAP1 SSTORE CODESIZE DUP1 DUP1 PUSH3 0x8EE JUMP JUMPDEST DUP1 PUSH1 0x1 DUP6 SWAP7 DUP3 SWAP5 SWAP7 DUP7 ADD MLOAD DUP2 SSTORE ADD SWAP6 ADD SWAP4 ADD SWAP1 PUSH3 0x8D8 JUMP JUMPDEST PUSH1 0x20 DUP2 MLOAD SWAP2 ADD MLOAD SWAP1 PUSH1 0x20 DUP2 LT PUSH3 0x944 JUMPI POP SWAP1 JUMP JUMPDEST PUSH1 0x0 NOT SWAP1 PUSH1 0x20 SUB PUSH1 0x3 SHL SHL AND SWAP1 JUMP JUMPDEST PUSH1 0x1F DUP2 MLOAD GT PUSH3 0x96E JUMPI PUSH3 0x968 DUP2 PUSH3 0x92F JUMP JUMPDEST SWAP1 MLOAD OR SWAP1 JUMP JUMPDEST PUSH1 0x40 MLOAD SWAP1 PUSH4 0x305A27A9 PUSH1 0xE0 SHL DUP3 MSTORE DUP2 PUSH1 0x20 DUP1 PUSH1 0x4 DUP4 ADD MSTORE DUP3 MLOAD SWAP1 DUP2 PUSH1 0x24 DUP5 ADD MSTORE PUSH1 0x0 SWAP4 JUMPDEST DUP3 DUP6 LT PUSH3 0x9B6 JUMPI POP POP PUSH1 0x44 SWAP3 POP PUSH1 0x0 DUP4 DUP3 DUP5 ADD ADD MSTORE PUSH1 0x1F DUP1 NOT SWAP2 ADD AND DUP2 ADD SUB ADD SWAP1 REVERT JUMPDEST DUP5 DUP2 ADD DUP3 ADD MLOAD DUP7 DUP7 ADD PUSH1 0x44 ADD MSTORE SWAP4 DUP2 ADD SWAP4 DUP6 SWAP4 POP PUSH3 0x992 JUMP JUMPDEST PUSH1 0xE0 MLOAD PUSH2 0x100 MLOAD PUSH1 0x40 MLOAD SWAP1 PUSH1 0x20 DUP3 ADD SWAP3 PUSH32 0x8B73C3C69BB8FE3D512ECC4CF759CC79239F7B179B0FFACAA9A75D522B39400F DUP5 MSTORE PUSH1 0x40 DUP4 ADD MSTORE PUSH1 0x60 DUP3 ADD MSTORE CHAINID PUSH1 0x80 DUP3 ADD MSTORE ADDRESS PUSH1 0xA0 DUP3 ADD MSTORE PUSH1 0xA0 DUP2 MSTORE PUSH1 0xC0 DUP2 ADD DUP2 DUP2 LT PUSH1 0x1 DUP1 PUSH1 0x40 SHL SUB DUP3 GT OR PUSH3 0xDA JUMPI PUSH1 0x40 MSTORE MLOAD SWAP1 KECCAK256 SWAP1 JUMP JUMPDEST PUSH6 0xFFFFFFFFFFFF SWAP1 DUP2 NUMBER GT PUSH3 0xB0E JUMPI PUSH1 0xA SLOAD PUSH1 0x0 SWAP1 DUP1 PUSH3 0xADC JUMPI POP POP PUSH3 0xA78 PUSH3 0x10B SWAP3 PUSH3 0xA6F PUSH1 0x0 PUSH3 0x1038 JUMP JUMPDEST SWAP1 NUMBER AND PUSH3 0xE6F JUMP JUMPDEST POP POP PUSH1 0x1 PUSH1 0x1 PUSH1 0xA0 SHL SUB SWAP1 DUP2 AND SWAP1 DUP2 ISZERO PUSH3 0xACA JUMPI JUMPDEST PUSH1 0x8 PUSH1 0x20 MSTORE PUSH32 0x5EFF886EA0CE6CA488A3D6E336D6C0F75F46D19B42C06CE5EE98E42C96D256C7 SLOAD PUSH1 0x0 SWAP3 DUP4 MSTORE PUSH1 0x40 SWAP1 SWAP3 KECCAK256 SLOAD DUP2 AND SWAP2 AND PUSH3 0xB2D JUMP JUMPDEST PUSH3 0xAD4 PUSH3 0xC8C JUMP JUMPDEST POP POP PUSH3 0xA8E JUMP JUMPDEST SWAP1 SWAP3 PUSH1 0x0 NOT SWAP4 DUP3 DUP6 DUP2 ADD GT PUSH3 0x6ED JUMPI PUSH3 0x10B SWAP5 PUSH3 0xA78 SWAP4 PUSH1 0x20 DUP4 PUSH1 0xA PUSH3 0xA6F SWAP6 MSTORE KECCAK256 ADD ADD SLOAD PUSH1 0x30 SHR PUSH3 0x1038 JUMP JUMPDEST PUSH1 0x40 MLOAD PUSH4 0x6DFCC65 PUSH1 0xE4 SHL DUP2 MSTORE PUSH1 0x30 PUSH1 0x4 DUP3 ADD MSTORE NUMBER PUSH1 0x24 DUP3 ADD MSTORE PUSH1 0x44 SWAP1 REVERT JUMPDEST PUSH1 0x1 PUSH1 0x1 PUSH1 0xA0 SHL SUB DUP1 DUP4 AND SWAP3 SWAP2 SWAP1 DUP2 AND SWAP1 DUP2 DUP5 EQ ISZERO DUP1 PUSH3 0xC83 JUMPI JUMPDEST PUSH3 0xB55 JUMPI JUMPDEST POP POP POP POP JUMP JUMPDEST DUP2 PUSH3 0xBC3 JUMPI JUMPDEST POP POP DUP2 PUSH3 0xB6D JUMPI JUMPDEST DUP1 DUP1 PUSH3 0xB4F JUMP JUMPDEST PUSH1 0x1 PUSH1 0x1 PUSH1 0xA0 SHL SUB AND PUSH1 0x0 SWAP1 DUP2 MSTORE PUSH1 0x9 PUSH1 0x20 MSTORE PUSH1 0x40 SWAP1 KECCAK256 PUSH1 0x0 DUP1 MLOAD PUSH1 0x20 PUSH3 0x3527 DUP4 CODECOPY DUP2 MLOAD SWAP2 MSTORE SWAP1 PUSH3 0xBA0 SWAP1 PUSH3 0xD0B JUMP JUMPDEST PUSH1 0x40 DUP1 MLOAD PUSH1 0x1 PUSH1 0x1 PUSH1 0xD0 SHL SUB SWAP4 DUP5 AND DUP2 MSTORE SWAP2 SWAP1 SWAP3 AND PUSH1 0x20 DUP3 ADD MSTORE LOG2 CODESIZE DUP1 PUSH3 0xB65 JUMP JUMPDEST PUSH1 0x1 PUSH1 0x1 PUSH1 0xA0 SHL SUB AND PUSH1 0x0 SWAP1 DUP2 MSTORE PUSH1 0x9 PUSH1 0x20 MSTORE PUSH1 0x40 SWAP1 KECCAK256 PUSH6 0xFFFFFFFFFFFF DUP1 NUMBER GT PUSH3 0xB0E JUMPI DUP2 SLOAD PUSH1 0x0 SWAP1 DUP1 PUSH3 0xC45 JUMPI POP POP PUSH3 0xC22 SWAP1 PUSH1 0x0 DUP1 MLOAD PUSH1 0x20 PUSH3 0x3527 DUP4 CODECOPY DUP2 MLOAD SWAP2 MSTORE SWAP3 PUSH3 0xC18 PUSH1 0x0 PUSH3 0x105A JUMP JUMPDEST SWAP2 NUMBER AND SWAP1 PUSH3 0xF6B JUMP JUMPDEST PUSH1 0x40 DUP1 MLOAD PUSH1 0x1 PUSH1 0x1 PUSH1 0xD0 SHL SUB SWAP4 DUP5 AND DUP2 MSTORE SWAP2 SWAP1 SWAP3 AND PUSH1 0x20 DUP3 ADD MSTORE LOG2 CODESIZE DUP1 PUSH3 0xB5C JUMP JUMPDEST SWAP2 SWAP1 SWAP3 PUSH1 0x0 NOT SWAP4 DUP4 DUP6 DUP2 ADD GT PUSH3 0x6ED JUMPI PUSH1 0x0 DUP1 MLOAD PUSH1 0x20 PUSH3 0x3527 DUP4 CODECOPY DUP2 MLOAD SWAP2 MSTORE SWAP5 PUSH3 0xC22 SWAP5 PUSH1 0x20 DUP4 DUP6 PUSH3 0xC18 SWAP6 MSTORE KECCAK256 ADD ADD SLOAD PUSH1 0x30 SHR PUSH3 0x105A JUMP JUMPDEST POP PUSH1 0x1 PUSH3 0xB49 JUMP JUMPDEST PUSH6 0xFFFFFFFFFFFF DUP1 NUMBER GT PUSH3 0xB0E JUMPI PUSH1 0xA SLOAD PUSH1 0x0 SWAP1 DUP1 PUSH3 0xCDD JUMPI POP POP PUSH1 0x0 JUMPDEST PUSH1 0x1 PUSH1 0x1 PUSH1 0xD0 SHL SUB SWAP1 DUP2 AND PUSH10 0xD3C21BCECCEDA0FFFFFF NOT ADD SWAP1 DUP2 GT PUSH3 0x6ED JUMPI PUSH3 0xCD9 SWAP2 NUMBER AND PUSH3 0xE6F JUMP JUMPDEST SWAP1 SWAP2 JUMP JUMPDEST PUSH1 0x0 NOT SWAP2 DUP2 DUP4 DUP2 ADD GT PUSH3 0x6ED JUMPI PUSH1 0xA SWAP1 MSTORE ADD PUSH1 0x0 DUP1 MLOAD PUSH1 0x20 PUSH3 0x3507 DUP4 CODECOPY DUP2 MLOAD SWAP2 MSTORE ADD SLOAD PUSH1 0x30 SHR PUSH3 0xCAC JUMP JUMPDEST PUSH6 0xFFFFFFFFFFFF SWAP1 DUP2 NUMBER GT PUSH3 0xB0E JUMPI DUP1 SLOAD PUSH1 0x0 SWAP1 DUP1 PUSH3 0xD59 JUMPI POP POP PUSH1 0x0 SWAP1 JUMPDEST PUSH1 0x1 PUSH1 0x1 PUSH1 0xD0 SHL SUB SWAP2 DUP3 AND PUSH10 0xD3C21BCECCEDA1000000 ADD SWAP2 DUP3 GT PUSH3 0x6ED JUMPI PUSH3 0xCD9 SWAP3 NUMBER AND SWAP1 PUSH3 0xF6B JUMP JUMPDEST PUSH1 0x0 NOT SWAP2 DUP2 DUP4 DUP2 ADD GT PUSH3 0x6ED JUMPI DUP1 DUP5 PUSH1 0x20 SWAP3 MSTORE KECCAK256 ADD ADD SLOAD PUSH1 0x30 SHR SWAP1 PUSH3 0xD2C JUMP JUMPDEST PUSH4 0x4E487B71 PUSH1 0xE0 SHL PUSH1 0x0 MSTORE PUSH1 0x11 PUSH1 0x4 MSTORE PUSH1 0x24 PUSH1 0x0 REVERT JUMPDEST PUSH1 0x0 NOT DUP2 ADD SWAP2 SWAP1 DUP3 GT PUSH3 0x6ED JUMPI JUMP JUMPDEST PUSH1 0xA SLOAD SWAP1 PUSH9 0x10000000000000000 DUP3 LT ISZERO PUSH3 0xDA JUMPI PUSH1 0x1 DUP3 ADD DUP1 PUSH1 0xA SSTORE DUP3 LT ISZERO PUSH3 0xE03 JUMPI PUSH1 0xA PUSH1 0x0 MSTORE DUP1 MLOAD PUSH1 0x20 SWAP2 SWAP1 SWAP2 ADD MLOAD PUSH1 0x30 SHL PUSH6 0xFFFFFFFFFFFF NOT AND PUSH6 0xFFFFFFFFFFFF SWAP2 SWAP1 SWAP2 AND OR PUSH1 0x0 DUP1 MLOAD PUSH1 0x20 PUSH3 0x3507 DUP4 CODECOPY DUP2 MLOAD SWAP2 MSTORE SWAP1 SWAP2 ADD SSTORE JUMP JUMPDEST PUSH4 0x4E487B71 PUSH1 0xE0 SHL PUSH1 0x0 MSTORE PUSH1 0x32 PUSH1 0x4 MSTORE PUSH1 0x24 PUSH1 0x0 REVERT JUMPDEST SWAP1 DUP2 SLOAD PUSH9 0x10000000000000000 DUP2 LT ISZERO PUSH3 0xDA JUMPI PUSH1 0x1 DUP2 ADD DUP1 DUP5 SSTORE DUP2 LT ISZERO PUSH3 0xE03 JUMPI PUSH1 0x0 SWAP3 DUP4 MSTORE PUSH1 0x20 SWAP3 DUP4 SWAP1 KECCAK256 DUP3 MLOAD SWAP3 SWAP1 SWAP4 ADD MLOAD PUSH1 0x30 SHL PUSH6 0xFFFFFFFFFFFF NOT AND PUSH6 0xFFFFFFFFFFFF SWAP3 SWAP1 SWAP3 AND SWAP2 SWAP1 SWAP2 OR SWAP2 ADD SSTORE JUMP JUMPDEST PUSH1 0xA SLOAD SWAP2 SWAP3 SWAP2 DUP1 ISZERO PUSH3 0xF3C JUMPI PUSH3 0xE8B PUSH3 0xEA4 SWAP2 PUSH3 0xD91 JUMP JUMPDEST PUSH1 0xA PUSH1 0x0 MSTORE PUSH1 0x0 DUP1 MLOAD PUSH1 0x20 PUSH3 0x3507 DUP4 CODECOPY DUP2 MLOAD SWAP2 MSTORE ADD SWAP1 JUMP JUMPDEST SWAP1 DUP2 SLOAD SWAP2 PUSH6 0xFFFFFFFFFFFF SWAP1 DUP2 DUP5 AND SWAP2 DUP4 AND DUP1 DUP4 GT PUSH3 0xF2A JUMPI DUP7 SWAP3 SUB PUSH3 0xEEC JUMPI PUSH3 0xEE5 SWAP3 POP SWAP1 PUSH6 0xFFFFFFFFFFFF DUP3 SLOAD SWAP2 DUP2 NOT SWAP1 PUSH1 0x30 SHL AND SWAP2 AND OR SWAP1 SSTORE JUMP JUMPDEST PUSH1 0x30 SHR SWAP2 SWAP1 JUMP JUMPDEST POP POP PUSH3 0xF24 SWAP1 PUSH3 0xF0F PUSH3 0xF01 PUSH3 0xFC JUMP JUMPDEST PUSH6 0xFFFFFFFFFFFF SWAP1 SWAP3 AND DUP3 MSTORE JUMP JUMPDEST PUSH1 0x1 PUSH1 0x1 PUSH1 0xD0 SHL SUB DUP6 AND PUSH1 0x20 DUP3 ADD MSTORE PUSH3 0xDA1 JUMP JUMPDEST PUSH3 0xEE5 JUMP JUMPDEST PUSH1 0x40 MLOAD PUSH4 0x2520601D PUSH1 0xE0 SHL DUP2 MSTORE PUSH1 0x4 SWAP1 REVERT JUMPDEST POP PUSH3 0xF65 SWAP1 PUSH3 0xF50 PUSH3 0xF01 PUSH3 0xFC JUMP JUMPDEST PUSH1 0x1 PUSH1 0x1 PUSH1 0xD0 SHL SUB DUP5 AND PUSH1 0x20 DUP3 ADD MSTORE PUSH3 0xDA1 JUMP JUMPDEST PUSH1 0x0 SWAP2 SWAP1 JUMP JUMPDEST DUP1 SLOAD SWAP3 SWAP4 SWAP3 DUP1 ISZERO PUSH3 0x100E JUMPI PUSH3 0xF86 PUSH3 0xF93 SWAP2 PUSH3 0xD91 JUMP JUMPDEST DUP3 PUSH1 0x0 MSTORE PUSH1 0x20 PUSH1 0x0 KECCAK256 ADD SWAP1 JUMP JUMPDEST SWAP2 DUP3 SLOAD SWAP3 PUSH6 0xFFFFFFFFFFFF SWAP2 DUP3 DUP6 AND SWAP3 DUP2 AND DUP1 DUP5 GT PUSH3 0xF2A JUMPI DUP8 SWAP4 SUB PUSH3 0xFD5 JUMPI POP PUSH3 0xEE5 SWAP3 POP SWAP1 PUSH6 0xFFFFFFFFFFFF DUP3 SLOAD SWAP2 DUP2 NOT SWAP1 PUSH1 0x30 SHL AND SWAP2 AND OR SWAP1 SSTORE JUMP JUMPDEST SWAP2 POP POP PUSH3 0xF24 SWAP2 PUSH3 0xFF9 PUSH3 0xFEB PUSH3 0xFC JUMP JUMPDEST PUSH6 0xFFFFFFFFFFFF SWAP1 SWAP4 AND DUP4 MSTORE JUMP JUMPDEST PUSH1 0x1 PUSH1 0x1 PUSH1 0xD0 SHL SUB DUP7 AND PUSH1 0x20 DUP4 ADD MSTORE PUSH3 0xE19 JUMP JUMPDEST POP SWAP1 PUSH3 0xF65 SWAP2 PUSH3 0x1023 PUSH3 0xFEB PUSH3 0xFC JUMP JUMPDEST PUSH1 0x1 PUSH1 0x1 PUSH1 0xD0 SHL SUB DUP6 AND PUSH1 0x20 DUP4 ADD MSTORE PUSH3 0xE19 JUMP JUMPDEST PUSH1 0x1 PUSH1 0x1 PUSH1 0xD0 SHL SUB SWAP1 DUP2 AND PUSH10 0xD3C21BCECCEDA1000000 ADD SWAP1 DUP2 GT PUSH3 0x6ED JUMPI SWAP1 JUMP JUMPDEST PUSH1 0x1 PUSH1 0x1 PUSH1 0xD0 SHL SUB SWAP1 DUP2 AND PUSH10 0xD3C21BCECCEDA0FFFFFF NOT ADD SWAP1 DUP2 GT PUSH3 0x6ED JUMPI SWAP1 JUMP INVALID PUSH1 0x80 PUSH1 0x40 MSTORE PUSH1 0x4 CALLDATASIZE LT ISZERO PUSH2 0x12 JUMPI PUSH1 0x0 DUP1 REVERT JUMPDEST PUSH1 0x0 CALLDATALOAD PUSH1 0xE0 SHR DUP1 PUSH4 0x6FDDE03 EQ PUSH2 0x1F7 JUMPI DUP1 PUSH4 0x95EA7B3 EQ PUSH2 0x1F2 JUMPI DUP1 PUSH4 0x18160DDD EQ PUSH2 0x1ED JUMPI DUP1 PUSH4 0x23B872DD EQ PUSH2 0x1E8 JUMPI DUP1 PUSH4 0x313CE567 EQ PUSH2 0x1E3 JUMPI DUP1 PUSH4 0x32CB6B0C EQ PUSH2 0x1DE JUMPI DUP1 PUSH4 0x3644E515 EQ PUSH2 0x1D9 JUMPI DUP1 PUSH4 0x3A46B1A8 EQ PUSH2 0x1D4 JUMPI DUP1 PUSH4 0x4BF5D7E9 EQ PUSH2 0x1CF JUMPI DUP1 PUSH4 0x587CDE1E EQ PUSH2 0x1CA JUMPI DUP1 PUSH4 0x5C19A95C EQ PUSH2 0x1C5 JUMPI DUP1 PUSH4 0x6FCFFF45 EQ PUSH2 0x1C0 JUMPI DUP1 PUSH4 0x70A08231 EQ PUSH2 0x1BB JUMPI DUP1 PUSH4 0x715018A6 EQ PUSH2 0x1B6 JUMPI DUP1 PUSH4 0x7ECEBE00 EQ PUSH2 0x1B1 JUMPI DUP1 PUSH4 0x84B0196E EQ PUSH2 0x1AC JUMPI DUP1 PUSH4 0x8DA5CB5B EQ PUSH2 0x1A7 JUMPI DUP1 PUSH4 0x8E539E8C EQ PUSH2 0x1A2 JUMPI DUP1 PUSH4 0x91DDADF4 EQ PUSH2 0x19D JUMPI DUP1 PUSH4 0x95D89B41 EQ PUSH2 0x198 JUMPI DUP1 PUSH4 0x9A49090E EQ PUSH2 0x193 JUMPI DUP1 PUSH4 0x9AB24EB0 EQ PUSH2 0x18E JUMPI DUP1 PUSH4 0xA9059CBB EQ PUSH2 0x189 JUMPI DUP1 PUSH4 0xC3CDA520 EQ PUSH2 0x184 JUMPI DUP1 PUSH4 0xC5F3E4B2 EQ PUSH2 0x17F JUMPI DUP1 PUSH4 0xCA6D56DC EQ PUSH2 0x17A JUMPI DUP1 PUSH4 0xD505ACCF EQ PUSH2 0x175 JUMPI DUP1 PUSH4 0xDD62ED3E EQ PUSH2 0x170 JUMPI DUP1 PUSH4 0xF1127ED8 EQ PUSH2 0x16B JUMPI PUSH4 0xF2FDE38B EQ PUSH2 0x166 JUMPI PUSH1 0x0 DUP1 REVERT JUMPDEST PUSH2 0x1089 JUMP JUMPDEST PUSH2 0xFD6 JUMP JUMPDEST PUSH2 0xF7E JUMP JUMPDEST PUSH2 0xE4A JUMP JUMPDEST PUSH2 0xD16 JUMP JUMPDEST PUSH2 0xCF2 JUMP JUMPDEST PUSH2 0xC29 JUMP JUMPDEST PUSH2 0xBE3 JUMP JUMPDEST PUSH2 0xB9A JUMP JUMPDEST PUSH2 0xA9C JUMP JUMPDEST PUSH2 0x9F5 JUMP JUMPDEST PUSH2 0x9C9 JUMP JUMPDEST PUSH2 0x8FA JUMP JUMPDEST PUSH2 0x8D1 JUMP JUMPDEST PUSH2 0x7D9 JUMP JUMPDEST PUSH2 0x79F JUMP JUMPDEST PUSH2 0x741 JUMP JUMPDEST PUSH2 0x708 JUMP JUMPDEST PUSH2 0x6A0 JUMP JUMPDEST PUSH2 0x67C JUMP JUMPDEST PUSH2 0x641 JUMP JUMPDEST PUSH2 0x5AF JUMP JUMPDEST PUSH2 0x4C7 JUMP JUMPDEST PUSH2 0x4A4 JUMP JUMPDEST PUSH2 0x47E JUMP JUMPDEST PUSH2 0x462 JUMP JUMPDEST PUSH2 0x3B5 JUMP JUMPDEST PUSH2 0x397 JUMP JUMPDEST PUSH2 0x366 JUMP JUMPDEST PUSH2 0x250 JUMP JUMPDEST SWAP2 SWAP1 DUP3 MLOAD SWAP3 DUP4 DUP3 MSTORE PUSH1 0x0 JUMPDEST DUP5 DUP2 LT PUSH2 0x228 JUMPI POP POP DUP3 PUSH1 0x0 PUSH1 0x20 DUP1 SWAP5 SWAP6 DUP5 ADD ADD MSTORE PUSH1 0x1F DUP1 NOT SWAP2 ADD AND ADD ADD SWAP1 JUMP JUMPDEST PUSH1 0x20 DUP2 DUP4 ADD DUP2 ADD MLOAD DUP5 DUP4 ADD DUP3 ADD MSTORE ADD PUSH2 0x207 JUMP JUMPDEST SWAP1 PUSH1 0x20 PUSH2 0x24D SWAP3 DUP2 DUP2 MSTORE ADD SWAP1 PUSH2 0x1FC JUMP JUMPDEST SWAP1 JUMP JUMPDEST CALLVALUE PUSH2 0x335 JUMPI PUSH1 0x0 DUP1 PUSH1 0x3 NOT CALLDATASIZE ADD SLT PUSH2 0x332 JUMPI PUSH1 0x40 MLOAD SWAP1 DUP1 PUSH1 0x3 SLOAD PUSH2 0x273 DUP2 PUSH2 0x152F JUMP JUMPDEST DUP1 DUP6 MSTORE SWAP2 PUSH1 0x1 SWAP2 DUP1 DUP4 AND SWAP1 DUP2 ISZERO PUSH2 0x308 JUMPI POP PUSH1 0x1 EQ PUSH2 0x2AD JUMPI JUMPDEST PUSH2 0x2A9 DUP6 PUSH2 0x29D DUP2 DUP8 SUB DUP3 PUSH2 0x11CE JUMP JUMPDEST PUSH1 0x40 MLOAD SWAP2 DUP3 SWAP2 DUP3 PUSH2 0x23C JUMP JUMPDEST SUB SWAP1 RETURN JUMPDEST SWAP3 POP PUSH1 0x3 DUP4 MSTORE PUSH32 0xC2575A0E9E593C00F959F8C92F12DB2869C3395A3B0502D05E2516446F71F85B JUMPDEST DUP3 DUP5 LT PUSH2 0x2F0 JUMPI POP POP POP DUP2 ADD PUSH1 0x20 ADD PUSH2 0x29D DUP3 PUSH2 0x2A9 PUSH2 0x28D JUMP JUMPDEST DUP1 SLOAD PUSH1 0x20 DUP6 DUP8 ADD DUP2 ADD SWAP2 SWAP1 SWAP2 MSTORE SWAP1 SWAP4 ADD SWAP3 DUP2 ADD PUSH2 0x2D5 JUMP JUMPDEST DUP7 SWAP6 POP PUSH2 0x2A9 SWAP7 SWAP4 POP PUSH1 0x20 SWAP3 POP PUSH2 0x29D SWAP5 SWAP2 POP PUSH1 0xFF NOT AND DUP3 DUP5 ADD MSTORE ISZERO ISZERO PUSH1 0x5 SHL DUP3 ADD ADD SWAP3 SWAP4 PUSH2 0x28D JUMP JUMPDEST DUP1 REVERT JUMPDEST PUSH1 0x0 DUP1 REVERT JUMPDEST PUSH1 0x4 CALLDATALOAD SWAP1 PUSH1 0x1 PUSH1 0x1 PUSH1 0xA0 SHL SUB DUP3 AND DUP3 SUB PUSH2 0x335 JUMPI JUMP JUMPDEST PUSH1 0x24 CALLDATALOAD SWAP1 PUSH1 0x1 PUSH1 0x1 PUSH1 0xA0 SHL SUB DUP3 AND DUP3 SUB PUSH2 0x335 JUMPI JUMP JUMPDEST CALLVALUE PUSH2 0x335 JUMPI PUSH1 0x40 CALLDATASIZE PUSH1 0x3 NOT ADD SLT PUSH2 0x335 JUMPI PUSH2 0x38C PUSH2 0x382 PUSH2 0x33A JUMP JUMPDEST PUSH1 0x24 CALLDATALOAD SWAP1 CALLER PUSH2 0x1662 JUMP JUMPDEST PUSH1 0x20 PUSH1 0x40 MLOAD PUSH1 0x1 DUP2 MSTORE RETURN JUMPDEST CALLVALUE PUSH2 0x335 JUMPI PUSH1 0x0 CALLDATASIZE PUSH1 0x3 NOT ADD SLT PUSH2 0x335 JUMPI PUSH1 0x20 PUSH1 0x2 SLOAD PUSH1 0x40 MLOAD SWAP1 DUP2 MSTORE RETURN JUMPDEST CALLVALUE PUSH2 0x335 JUMPI PUSH1 0x60 CALLDATASIZE PUSH1 0x3 NOT ADD SLT PUSH2 0x335 JUMPI PUSH2 0x3CE PUSH2 0x33A JUMP JUMPDEST PUSH2 0x3D6 PUSH2 0x350 JUMP JUMPDEST PUSH1 0x1 PUSH1 0x1 PUSH1 0xA0 SHL SUB DUP3 AND PUSH1 0x0 SWAP1 DUP2 MSTORE PUSH1 0x1 PUSH1 0x20 SWAP1 DUP2 MSTORE PUSH1 0x40 DUP1 DUP4 KECCAK256 CALLER DUP5 MSTORE SWAP1 SWAP2 MSTORE SWAP1 KECCAK256 PUSH1 0x44 CALLDATALOAD SWAP2 SWAP1 SLOAD SWAP3 PUSH1 0x0 NOT DUP5 LT PUSH2 0x420 JUMPI JUMPDEST PUSH2 0x414 SWAP4 POP PUSH2 0x1569 JUMP JUMPDEST PUSH1 0x40 MLOAD PUSH1 0x1 DUP2 MSTORE PUSH1 0x20 SWAP1 RETURN JUMPDEST DUP3 DUP5 LT PUSH2 0x43C JUMPI PUSH2 0x437 DUP4 PUSH2 0x414 SWAP6 SUB CALLER DUP4 PUSH2 0x1716 JUMP JUMPDEST PUSH2 0x40A JUMP JUMPDEST PUSH1 0x40 MLOAD PUSH4 0x7DC7A0D9 PUSH1 0xE1 SHL DUP2 MSTORE CALLER PUSH1 0x4 DUP3 ADD MSTORE PUSH1 0x24 DUP2 ADD DUP6 SWAP1 MSTORE PUSH1 0x44 DUP2 ADD DUP5 SWAP1 MSTORE PUSH1 0x64 SWAP1 REVERT JUMPDEST CALLVALUE PUSH2 0x335 JUMPI PUSH1 0x0 CALLDATASIZE PUSH1 0x3 NOT ADD SLT PUSH2 0x335 JUMPI PUSH1 0x20 PUSH1 0x40 MLOAD PUSH1 0x12 DUP2 MSTORE RETURN JUMPDEST CALLVALUE PUSH2 0x335 JUMPI PUSH1 0x0 CALLDATASIZE PUSH1 0x3 NOT ADD SLT PUSH2 0x335 JUMPI PUSH1 0x20 PUSH1 0x40 MLOAD PUSH11 0x84595161401484A000000 DUP2 MSTORE RETURN JUMPDEST CALLVALUE PUSH2 0x335 JUMPI PUSH1 0x0 CALLDATASIZE PUSH1 0x3 NOT ADD SLT PUSH2 0x335 JUMPI PUSH1 0x20 PUSH2 0x4BF PUSH2 0x1914 JUMP JUMPDEST PUSH1 0x40 MLOAD SWAP1 DUP2 MSTORE RETURN JUMPDEST CALLVALUE PUSH2 0x335 JUMPI PUSH1 0x40 CALLDATASIZE PUSH1 0x3 NOT ADD SLT PUSH2 0x335 JUMPI PUSH1 0x1 PUSH1 0x1 PUSH1 0xA0 SHL SUB PUSH2 0x4E8 PUSH2 0x33A JUMP JUMPDEST AND PUSH1 0x0 SWAP1 DUP2 MSTORE PUSH1 0x9 PUSH1 0x20 MSTORE PUSH1 0x40 DUP2 KECCAK256 SWAP1 PUSH2 0x503 PUSH1 0x24 CALLDATALOAD PUSH2 0x11FF JUMP JUMPDEST SWAP2 DUP1 SLOAD DUP3 SWAP4 DUP2 PUSH1 0x5 DUP2 GT PUSH2 0x555 JUMPI JUMPDEST POP SWAP1 PUSH1 0x20 SWAP5 PUSH2 0x521 SWAP3 DUP5 PUSH2 0x213F JUMP JUMPDEST DUP1 PUSH2 0x53B JUMPI POP POP JUMPDEST PUSH1 0x40 MLOAD PUSH1 0x1 PUSH1 0x1 PUSH1 0xD0 SHL SUB SWAP1 SWAP2 AND DUP2 MSTORE RETURN JUMPDEST SWAP2 PUSH2 0x547 DUP5 SWAP3 SWAP4 PUSH2 0x1C6C JUMP JUMPDEST SWAP3 DUP2 MSTORE KECCAK256 ADD SLOAD PUSH1 0x30 SHR PUSH2 0x529 JUMP JUMPDEST SWAP5 PUSH2 0x55F DUP7 PUSH2 0x1CA9 JUMP JUMPDEST DUP7 SUB SWAP6 DUP7 GT PUSH2 0x5AA JUMPI PUSH1 0x20 SWAP6 PUSH2 0x521 SWAP4 DUP6 DUP8 MSTORE PUSH6 0xFFFFFFFFFFFF DUP1 DUP4 DUP11 DUP11 KECCAK256 ADD SLOAD AND SWAP1 DUP6 AND LT PUSH1 0x0 EQ PUSH2 0x598 JUMPI POP SWAP2 JUMPDEST SWAP2 SWAP3 POP SWAP5 PUSH2 0x512 JUMP JUMPDEST SWAP3 SWAP2 POP PUSH2 0x5A4 SWAP1 PUSH2 0x1C7B JUMP JUMPDEST SWAP1 PUSH2 0x58F JUMP JUMPDEST PUSH2 0x1519 JUMP JUMPDEST CALLVALUE PUSH2 0x335 JUMPI PUSH1 0x0 CALLDATASIZE PUSH1 0x3 NOT ADD SLT PUSH2 0x335 JUMPI PUSH2 0x5C9 NUMBER PUSH2 0x1C3A JUMP JUMPDEST PUSH6 0xFFFFFFFFFFFF DUP1 PUSH2 0x5DA NUMBER PUSH2 0x1C3A JUMP JUMPDEST AND SWAP2 AND SUB PUSH2 0x62F JUMPI PUSH2 0x2A9 PUSH1 0x40 MLOAD PUSH2 0x5F1 DUP2 PUSH2 0x1159 JUMP JUMPDEST PUSH1 0x1D DUP2 MSTORE PUSH32 0x6D6F64653D626C6F636B6E756D6265722666726F6D3D64656661756C74000000 PUSH1 0x20 DUP3 ADD MSTORE PUSH1 0x40 MLOAD SWAP2 DUP3 SWAP2 PUSH1 0x20 DUP4 MSTORE PUSH1 0x20 DUP4 ADD SWAP1 PUSH2 0x1FC JUMP JUMPDEST PUSH1 0x40 MLOAD PUSH4 0x1BFC1C5 PUSH1 0xE6 SHL DUP2 MSTORE PUSH1 0x4 SWAP1 REVERT JUMPDEST CALLVALUE PUSH2 0x335 JUMPI PUSH1 0x20 CALLDATASIZE PUSH1 0x3 NOT ADD SLT PUSH2 0x335 JUMPI PUSH1 0x20 PUSH1 0x1 PUSH1 0x1 PUSH1 0xA0 SHL SUB DUP1 PUSH2 0x665 PUSH2 0x33A JUMP JUMPDEST AND PUSH1 0x0 MSTORE PUSH1 0x8 DUP3 MSTORE PUSH1 0x40 PUSH1 0x0 KECCAK256 SLOAD AND PUSH1 0x40 MLOAD SWAP1 DUP2 MSTORE RETURN JUMPDEST CALLVALUE PUSH2 0x335 JUMPI PUSH1 0x20 CALLDATASIZE PUSH1 0x3 NOT ADD SLT PUSH2 0x335 JUMPI PUSH2 0x69E PUSH2 0x698 PUSH2 0x33A JUMP JUMPDEST CALLER PUSH2 0x1240 JUMP JUMPDEST STOP JUMPDEST CALLVALUE PUSH2 0x335 JUMPI PUSH1 0x20 CALLDATASIZE PUSH1 0x3 NOT ADD SLT PUSH2 0x335 JUMPI PUSH1 0x1 PUSH1 0x1 PUSH1 0xA0 SHL SUB PUSH2 0x6C1 PUSH2 0x33A JUMP JUMPDEST AND PUSH1 0x0 MSTORE PUSH1 0x9 PUSH1 0x20 MSTORE PUSH1 0x40 PUSH1 0x0 KECCAK256 SLOAD PUSH4 0xFFFFFFFF SWAP1 DUP2 DUP2 GT PUSH2 0x6E9 JUMPI PUSH1 0x20 SWAP2 PUSH1 0x40 MLOAD SWAP2 AND DUP2 MSTORE RETURN JUMPDEST PUSH1 0x44 SWAP1 PUSH1 0x40 MLOAD SWAP1 PUSH4 0x6DFCC65 PUSH1 0xE4 SHL DUP3 MSTORE PUSH1 0x20 PUSH1 0x4 DUP4 ADD MSTORE PUSH1 0x24 DUP3 ADD MSTORE REVERT JUMPDEST CALLVALUE PUSH2 0x335 JUMPI PUSH1 0x20 CALLDATASIZE PUSH1 0x3 NOT ADD SLT PUSH2 0x335 JUMPI PUSH1 0x20 PUSH2 0x4BF PUSH2 0x726 PUSH2 0x33A JUMP JUMPDEST PUSH1 0x1 PUSH1 0x1 PUSH1 0xA0 SHL SUB AND PUSH1 0x0 SWAP1 DUP2 MSTORE PUSH1 0x20 DUP2 SWAP1 MSTORE PUSH1 0x40 SWAP1 KECCAK256 SLOAD SWAP1 JUMP JUMPDEST CALLVALUE PUSH2 0x335 JUMPI PUSH1 0x0 DUP1 PUSH1 0x3 NOT CALLDATASIZE ADD SLT PUSH2 0x332 JUMPI PUSH2 0x75B PUSH2 0x1117 JUMP JUMPDEST PUSH1 0xB DUP1 SLOAD PUSH1 0x1 PUSH1 0x1 PUSH1 0xA0 SHL SUB NOT DUP2 AND SWAP1 SWAP2 SSTORE DUP2 SWAP1 PUSH1 0x1 PUSH1 0x1 PUSH1 0xA0 SHL SUB AND PUSH32 0x8BE0079C531659141344CD1FD0A4F28419497F9722A3DAAFE3B4186F6B6457E0 DUP3 DUP1 LOG3 DUP1 RETURN JUMPDEST CALLVALUE PUSH2 0x335 JUMPI PUSH1 0x20 CALLDATASIZE PUSH1 0x3 NOT ADD SLT PUSH2 0x335 JUMPI PUSH1 0x1 PUSH1 0x1 PUSH1 0xA0 SHL SUB PUSH2 0x7C0 PUSH2 0x33A JUMP JUMPDEST AND PUSH1 0x0 MSTORE PUSH1 0x7 PUSH1 0x20 MSTORE PUSH1 0x20 PUSH1 0x40 PUSH1 0x0 KECCAK256 SLOAD PUSH1 0x40 MLOAD SWAP1 DUP2 MSTORE RETURN JUMPDEST CALLVALUE PUSH2 0x335 JUMPI PUSH1 0x0 DUP1 PUSH1 0x3 NOT CALLDATASIZE ADD SLT PUSH2 0x332 JUMPI PUSH2 0x883 SWAP1 PUSH2 0x818 PUSH32 0x0 PUSH2 0x1A54 JUMP JUMPDEST PUSH2 0x841 PUSH32 0x0 PUSH2 0x1B4D JUMP JUMPDEST SWAP2 PUSH1 0x40 MLOAD SWAP2 PUSH2 0x84F DUP4 PUSH2 0x117A JUMP JUMPDEST DUP2 DUP4 MSTORE PUSH1 0x40 MLOAD SWAP5 DUP6 SWAP5 PUSH1 0xF PUSH1 0xF8 SHL DUP7 MSTORE PUSH2 0x875 PUSH1 0x20 SWAP4 PUSH1 0xE0 DUP6 DUP10 ADD MSTORE PUSH1 0xE0 DUP9 ADD SWAP1 PUSH2 0x1FC JUMP JUMPDEST SWAP1 DUP7 DUP3 SUB PUSH1 0x40 DUP9 ADD MSTORE PUSH2 0x1FC JUMP JUMPDEST SWAP1 CHAINID PUSH1 0x60 DUP7 ADD MSTORE ADDRESS PUSH1 0x80 DUP7 ADD MSTORE DUP3 PUSH1 0xA0 DUP7 ADD MSTORE DUP5 DUP3 SUB PUSH1 0xC0 DUP7 ADD MSTORE DUP1 DUP1 DUP6 MLOAD SWAP4 DUP5 DUP2 MSTORE ADD SWAP5 ADD SWAP3 JUMPDEST DUP3 DUP2 LT PUSH2 0x8BA JUMPI POP POP POP POP SUB SWAP1 RETURN JUMPDEST DUP4 MLOAD DUP6 MSTORE DUP7 SWAP6 POP SWAP4 DUP2 ADD SWAP4 SWAP3 DUP2 ADD SWAP3 PUSH1 0x1 ADD PUSH2 0x8AB JUMP JUMPDEST CALLVALUE PUSH2 0x335 JUMPI PUSH1 0x0 CALLDATASIZE PUSH1 0x3 NOT ADD SLT PUSH2 0x335 JUMPI PUSH1 0xB SLOAD PUSH1 0x40 MLOAD PUSH1 0x1 PUSH1 0x1 PUSH1 0xA0 SHL SUB SWAP1 SWAP2 AND DUP2 MSTORE PUSH1 0x20 SWAP1 RETURN JUMPDEST CALLVALUE PUSH2 0x335 JUMPI PUSH1 0x20 CALLDATASIZE PUSH1 0x3 NOT ADD SLT PUSH2 0x335 JUMPI PUSH2 0x916 PUSH1 0x4 CALLDATALOAD PUSH2 0x11FF JUMP JUMPDEST PUSH1 0xA SLOAD SWAP1 PUSH1 0x0 DUP3 SWAP2 PUSH1 0x5 DUP5 GT PUSH2 0x96E JUMPI JUMPDEST PUSH2 0x931 SWAP4 POP PUSH2 0x20D6 JUMP JUMPDEST PUSH1 0x0 DUP2 PUSH2 0x946 JUMPI POP POP PUSH1 0x40 MLOAD PUSH1 0x0 DUP2 MSTORE PUSH1 0x20 SWAP1 RETURN JUMPDEST PUSH1 0xA PUSH2 0x953 PUSH1 0x20 SWAP4 PUSH2 0x1C6C JUMP JUMPDEST SWAP2 MSTORE PUSH1 0x0 DUP1 MLOAD PUSH1 0x20 PUSH2 0x2414 DUP4 CODECOPY DUP2 MLOAD SWAP2 MSTORE ADD SLOAD PUSH1 0x30 SHR PUSH2 0x529 JUMP JUMPDEST SWAP2 SWAP3 PUSH2 0x979 DUP2 PUSH2 0x1CA9 JUMP JUMPDEST DUP2 SUB SWAP1 DUP2 GT PUSH2 0x5AA JUMPI PUSH2 0x931 SWAP4 PUSH1 0xA DUP4 MSTORE PUSH6 0xFFFFFFFFFFFF DUP1 DUP4 PUSH1 0x0 DUP1 MLOAD PUSH1 0x20 PUSH2 0x2414 DUP4 CODECOPY DUP2 MLOAD SWAP2 MSTORE ADD SLOAD AND SWAP1 DUP6 AND LT PUSH1 0x0 EQ PUSH2 0x9B7 JUMPI POP SWAP2 PUSH2 0x927 JUMP JUMPDEST SWAP3 SWAP2 POP PUSH2 0x9C3 SWAP1 PUSH2 0x1C7B JUMP JUMPDEST SWAP1 PUSH2 0x927 JUMP JUMPDEST CALLVALUE PUSH2 0x335 JUMPI PUSH1 0x0 CALLDATASIZE PUSH1 0x3 NOT ADD SLT PUSH2 0x335 JUMPI PUSH1 0x20 PUSH2 0x9E5 NUMBER PUSH2 0x1C3A JUMP JUMPDEST PUSH6 0xFFFFFFFFFFFF PUSH1 0x40 MLOAD SWAP2 AND DUP2 MSTORE RETURN JUMPDEST CALLVALUE PUSH2 0x335 JUMPI PUSH1 0x0 DUP1 PUSH1 0x3 NOT CALLDATASIZE ADD SLT PUSH2 0x332 JUMPI PUSH1 0x40 MLOAD SWAP1 DUP1 PUSH1 0x4 SLOAD PUSH2 0xA18 DUP2 PUSH2 0x152F JUMP JUMPDEST DUP1 DUP6 MSTORE SWAP2 PUSH1 0x1 SWAP2 DUP1 DUP4 AND SWAP1 DUP2 ISZERO PUSH2 0x308 JUMPI POP PUSH1 0x1 EQ PUSH2 0xA41 JUMPI PUSH2 0x2A9 DUP6 PUSH2 0x29D DUP2 DUP8 SUB DUP3 PUSH2 0x11CE JUMP JUMPDEST SWAP3 POP PUSH1 0x4 DUP4 MSTORE PUSH32 0x8A35ACFBC15FF81A39AE7D344FD709F28E8600B4AA8C65C6B64BFE7FE36BD19B JUMPDEST DUP3 DUP5 LT PUSH2 0xA84 JUMPI POP POP POP DUP2 ADD PUSH1 0x20 ADD PUSH2 0x29D DUP3 PUSH2 0x2A9 PUSH2 0x28D JUMP JUMPDEST DUP1 SLOAD PUSH1 0x20 DUP6 DUP8 ADD DUP2 ADD SWAP2 SWAP1 SWAP2 MSTORE SWAP1 SWAP4 ADD SWAP3 DUP2 ADD PUSH2 0xA69 JUMP JUMPDEST CALLVALUE PUSH2 0x335 JUMPI PUSH1 0x40 CALLDATASIZE PUSH1 0x3 NOT ADD SLT PUSH2 0x335 JUMPI PUSH2 0xAB5 PUSH2 0x33A JUMP JUMPDEST PUSH1 0x24 CALLDATALOAD PUSH2 0xAC0 PUSH2 0x1117 JUMP JUMPDEST PUSH1 0x2 SLOAD DUP2 DUP2 ADD DUP1 SWAP2 GT PUSH2 0x5AA JUMPI PUSH2 0xAE4 PUSH11 0x84595161401484A000000 DUP3 GT ISZERO PUSH2 0x21A0 JUMP JUMPDEST PUSH1 0x1 PUSH1 0x1 PUSH1 0xA0 SHL SUB DUP4 AND SWAP1 DUP2 ISZERO PUSH2 0xB81 JUMPI PUSH1 0x2 SSTORE PUSH1 0x1 PUSH1 0x1 PUSH1 0xA0 SHL SUB DUP4 AND PUSH1 0x0 SWAP1 DUP2 MSTORE PUSH1 0x20 DUP2 DUP2 MSTORE PUSH1 0x40 DUP1 DUP4 KECCAK256 DUP1 SLOAD DUP7 ADD SWAP1 SSTORE MLOAD DUP5 DUP2 MSTORE PUSH32 0xDDF252AD1BE2C89B69C2B068FC378DAA952BA7F163C4A11628F55A4DF523B3EF SWAP2 SWAP1 LOG3 PUSH1 0x2 SLOAD SWAP2 PUSH1 0x1 PUSH1 0x1 PUSH1 0xD0 SHL SUB DUP4 GT PUSH2 0xB5B JUMPI PUSH2 0x69E SWAP3 POP PUSH2 0x232A JUMP JUMPDEST PUSH1 0x40 MLOAD PUSH4 0xE58AE93 PUSH1 0xE1 SHL DUP2 MSTORE PUSH1 0x4 DUP2 ADD DUP5 SWAP1 MSTORE PUSH1 0x1 PUSH1 0x1 PUSH1 0xD0 SHL SUB PUSH1 0x24 DUP3 ADD MSTORE PUSH1 0x44 SWAP1 REVERT JUMPDEST PUSH1 0x40 MLOAD PUSH4 0xEC442F05 PUSH1 0xE0 SHL DUP2 MSTORE PUSH1 0x0 PUSH1 0x4 DUP3 ADD MSTORE PUSH1 0x24 SWAP1 REVERT JUMPDEST CALLVALUE PUSH2 0x335 JUMPI PUSH1 0x20 CALLDATASIZE PUSH1 0x3 NOT ADD SLT PUSH2 0x335 JUMPI PUSH1 0x1 PUSH1 0x1 PUSH1 0xA0 SHL SUB PUSH2 0xBBB PUSH2 0x33A JUMP JUMPDEST AND PUSH1 0x0 MSTORE PUSH1 0x9 PUSH1 0x20 MSTORE PUSH1 0x20 PUSH1 0x1 DUP1 PUSH1 0xD0 SHL SUB PUSH2 0xBDA PUSH1 0x40 PUSH1 0x0 KECCAK256 PUSH2 0x1E1E JUMP JUMPDEST AND PUSH1 0x40 MLOAD SWAP1 DUP2 MSTORE RETURN JUMPDEST CALLVALUE PUSH2 0x335 JUMPI PUSH1 0x40 CALLDATASIZE PUSH1 0x3 NOT ADD SLT PUSH2 0x335 JUMPI PUSH2 0x38C PUSH2 0xBFF PUSH2 0x33A JUMP JUMPDEST PUSH1 0x24 CALLDATALOAD SWAP1 CALLER PUSH2 0x1569 JUMP JUMPDEST PUSH1 0x64 CALLDATALOAD SWAP1 PUSH1 0xFF DUP3 AND DUP3 SUB PUSH2 0x335 JUMPI JUMP JUMPDEST PUSH1 0x84 CALLDATALOAD SWAP1 PUSH1 0xFF DUP3 AND DUP3 SUB PUSH2 0x335 JUMPI JUMP JUMPDEST CALLVALUE PUSH2 0x335 JUMPI PUSH1 0xC0 CALLDATASIZE PUSH1 0x3 NOT ADD SLT PUSH2 0x335 JUMPI PUSH2 0xC42 PUSH2 0x33A JUMP JUMPDEST PUSH1 0x44 CALLDATALOAD SWAP1 PUSH1 0x24 CALLDATALOAD PUSH2 0xC51 PUSH2 0xC09 JUMP JUMPDEST DUP4 TIMESTAMP GT PUSH2 0xCD9 JUMPI PUSH2 0xCCD PUSH2 0x69E SWAP5 PUSH2 0xCD4 SWAP3 PUSH1 0x40 MLOAD SWAP1 PUSH1 0x20 DUP3 ADD SWAP3 PUSH32 0xE48329057BFD03D55E49B547132E39CFFD9C1820AD7B9D4C5307691425D15ADF DUP5 MSTORE PUSH1 0x1 DUP1 PUSH1 0xA0 SHL SUB DUP9 AND PUSH1 0x40 DUP5 ADD MSTORE DUP7 PUSH1 0x60 DUP5 ADD MSTORE PUSH1 0x80 DUP4 ADD MSTORE PUSH1 0x80 DUP3 MSTORE PUSH2 0xCB5 DUP3 PUSH2 0x1196 JUMP JUMPDEST PUSH2 0xCC8 PUSH1 0xA4 CALLDATALOAD SWAP4 PUSH1 0x84 CALLDATALOAD SWAP4 MLOAD SWAP1 KECCAK256 PUSH2 0x1A2E JUMP JUMPDEST PUSH2 0x17BF JUMP JUMPDEST SWAP2 DUP3 PUSH2 0x1769 JUMP JUMPDEST PUSH2 0x1240 JUMP JUMPDEST PUSH1 0x40 MLOAD PUSH4 0x2341D787 PUSH1 0xE1 SHL DUP2 MSTORE PUSH1 0x4 DUP2 ADD DUP6 SWAP1 MSTORE PUSH1 0x24 SWAP1 REVERT JUMPDEST CALLVALUE PUSH2 0x335 JUMPI PUSH1 0x0 CALLDATASIZE PUSH1 0x3 NOT ADD SLT PUSH2 0x335 JUMPI PUSH1 0x20 PUSH1 0x40 MLOAD PUSH9 0x56BC75E2D63100000 DUP2 MSTORE RETURN JUMPDEST CALLVALUE PUSH2 0x335 JUMPI PUSH1 0x20 CALLDATASIZE PUSH1 0x3 NOT ADD SLT PUSH2 0x335 JUMPI PUSH2 0xD2F PUSH2 0x33A JUMP JUMPDEST PUSH2 0xD37 PUSH2 0x1117 JUMP JUMPDEST PUSH1 0x2 SLOAD SWAP1 PUSH9 0x56BC75E2D63100000 SWAP1 DUP2 DUP4 ADD DUP1 SWAP4 GT PUSH2 0x5AA JUMPI PUSH2 0xD67 PUSH11 0x84595161401484A000000 DUP5 GT ISZERO PUSH2 0x21A0 JUMP JUMPDEST PUSH1 0x1 PUSH1 0x1 PUSH1 0xA0 SHL SUB DUP2 AND SWAP3 DUP4 ISZERO PUSH2 0xB81 JUMPI PUSH1 0x2 SSTORE PUSH1 0x1 PUSH1 0x1 PUSH1 0xA0 SHL SUB DUP2 AND PUSH1 0x0 SWAP1 DUP2 MSTORE PUSH1 0x20 DUP2 SWAP1 MSTORE PUSH1 0x40 SWAP1 KECCAK256 DUP3 DUP2 SLOAD ADD SWAP1 SSTORE DUP3 PUSH1 0x0 PUSH32 0xDDF252AD1BE2C89B69C2B068FC378DAA952BA7F163C4A11628F55A4DF523B3EF PUSH1 0x40 MLOAD DUP1 PUSH2 0xDD8 DUP2 SWAP1 PUSH9 0x56BC75E2D63100000 PUSH1 0x20 DUP4 ADD SWAP3 MSTORE JUMP JUMPDEST SUB SWAP1 LOG3 PUSH1 0x2 SLOAD PUSH1 0x1 PUSH1 0x1 PUSH1 0xD0 SHL SUB DUP2 GT PUSH2 0xE23 JUMPI POP PUSH32 0xEDE8EED4383E9241982619B94DD83E488B274CCED0FD07B8C0092A393DEFD52F SWAP2 PUSH2 0xE1A PUSH1 0x20 SWAP3 PUSH2 0x21E2 JUMP JUMPDEST PUSH1 0x40 MLOAD SWAP1 DUP2 MSTORE LOG2 STOP JUMPDEST PUSH1 0x40 MLOAD PUSH4 0xE58AE93 PUSH1 0xE1 SHL DUP2 MSTORE PUSH1 0x4 DUP2 ADD SWAP2 SWAP1 SWAP2 MSTORE PUSH1 0x1 PUSH1 0x1 PUSH1 0xD0 SHL SUB PUSH1 0x24 DUP3 ADD MSTORE PUSH1 0x44 SWAP1 REVERT JUMPDEST CALLVALUE PUSH2 0x335 JUMPI PUSH1 0xE0 CALLDATASIZE PUSH1 0x3 NOT ADD SLT PUSH2 0x335 JUMPI PUSH2 0xE63 PUSH2 0x33A JUMP JUMPDEST PUSH2 0xE6B PUSH2 0x350 JUMP JUMPDEST PUSH1 0x44 CALLDATALOAD SWAP1 PUSH1 0x64 CALLDATALOAD PUSH2 0xE7A PUSH2 0xC19 JUMP JUMPDEST DUP2 TIMESTAMP GT PUSH2 0xF65 JUMPI PUSH1 0x1 PUSH1 0x1 PUSH1 0xA0 SHL SUB DUP6 DUP2 AND PUSH1 0x0 DUP2 DUP2 MSTORE PUSH1 0x7 PUSH1 0x20 SWAP1 DUP2 MSTORE PUSH1 0x40 SWAP2 DUP3 SWAP1 KECCAK256 DUP1 SLOAD PUSH1 0x1 DUP2 ADD SWAP1 SWAP2 SSTORE DUP3 MLOAD PUSH32 0x6E71EDAE12B1B97F4D1F60370FEF10105FA2FAAE0126114A169C64845D6126C9 SWAP3 DUP2 ADD SWAP3 DUP4 MSTORE SWAP3 DUP4 ADD SWAP4 SWAP1 SWAP4 MSTORE SWAP3 DUP7 AND PUSH1 0x60 DUP3 ADD MSTORE PUSH1 0x80 DUP2 ADD DUP8 SWAP1 MSTORE PUSH1 0xA0 DUP2 ADD SWAP2 SWAP1 SWAP2 MSTORE PUSH1 0xC0 DUP1 DUP3 ADD SWAP5 SWAP1 SWAP5 MSTORE SWAP3 DUP4 MSTORE PUSH2 0xF1E SWAP3 SWAP1 SWAP2 PUSH2 0xF0B PUSH1 0xE0 DUP4 PUSH2 0x11CE JUMP JUMPDEST PUSH2 0xCC8 PUSH1 0xC4 CALLDATALOAD SWAP4 PUSH1 0xA4 CALLDATALOAD SWAP4 MLOAD SWAP1 KECCAK256 PUSH2 0x1A2E JUMP JUMPDEST PUSH1 0x1 PUSH1 0x1 PUSH1 0xA0 SHL SUB DUP5 DUP2 AND SWAP1 DUP3 AND SUB PUSH2 0xF3B JUMPI POP PUSH2 0x69E SWAP3 PUSH2 0x1662 JUMP JUMPDEST PUSH1 0x40 MLOAD PUSH4 0x25C00723 PUSH1 0xE1 SHL DUP2 MSTORE PUSH1 0x1 PUSH1 0x1 PUSH1 0xA0 SHL SUB SWAP2 DUP3 AND PUSH1 0x4 DUP3 ADD MSTORE SWAP1 DUP5 AND PUSH1 0x24 DUP3 ADD MSTORE PUSH1 0x44 SWAP1 REVERT JUMPDEST PUSH1 0x40 MLOAD PUSH4 0x313C8981 PUSH1 0xE1 SHL DUP2 MSTORE PUSH1 0x4 DUP2 ADD DUP4 SWAP1 MSTORE PUSH1 0x24 SWAP1 REVERT JUMPDEST CALLVALUE PUSH2 0x335 JUMPI PUSH1 0x40 CALLDATASIZE PUSH1 0x3 NOT ADD SLT PUSH2 0x335 JUMPI PUSH1 0x20 PUSH2 0xFCD PUSH2 0xF9C PUSH2 0x33A JUMP JUMPDEST PUSH2 0xFA4 PUSH2 0x350 JUMP JUMPDEST PUSH1 0x1 PUSH1 0x1 PUSH1 0xA0 SHL SUB SWAP2 DUP3 AND PUSH1 0x0 SWAP1 DUP2 MSTORE PUSH1 0x1 DUP6 MSTORE PUSH1 0x40 DUP1 DUP3 KECCAK256 SWAP3 SWAP1 SWAP4 AND DUP2 MSTORE PUSH1 0x20 SWAP2 SWAP1 SWAP2 MSTORE KECCAK256 SWAP1 JUMP JUMPDEST SLOAD PUSH1 0x40 MLOAD SWAP1 DUP2 MSTORE RETURN JUMPDEST CALLVALUE PUSH2 0x335 JUMPI PUSH1 0x40 CALLDATASIZE PUSH1 0x3 NOT ADD SLT PUSH2 0x335 JUMPI PUSH2 0xFEF PUSH2 0x33A JUMP JUMPDEST PUSH1 0x24 CALLDATALOAD SWAP1 PUSH4 0xFFFFFFFF DUP3 AND DUP3 SUB PUSH2 0x335 JUMPI PUSH2 0x2A9 SWAP2 PUSH2 0x103F SWAP2 PUSH2 0x1010 PUSH2 0x1750 JUMP JUMPDEST POP PUSH2 0x1019 PUSH2 0x1750 JUMP JUMPDEST POP PUSH1 0x1 PUSH1 0x1 PUSH1 0xA0 SHL SUB AND PUSH1 0x0 SWAP1 DUP2 MSTORE PUSH1 0x9 PUSH1 0x20 MSTORE PUSH1 0x40 SWAP1 KECCAK256 PUSH2 0x1039 PUSH2 0x1750 JUMP JUMPDEST POP PUSH2 0x1E4C JUMP JUMPDEST POP PUSH1 0x40 MLOAD SWAP1 PUSH2 0x104D DUP3 PUSH2 0x1159 JUMP JUMPDEST SLOAD PUSH6 0xFFFFFFFFFFFF DUP2 AND DUP1 DUP4 MSTORE PUSH1 0x30 SWAP2 SWAP1 SWAP2 SHR PUSH1 0x20 SWAP3 DUP4 ADD SWAP1 DUP2 MSTORE PUSH1 0x40 DUP1 MLOAD SWAP3 DUP4 MSTORE SWAP1 MLOAD PUSH1 0x1 PUSH1 0x1 PUSH1 0xD0 SHL SUB AND SWAP3 DUP3 ADD SWAP3 SWAP1 SWAP3 MSTORE SWAP2 DUP3 SWAP2 DUP3 ADD SWAP1 JUMP JUMPDEST CALLVALUE PUSH2 0x335 JUMPI PUSH1 0x20 CALLDATASIZE PUSH1 0x3 NOT ADD SLT PUSH2 0x335 JUMPI PUSH2 0x10A2 PUSH2 0x33A JUMP JUMPDEST PUSH2 0x10AA PUSH2 0x1117 JUMP JUMPDEST PUSH1 0x1 PUSH1 0x1 PUSH1 0xA0 SHL SUB SWAP1 DUP2 AND SWAP1 DUP2 ISZERO PUSH2 0x10FE JUMPI PUSH1 0xB SLOAD DUP3 PUSH12 0xFFFFFFFFFFFFFFFFFFFFFFFF PUSH1 0xA0 SHL DUP3 AND OR PUSH1 0xB SSTORE AND PUSH32 0x8BE0079C531659141344CD1FD0A4F28419497F9722A3DAAFE3B4186F6B6457E0 PUSH1 0x0 DUP1 LOG3 STOP JUMPDEST PUSH1 0x40 MLOAD PUSH4 0x1E4FBDF7 PUSH1 0xE0 SHL DUP2 MSTORE PUSH1 0x0 PUSH1 0x4 DUP3 ADD MSTORE PUSH1 0x24 SWAP1 REVERT JUMPDEST PUSH1 0xB SLOAD PUSH1 0x1 PUSH1 0x1 PUSH1 0xA0 SHL SUB AND CALLER SUB PUSH2 0x112B JUMPI JUMP JUMPDEST PUSH1 0x40 MLOAD PUSH4 0x118CDAA7 PUSH1 0xE0 SHL DUP2 MSTORE CALLER PUSH1 0x4 DUP3 ADD MSTORE PUSH1 0x24 SWAP1 REVERT JUMPDEST PUSH4 0x4E487B71 PUSH1 0xE0 SHL PUSH1 0x0 MSTORE PUSH1 0x41 PUSH1 0x4 MSTORE PUSH1 0x24 PUSH1 0x0 REVERT JUMPDEST PUSH1 0x40 DUP2 ADD SWAP1 DUP2 LT PUSH8 0xFFFFFFFFFFFFFFFF DUP3 GT OR PUSH2 0x1175 JUMPI PUSH1 0x40 MSTORE JUMP JUMPDEST PUSH2 0x1143 JUMP JUMPDEST PUSH1 0x20 DUP2 ADD SWAP1 DUP2 LT PUSH8 0xFFFFFFFFFFFFFFFF DUP3 GT OR PUSH2 0x1175 JUMPI PUSH1 0x40 MSTORE JUMP JUMPDEST PUSH1 0xA0 DUP2 ADD SWAP1 DUP2 LT PUSH8 0xFFFFFFFFFFFFFFFF DUP3 GT OR PUSH2 0x1175 JUMPI PUSH1 0x40 MSTORE JUMP JUMPDEST PUSH1 0xC0 DUP2 ADD SWAP1 DUP2 LT PUSH8 0xFFFFFFFFFFFFFFFF DUP3 GT OR PUSH2 0x1175 JUMPI PUSH1 0x40 MSTORE JUMP JUMPDEST SWAP1 PUSH1 0x1F DUP1 NOT SWAP2 ADD AND DUP2 ADD SWAP1 DUP2 LT PUSH8 0xFFFFFFFFFFFFFFFF DUP3 GT OR PUSH2 0x1175 JUMPI PUSH1 0x40 MSTORE JUMP JUMPDEST PUSH1 0x40 MLOAD SWAP1 PUSH2 0x11FD DUP3 PUSH2 0x1159 JUMP JUMPDEST JUMP JUMPDEST PUSH6 0xFFFFFFFFFFFF PUSH2 0x120F NUMBER PUSH2 0x1C3A JUMP JUMPDEST AND DUP1 DUP3 LT ISZERO PUSH2 0x1222 JUMPI POP PUSH2 0x24D SWAP1 PUSH2 0x1C3A JUMP JUMPDEST PUSH1 0x44 SWAP3 POP PUSH1 0x40 MLOAD SWAP2 PUSH4 0x7669FC0F PUSH1 0xE1 SHL DUP4 MSTORE PUSH1 0x4 DUP4 ADD MSTORE PUSH1 0x24 DUP3 ADD MSTORE REVERT JUMPDEST PUSH1 0x1 PUSH1 0x1 PUSH1 0xA0 SHL SUB DUP2 DUP2 AND PUSH1 0x0 DUP2 DUP2 MSTORE PUSH1 0x8 PUSH1 0x20 MSTORE PUSH1 0x40 DUP2 KECCAK256 DUP1 SLOAD DUP7 DUP6 AND PUSH1 0x1 PUSH1 0x1 PUSH1 0xA0 SHL SUB NOT DUP3 AND DUP2 OR SWAP1 SWAP3 SSTORE PUSH2 0x11FD SWAP7 SWAP5 AND SWAP5 PUSH2 0x12BD SWAP4 SWAP1 SWAP3 DUP7 SWAP2 SWAP1 PUSH32 0x3134E8A2E6D97E929A7E54011EA5485D7D196DD5F0BA4D4EF95803E8E3FC257F SWAP1 DUP1 LOG4 PUSH1 0x1 PUSH1 0x1 PUSH1 0xA0 SHL SUB AND PUSH1 0x0 SWAP1 DUP2 MSTORE PUSH1 0x20 DUP2 SWAP1 MSTORE PUSH1 0x40 SWAP1 KECCAK256 SLOAD SWAP1 JUMP JUMPDEST SWAP2 JUMPDEST PUSH1 0x1 PUSH1 0x1 PUSH1 0xA0 SHL SUB DUP1 DUP4 AND SWAP4 SWAP3 SWAP2 SWAP1 DUP2 AND SWAP1 DUP2 DUP6 EQ ISZERO DUP1 PUSH2 0x13E4 JUMPI JUMPDEST PUSH2 0x12E7 JUMPI JUMPDEST POP POP POP POP POP JUMP JUMPDEST DUP2 PUSH2 0x135A JUMPI JUMPDEST POP POP DUP3 PUSH2 0x12FC JUMPI JUMPDEST DUP1 DUP1 PUSH2 0x12E0 JUMP JUMPDEST PUSH1 0x1 PUSH1 0x1 PUSH1 0xA0 SHL SUB AND PUSH1 0x0 SWAP1 DUP2 MSTORE PUSH1 0x9 PUSH1 0x20 MSTORE PUSH1 0x40 SWAP1 KECCAK256 PUSH1 0x0 DUP1 MLOAD PUSH1 0x20 PUSH2 0x2434 DUP4 CODECOPY DUP2 MLOAD SWAP2 MSTORE SWAP2 PUSH2 0x1337 SWAP2 PUSH2 0x1331 SWAP1 SWAP2 PUSH2 0x1C07 JUMP JUMPDEST SWAP1 PUSH2 0x1429 JUMP JUMPDEST PUSH1 0x40 DUP1 MLOAD PUSH1 0x1 PUSH1 0x1 PUSH1 0xD0 SHL SUB SWAP4 DUP5 AND DUP2 MSTORE SWAP2 SWAP1 SWAP3 AND PUSH1 0x20 DUP3 ADD MSTORE LOG2 CODESIZE DUP1 DUP1 PUSH2 0x12F5 JUMP JUMPDEST PUSH1 0x1 PUSH1 0x1 PUSH1 0xA0 SHL SUB AND PUSH1 0x0 SWAP1 DUP2 MSTORE PUSH1 0x9 PUSH1 0x20 MSTORE PUSH1 0x40 SWAP1 KECCAK256 PUSH2 0x137A DUP5 PUSH2 0x1C07 JUMP JUMPDEST PUSH2 0x1383 NUMBER PUSH2 0x1C3A JUMP JUMPDEST PUSH1 0x1 PUSH1 0x1 PUSH1 0xD0 SHL SUB SWAP2 DUP3 DUP1 PUSH2 0x1397 DUP7 PUSH2 0x1E1E JUMP JUMPDEST AND SWAP2 AND SWAP1 SUB SWAP3 DUP3 DUP5 GT PUSH2 0x5AA JUMPI PUSH1 0x0 DUP1 MLOAD PUSH1 0x20 PUSH2 0x2434 DUP4 CODECOPY DUP2 MLOAD SWAP2 MSTORE SWAP4 PUSH2 0x13DA SWAP3 PUSH2 0x13C1 SWAP3 PUSH2 0x201A JUMP JUMPDEST PUSH1 0x40 DUP1 MLOAD SWAP3 DUP6 AND DUP4 MSTORE SWAP4 AND PUSH1 0x20 DUP3 ADD MSTORE SWAP2 DUP3 SWAP2 SWAP1 DUP3 ADD SWAP1 JUMP JUMPDEST SUB SWAP1 LOG2 CODESIZE DUP1 PUSH2 0x12ED JUMP JUMPDEST POP DUP4 ISZERO ISZERO PUSH2 0x12DB JUMP JUMPDEST PUSH2 0x13F6 NUMBER PUSH2 0x1C3A JUMP JUMPDEST PUSH1 0x1 PUSH1 0x1 PUSH1 0xD0 SHL SUB SWAP1 PUSH9 0x56BC75E2D63100000 DUP3 PUSH2 0x1413 DUP6 PUSH2 0x1E1E JUMP JUMPDEST AND ADD SWAP2 DUP3 GT PUSH2 0x5AA JUMPI PUSH2 0x1425 SWAP3 PUSH2 0x201A JUMP JUMPDEST SWAP1 SWAP2 JUMP JUMPDEST SWAP1 PUSH2 0x1433 NUMBER PUSH2 0x1C3A JUMP JUMPDEST PUSH1 0x1 PUSH1 0x1 PUSH1 0xD0 SHL SUB SWAP2 DUP3 DUP1 PUSH2 0x1447 DUP7 PUSH2 0x1E1E JUMP JUMPDEST AND SWAP2 AND ADD SWAP2 DUP3 GT PUSH2 0x5AA JUMPI PUSH2 0x1425 SWAP3 PUSH2 0x201A JUMP JUMPDEST PUSH2 0x1464 NUMBER PUSH2 0x1C3A JUMP JUMPDEST PUSH1 0x1 PUSH1 0x1 PUSH1 0xD0 SHL SUB PUSH9 0x56BC75E2D63100000 DUP2 PUSH2 0x147F PUSH2 0x1DD4 JUMP JUMPDEST AND ADD SWAP1 DUP2 GT PUSH2 0x5AA JUMPI PUSH2 0x1425 SWAP2 PUSH2 0x1F31 JUMP JUMPDEST PUSH2 0x149A NUMBER PUSH2 0x1C3A JUMP JUMPDEST SWAP1 PUSH1 0x1 PUSH1 0x1 PUSH1 0xD0 SHL SUB SWAP1 DUP2 DUP1 PUSH2 0x14AE PUSH2 0x1DD4 JUMP JUMPDEST AND SWAP2 AND ADD SWAP1 DUP2 GT PUSH2 0x5AA JUMPI PUSH2 0x1425 SWAP2 PUSH2 0x1F31 JUMP JUMPDEST PUSH2 0x14CB NUMBER PUSH2 0x1C3A JUMP JUMPDEST PUSH1 0x1 PUSH1 0x1 PUSH1 0xD0 SHL SUB PUSH9 0x56BC75E2D630FFFFF NOT DUP2 PUSH2 0x147F PUSH2 0x1DD4 JUMP JUMPDEST PUSH2 0x14F0 NUMBER PUSH2 0x1C3A JUMP JUMPDEST SWAP1 PUSH1 0x1 PUSH1 0x1 PUSH1 0xD0 SHL SUB SWAP1 DUP2 DUP1 PUSH2 0x1504 PUSH2 0x1DD4 JUMP JUMPDEST AND SWAP2 AND SWAP1 SUB SWAP1 DUP2 GT PUSH2 0x1519 JUMPI PUSH2 0x1425 SWAP2 PUSH2 0x1F31 JUMP JUMPDEST PUSH4 0x4E487B71 PUSH1 0xE0 SHL PUSH1 0x0 MSTORE PUSH1 0x11 PUSH1 0x4 MSTORE PUSH1 0x24 PUSH1 0x0 REVERT JUMPDEST SWAP1 PUSH1 0x1 DUP3 DUP2 SHR SWAP3 AND DUP1 ISZERO PUSH2 0x155F JUMPI JUMPDEST PUSH1 0x20 DUP4 LT EQ PUSH2 0x1549 JUMPI JUMP JUMPDEST PUSH4 0x4E487B71 PUSH1 0xE0 SHL PUSH1 0x0 MSTORE PUSH1 0x22 PUSH1 0x4 MSTORE PUSH1 0x24 PUSH1 0x0 REVERT JUMPDEST SWAP2 PUSH1 0x7F AND SWAP2 PUSH2 0x153E JUMP JUMPDEST PUSH1 0x1 PUSH1 0x1 PUSH1 0xA0 SHL SUB DUP1 DUP3 AND SWAP5 SWAP4 SWAP3 SWAP2 SWAP1 DUP6 ISZERO PUSH2 0x1649 JUMPI DUP3 AND DUP1 ISZERO PUSH2 0xB81 JUMPI PUSH1 0x1 PUSH1 0x1 PUSH1 0xA0 SHL SUB DUP3 AND PUSH1 0x0 SWAP1 DUP2 MSTORE PUSH1 0x20 DUP2 SWAP1 MSTORE PUSH1 0x40 SWAP1 KECCAK256 SLOAD SWAP6 DUP5 DUP8 LT PUSH2 0x161A JUMPI DUP5 PUSH2 0x11FD SWAP7 SWAP8 SUB PUSH2 0x15CB DUP5 PUSH1 0x1 DUP1 PUSH1 0xA0 SHL SUB AND PUSH1 0x0 MSTORE PUSH1 0x0 PUSH1 0x20 MSTORE PUSH1 0x40 PUSH1 0x0 KECCAK256 SWAP1 JUMP JUMPDEST SSTORE PUSH1 0x1 PUSH1 0x1 PUSH1 0xA0 SHL SUB DUP5 AND PUSH1 0x0 SWAP1 DUP2 MSTORE PUSH1 0x20 DUP2 DUP2 MSTORE PUSH1 0x40 SWAP2 DUP3 SWAP1 KECCAK256 DUP1 SLOAD DUP9 ADD SWAP1 SSTORE SWAP1 MLOAD DUP7 DUP2 MSTORE PUSH32 0xDDF252AD1BE2C89B69C2B068FC378DAA952BA7F163C4A11628F55A4DF523B3EF SWAP2 SWAP1 LOG3 PUSH2 0x23A8 JUMP JUMPDEST PUSH1 0x40 MLOAD PUSH4 0x391434E3 PUSH1 0xE2 SHL DUP2 MSTORE PUSH1 0x1 PUSH1 0x1 PUSH1 0xA0 SHL SUB DUP5 AND PUSH1 0x4 DUP3 ADD MSTORE PUSH1 0x24 DUP2 ADD DUP9 SWAP1 MSTORE PUSH1 0x44 DUP2 ADD DUP7 SWAP1 MSTORE PUSH1 0x64 SWAP1 REVERT JUMPDEST PUSH1 0x40 MLOAD PUSH4 0x4B637E8F PUSH1 0xE1 SHL DUP2 MSTORE PUSH1 0x0 PUSH1 0x4 DUP3 ADD MSTORE PUSH1 0x24 SWAP1 REVERT JUMPDEST PUSH1 0x1 PUSH1 0x1 PUSH1 0xA0 SHL SUB DUP1 DUP3 AND SWAP3 SWAP2 SWAP1 DUP4 ISZERO PUSH2 0x16FD JUMPI DUP3 AND SWAP4 DUP5 ISZERO PUSH2 0x16E4 JUMPI DUP1 PUSH2 0x16DA PUSH32 0x8C5BE1E5EBEC7D5BD14F71427D1E84F3DD0314C0F7B2291E5B200AC8C7C3B925 SWAP5 PUSH2 0x16C3 PUSH1 0x20 SWAP6 PUSH1 0x1 DUP1 PUSH1 0xA0 SHL SUB AND PUSH1 0x0 MSTORE PUSH1 0x1 PUSH1 0x20 MSTORE PUSH1 0x40 PUSH1 0x0 KECCAK256 SWAP1 JUMP JUMPDEST SWAP1 PUSH1 0x1 DUP1 PUSH1 0xA0 SHL SUB AND PUSH1 0x0 MSTORE PUSH1 0x20 MSTORE PUSH1 0x40 PUSH1 0x0 KECCAK256 SWAP1 JUMP JUMPDEST SSTORE PUSH1 0x40 MLOAD SWAP1 DUP2 MSTORE LOG3 JUMP JUMPDEST PUSH1 0x40 MLOAD PUSH4 0x4A1406B1 PUSH1 0xE1 SHL DUP2 MSTORE PUSH1 0x0 PUSH1 0x4 DUP3 ADD MSTORE PUSH1 0x24 SWAP1 REVERT JUMPDEST PUSH1 0x40 MLOAD PUSH4 0xE602DF05 PUSH1 0xE0 SHL DUP2 MSTORE PUSH1 0x0 PUSH1 0x4 DUP3 ADD MSTORE PUSH1 0x24 SWAP1 REVERT JUMPDEST SWAP1 PUSH1 0x1 PUSH1 0x1 PUSH1 0xA0 SHL SUB DUP1 DUP4 AND ISZERO PUSH2 0x16FD JUMPI DUP2 AND ISZERO PUSH2 0x16E4 JUMPI PUSH2 0x16C3 PUSH2 0x174D SWAP3 PUSH1 0x1 DUP1 PUSH1 0xA0 SHL SUB AND PUSH1 0x0 MSTORE PUSH1 0x1 PUSH1 0x20 MSTORE PUSH1 0x40 PUSH1 0x0 KECCAK256 SWAP1 JUMP JUMPDEST SSTORE JUMP JUMPDEST PUSH1 0x40 MLOAD SWAP1 PUSH2 0x175D DUP3 PUSH2 0x1159 JUMP JUMPDEST PUSH1 0x0 PUSH1 0x20 DUP4 DUP3 DUP2 MSTORE ADD MSTORE JUMP JUMPDEST PUSH1 0x1 PUSH1 0x1 PUSH1 0xA0 SHL SUB DUP2 AND PUSH1 0x0 SWAP1 DUP2 MSTORE PUSH1 0x7 PUSH1 0x20 MSTORE PUSH1 0x40 SWAP1 KECCAK256 DUP1 SLOAD PUSH1 0x1 DUP2 ADD SWAP1 SWAP2 SSTORE SWAP1 SWAP2 DUP2 SWAP1 SUB PUSH2 0x1797 JUMPI POP POP JUMP JUMPDEST PUSH1 0x40 MLOAD PUSH4 0x1D4B623 PUSH1 0xE6 SHL DUP2 MSTORE PUSH1 0x1 PUSH1 0x1 PUSH1 0xA0 SHL SUB SWAP1 SWAP3 AND PUSH1 0x4 DUP4 ADD MSTORE PUSH1 0x24 DUP3 ADD MSTORE PUSH1 0x44 SWAP2 POP REVERT JUMPDEST SWAP2 PUSH2 0x24D SWAP4 SWAP2 PUSH2 0x17CE SWAP4 PUSH2 0x17D7 JUMP JUMPDEST SWAP1 SWAP3 SWAP2 SWAP3 PUSH2 0x1887 JUMP JUMPDEST SWAP2 SWAP1 PUSH32 0x7FFFFFFFFFFFFFFFFFFFFFFFFFFFFFFF5D576E7357A4501DDFE92F46681B20A0 DUP5 GT PUSH2 0x185B JUMPI SWAP3 PUSH1 0x20 SWAP3 SWAP2 PUSH1 0xFF PUSH1 0x80 SWAP6 PUSH1 0x40 MLOAD SWAP5 DUP6 MSTORE AND DUP5 DUP5 ADD MSTORE PUSH1 0x40 DUP4 ADD MSTORE PUSH1 0x60 DUP3 ADD MSTORE PUSH1 0x0 SWAP3 DUP4 SWAP2 DUP3 DUP1 MSTORE PUSH1 0x1 GAS STATICCALL ISZERO PUSH2 0x184F JUMPI DUP1 MLOAD PUSH1 0x1 PUSH1 0x1 PUSH1 0xA0 SHL SUB DUP2 AND ISZERO PUSH2 0x1846 JUMPI SWAP2 DUP2 SWAP1 JUMP JUMPDEST POP DUP1 SWAP2 PUSH1 0x1 SWAP2 SWAP1 JUMP JUMPDEST PUSH1 0x40 MLOAD SWAP1 RETURNDATASIZE SWAP1 DUP3 RETURNDATACOPY RETURNDATASIZE SWAP1 REVERT JUMPDEST POP POP POP PUSH1 0x0 SWAP2 PUSH1 0x3 SWAP2 SWAP1 JUMP JUMPDEST PUSH1 0x4 GT ISZERO PUSH2 0x1871 JUMPI JUMP JUMPDEST PUSH4 0x4E487B71 PUSH1 0xE0 SHL PUSH1 0x0 MSTORE PUSH1 0x21 PUSH1 0x4 MSTORE PUSH1 0x24 PUSH1 0x0 REVERT JUMPDEST PUSH2 0x1890 DUP2 PUSH2 0x1867 JUMP JUMPDEST DUP1 PUSH2 0x1899 JUMPI POP POP JUMP JUMPDEST PUSH2 0x18A2 DUP2 PUSH2 0x1867 JUMP JUMPDEST PUSH1 0x1 DUP2 SUB PUSH2 0x18BC JUMPI PUSH1 0x40 MLOAD PUSH4 0xF645EEDF PUSH1 0xE0 SHL DUP2 MSTORE PUSH1 0x4 SWAP1 REVERT JUMPDEST PUSH2 0x18C5 DUP2 PUSH2 0x1867 JUMP JUMPDEST PUSH1 0x2 DUP2 SUB PUSH2 0x18E6 JUMPI PUSH1 0x40 MLOAD PUSH4 0xFCE698F7 PUSH1 0xE0 SHL DUP2 MSTORE PUSH1 0x4 DUP2 ADD DUP4 SWAP1 MSTORE PUSH1 0x24 SWAP1 REVERT JUMPDEST DUP1 PUSH2 0x18F2 PUSH1 0x3 SWAP3 PUSH2 0x1867 JUMP JUMPDEST EQ PUSH2 0x18FA JUMPI POP JUMP JUMPDEST PUSH1 0x40 MLOAD PUSH4 0x35E2F383 PUSH1 0xE2 SHL DUP2 MSTORE PUSH1 0x4 DUP2 ADD SWAP2 SWAP1 SWAP2 MSTORE PUSH1 0x24 SWAP1 REVERT JUMPDEST ADDRESS PUSH32 0x0 PUSH1 0x1 PUSH1 0x1 PUSH1 0xA0 SHL SUB AND EQ DUP1 PUSH2 0x1A05 JUMPI JUMPDEST ISZERO PUSH2 0x196F JUMPI PUSH32 0x0 SWAP1 JUMP JUMPDEST PUSH1 0x40 MLOAD PUSH1 0x20 DUP2 ADD SWAP1 PUSH32 0x8B73C3C69BB8FE3D512ECC4CF759CC79239F7B179B0FFACAA9A75D522B39400F DUP3 MSTORE PUSH32 0x0 PUSH1 0x40 DUP3 ADD MSTORE PUSH32 0x0 PUSH1 0x60 DUP3 ADD MSTORE CHAINID PUSH1 0x80 DUP3 ADD MSTORE ADDRESS PUSH1 0xA0 DUP3 ADD MSTORE PUSH1 0xA0 DUP2 MSTORE PUSH2 0x19FF DUP2 PUSH2 0x11B2 JUMP JUMPDEST MLOAD SWAP1 KECCAK256 SWAP1 JUMP JUMPDEST POP PUSH32 0x0 CHAINID EQ PUSH2 0x1946 JUMP JUMPDEST PUSH1 0x42 SWAP1 PUSH2 0x1A39 PUSH2 0x1914 JUMP JUMPDEST SWAP1 PUSH1 0x40 MLOAD SWAP2 PUSH2 0x1901 PUSH1 0xF0 SHL DUP4 MSTORE PUSH1 0x2 DUP4 ADD MSTORE PUSH1 0x22 DUP3 ADD MSTORE KECCAK256 SWAP1 JUMP JUMPDEST PUSH1 0xFF DUP2 EQ PUSH2 0x1A92 JUMPI PUSH1 0xFF DUP2 AND SWAP1 PUSH1 0x1F DUP3 GT PUSH2 0x1A80 JUMPI PUSH1 0x40 MLOAD SWAP2 PUSH2 0x1A76 DUP4 PUSH2 0x1159 JUMP JUMPDEST DUP3 MSTORE PUSH1 0x20 DUP3 ADD MSTORE SWAP1 JUMP JUMPDEST PUSH1 0x40 MLOAD PUSH4 0x2CD44AC3 PUSH1 0xE2 SHL DUP2 MSTORE PUSH1 0x4 SWAP1 REVERT JUMPDEST POP PUSH1 0x40 MLOAD PUSH1 0x5 SLOAD DUP2 PUSH1 0x0 PUSH2 0x1AA5 DUP4 PUSH2 0x152F JUMP JUMPDEST DUP1 DUP4 MSTORE SWAP3 PUSH1 0x1 SWAP1 DUP2 DUP2 AND SWAP1 DUP2 ISZERO PUSH2 0x1B2B JUMPI POP PUSH1 0x1 EQ PUSH2 0x1ACC JUMPI JUMPDEST POP PUSH2 0x24D SWAP3 POP SUB DUP3 PUSH2 0x11CE JUMP JUMPDEST PUSH1 0x5 PUSH1 0x0 SWAP1 DUP2 MSTORE SWAP2 POP PUSH32 0x36B6384B5ECA791C62761152D0C79BB0604C104A5FB6F4EB0703F3154BB3DB0 JUMPDEST DUP5 DUP4 LT PUSH2 0x1B10 JUMPI POP PUSH2 0x24D SWAP4 POP POP DUP2 ADD PUSH1 0x20 ADD CODESIZE PUSH2 0x1ABF JUMP JUMPDEST DUP2 SWAP4 POP SWAP1 DUP2 PUSH1 0x20 SWAP3 SLOAD DUP4 DUP6 DUP10 ADD ADD MSTORE ADD SWAP2 ADD SWAP1 SWAP2 DUP5 SWAP3 PUSH2 0x1AF7 JUMP JUMPDEST SWAP1 POP PUSH1 0x20 SWAP3 POP PUSH2 0x24D SWAP5 SWAP2 POP PUSH1 0xFF NOT AND DUP3 DUP5 ADD MSTORE ISZERO ISZERO PUSH1 0x5 SHL DUP3 ADD ADD CODESIZE PUSH2 0x1ABF JUMP JUMPDEST PUSH1 0xFF DUP2 EQ PUSH2 0x1B6F JUMPI PUSH1 0xFF DUP2 AND SWAP1 PUSH1 0x1F DUP3 GT PUSH2 0x1A80 JUMPI PUSH1 0x40 MLOAD SWAP2 PUSH2 0x1A76 DUP4 PUSH2 0x1159 JUMP JUMPDEST POP PUSH1 0x40 MLOAD PUSH1 0x6 SLOAD DUP2 PUSH1 0x0 PUSH2 0x1B82 DUP4 PUSH2 0x152F JUMP JUMPDEST DUP1 DUP4 MSTORE SWAP3 PUSH1 0x1 SWAP1 DUP2 DUP2 AND SWAP1 DUP2 ISZERO PUSH2 0x1B2B JUMPI POP PUSH1 0x1 EQ PUSH2 0x1BA8 JUMPI POP PUSH2 0x24D SWAP3 POP SUB DUP3 PUSH2 0x11CE JUMP JUMPDEST PUSH1 0x6 PUSH1 0x0 SWAP1 DUP2 MSTORE SWAP2 POP PUSH32 0xF652222313E28459528D920B65115C16C04F3EFC82AAEDC97BE59F3F377C0D3F JUMPDEST DUP5 DUP4 LT PUSH2 0x1BEC JUMPI POP PUSH2 0x24D SWAP4 POP POP DUP2 ADD PUSH1 0x20 ADD CODESIZE PUSH2 0x1ABF JUMP JUMPDEST DUP2 SWAP4 POP SWAP1 DUP2 PUSH1 0x20 SWAP3 SLOAD DUP4 DUP6 DUP10 ADD ADD MSTORE ADD SWAP2 ADD SWAP1 SWAP2 DUP5 SWAP3 PUSH2 0x1BD3 JUMP JUMPDEST PUSH1 0x1 PUSH1 0x1 PUSH1 0xD0 SHL SUB SWAP1 DUP2 DUP2 GT PUSH2 0x1C1B JUMPI AND SWAP1 JUMP JUMPDEST PUSH1 0x44 SWAP1 PUSH1 0x40 MLOAD SWAP1 PUSH4 0x6DFCC65 PUSH1 0xE4 SHL DUP3 MSTORE PUSH1 0xD0 PUSH1 0x4 DUP4 ADD MSTORE PUSH1 0x24 DUP3 ADD MSTORE REVERT JUMPDEST PUSH6 0xFFFFFFFFFFFF SWAP1 DUP2 DUP2 GT PUSH2 0x1C4D JUMPI AND SWAP1 JUMP JUMPDEST PUSH1 0x44 SWAP1 PUSH1 0x40 MLOAD SWAP1 PUSH4 0x6DFCC65 PUSH1 0xE4 SHL DUP3 MSTORE PUSH1 0x30 PUSH1 0x4 DUP4 ADD MSTORE PUSH1 0x24 DUP3 ADD MSTORE REVERT JUMPDEST PUSH1 0x0 NOT DUP2 ADD SWAP2 SWAP1 DUP3 GT PUSH2 0x5AA JUMPI JUMP JUMPDEST SWAP1 PUSH1 0x1 DUP3 ADD DUP1 SWAP3 GT PUSH2 0x5AA JUMPI JUMP JUMPDEST DUP2 ISZERO PUSH2 0x1C93 JUMPI DIV SWAP1 JUMP JUMPDEST PUSH4 0x4E487B71 PUSH1 0xE0 SHL PUSH1 0x0 MSTORE PUSH1 0x12 PUSH1 0x4 MSTORE PUSH1 0x24 PUSH1 0x0 REVERT JUMPDEST PUSH1 0x1 DUP2 GT ISZERO PUSH2 0x24D JUMPI PUSH1 0x1 DUP2 PUSH1 0x1 PUSH1 0x80 SHL DUP2 LT ISZERO PUSH2 0x1DC2 JUMPI JUMPDEST PUSH2 0x1D6A PUSH2 0x1D60 PUSH2 0x1D56 PUSH2 0x1D4C PUSH2 0x1D42 PUSH2 0x1D38 PUSH2 0x1D76 SWAP8 PUSH1 0x4 DUP9 PUSH1 0x1 PUSH1 0x40 SHL PUSH2 0x1D71 SWAP11 LT ISZERO PUSH2 0x1DB5 JUMPI JUMPDEST PUSH5 0x100000000 DUP2 LT ISZERO PUSH2 0x1DA8 JUMPI JUMPDEST PUSH3 0x10000 DUP2 LT ISZERO PUSH2 0x1D9B JUMPI JUMPDEST PUSH2 0x100 DUP2 LT ISZERO PUSH2 0x1D8F JUMPI JUMPDEST PUSH1 0x10 DUP2 LT ISZERO PUSH2 0x1D83 JUMPI JUMPDEST LT ISZERO PUSH2 0x1D7B JUMPI JUMPDEST PUSH1 0x3 MUL PUSH1 0x1 SHR PUSH2 0x1D31 DUP2 DUP12 PUSH2 0x1C89 JUMP JUMPDEST ADD PUSH1 0x1 SHR SWAP1 JUMP JUMPDEST PUSH2 0x1D31 DUP2 DUP11 PUSH2 0x1C89 JUMP JUMPDEST PUSH2 0x1D31 DUP2 DUP10 PUSH2 0x1C89 JUMP JUMPDEST PUSH2 0x1D31 DUP2 DUP9 PUSH2 0x1C89 JUMP JUMPDEST PUSH2 0x1D31 DUP2 DUP8 PUSH2 0x1C89 JUMP JUMPDEST PUSH2 0x1D31 DUP2 DUP7 PUSH2 0x1C89 JUMP JUMPDEST DUP1 SWAP4 PUSH2 0x1C89 JUMP JUMPDEST DUP3 GT SWAP1 JUMP JUMPDEST SWAP1 SUB SWAP1 JUMP JUMPDEST PUSH1 0x1 SHL PUSH2 0x1D21 JUMP JUMPDEST DUP2 SHR SWAP2 PUSH1 0x2 SHL SWAP2 PUSH2 0x1D1A JUMP JUMPDEST PUSH1 0x8 SHR SWAP2 DUP2 SHL SWAP2 PUSH2 0x1D10 JUMP JUMPDEST PUSH1 0x10 SHR SWAP2 PUSH1 0x8 SHL SWAP2 PUSH2 0x1D05 JUMP JUMPDEST PUSH1 0x20 SHR SWAP2 PUSH1 0x10 SHL SWAP2 PUSH2 0x1CF9 JUMP JUMPDEST PUSH1 0x40 SHR SWAP2 PUSH1 0x20 SHL SWAP2 PUSH2 0x1CEB JUMP JUMPDEST POP PUSH1 0x1 PUSH1 0x40 SHL SWAP1 POP PUSH1 0x80 DUP3 SWAP1 SHR PUSH2 0x1CC2 JUMP JUMPDEST PUSH1 0xA SLOAD PUSH1 0x0 SWAP1 DUP1 PUSH2 0x1DE6 JUMPI POP POP PUSH1 0x0 SWAP1 JUMP JUMPDEST DUP1 PUSH1 0x0 NOT DUP2 ADD GT PUSH2 0x5AA JUMPI PUSH1 0xA PUSH32 0xC65A7BB8D6351C1CF70C95A316CC6A92839C986682D98BC35F958F4883F9D2A7 SWAP3 MSTORE ADD SLOAD PUSH1 0x30 SHR SWAP1 JUMP JUMPDEST DUP1 SLOAD PUSH1 0x0 SWAP2 DUP2 PUSH2 0x1E30 JUMPI POP POP POP PUSH1 0x0 SWAP1 JUMP JUMPDEST PUSH1 0x0 NOT SWAP3 DUP3 DUP5 DUP2 ADD GT PUSH2 0x5AA JUMPI PUSH1 0x20 SWAP2 DUP2 MSTORE KECCAK256 ADD ADD SLOAD PUSH1 0x30 SHR SWAP1 JUMP JUMPDEST DUP1 SLOAD DUP3 LT ISZERO PUSH2 0x1E64 JUMPI PUSH1 0x0 MSTORE PUSH1 0x20 PUSH1 0x0 KECCAK256 ADD SWAP1 PUSH1 0x0 SWAP1 JUMP JUMPDEST PUSH4 0x4E487B71 PUSH1 0xE0 SHL PUSH1 0x0 MSTORE PUSH1 0x32 PUSH1 0x4 MSTORE PUSH1 0x24 PUSH1 0x0 REVERT JUMPDEST PUSH1 0xA SLOAD SWAP1 PUSH1 0x1 PUSH1 0x40 SHL DUP3 LT ISZERO PUSH2 0x1175 JUMPI PUSH1 0x1 DUP3 ADD DUP1 PUSH1 0xA SSTORE DUP3 LT ISZERO PUSH2 0x1E64 JUMPI PUSH1 0xA PUSH1 0x0 MSTORE DUP1 MLOAD PUSH1 0x20 SWAP1 SWAP2 ADD MLOAD PUSH1 0x30 SHL PUSH6 0xFFFFFFFFFFFF NOT AND PUSH6 0xFFFFFFFFFFFF SWAP2 SWAP1 SWAP2 AND OR PUSH1 0x0 DUP1 MLOAD PUSH1 0x20 PUSH2 0x2414 DUP4 CODECOPY DUP2 MLOAD SWAP2 MSTORE SWAP1 SWAP2 ADD SSTORE JUMP JUMPDEST DUP1 SLOAD PUSH1 0x1 PUSH1 0x40 SHL DUP2 LT ISZERO PUSH2 0x1175 JUMPI PUSH2 0x1EF0 SWAP2 PUSH1 0x1 DUP3 ADD DUP2 SSTORE PUSH2 0x1E4C JUMP JUMPDEST PUSH2 0x1F1B JUMPI DUP2 MLOAD PUSH1 0x20 SWAP1 SWAP3 ADD MLOAD PUSH1 0x30 SHL PUSH6 0xFFFFFFFFFFFF NOT AND PUSH6 0xFFFFFFFFFFFF SWAP3 SWAP1 SWAP3 AND SWAP2 SWAP1 SWAP2 OR SWAP1 SSTORE JUMP JUMPDEST PUSH4 0x4E487B71 PUSH1 0xE0 SHL PUSH1 0x0 MSTORE PUSH1 0x0 PUSH1 0x4 MSTORE PUSH1 0x24 PUSH1 0x0 REVERT JUMPDEST PUSH1 0xA SLOAD SWAP2 SWAP3 SWAP2 DUP1 ISZERO PUSH2 0x1FF0 JUMPI PUSH2 0x1F49 PUSH2 0x1F61 SWAP2 PUSH2 0x1C6C JUMP JUMPDEST PUSH1 0xA PUSH1 0x0 MSTORE PUSH1 0x0 DUP1 MLOAD PUSH1 0x20 PUSH2 0x2414 DUP4 CODECOPY DUP2 MLOAD SWAP2 MSTORE ADD SWAP1 JUMP JUMPDEST SWAP1 DUP2 SLOAD SWAP2 PUSH6 0xFFFFFFFFFFFF SWAP1 DUP2 DUP5 AND SWAP2 DUP4 AND DUP1 DUP4 GT PUSH2 0x1FDE JUMPI DUP7 SWAP3 SUB PUSH2 0x1FA6 JUMPI PUSH2 0x1F9F SWAP3 POP SWAP1 PUSH6 0xFFFFFFFFFFFF DUP3 SLOAD SWAP2 DUP2 NOT SWAP1 PUSH1 0x30 SHL AND SWAP2 AND OR SWAP1 SSTORE JUMP JUMPDEST PUSH1 0x30 SHR SWAP2 SWAP1 JUMP JUMPDEST POP POP PUSH2 0x1FD9 SWAP1 PUSH2 0x1FC5 PUSH2 0x1FB7 PUSH2 0x11F0 JUMP JUMPDEST PUSH6 0xFFFFFFFFFFFF SWAP1 SWAP3 AND DUP3 MSTORE JUMP JUMPDEST PUSH1 0x1 PUSH1 0x1 PUSH1 0xD0 SHL SUB DUP6 AND PUSH1 0x20 DUP3 ADD MSTORE PUSH2 0x1E7A JUMP JUMPDEST PUSH2 0x1F9F JUMP JUMPDEST PUSH1 0x40 MLOAD PUSH4 0x2520601D PUSH1 0xE0 SHL DUP2 MSTORE PUSH1 0x4 SWAP1 REVERT JUMPDEST POP PUSH2 0x2014 SWAP1 PUSH2 0x2000 PUSH2 0x1FB7 PUSH2 0x11F0 JUMP JUMPDEST PUSH1 0x1 PUSH1 0x1 PUSH1 0xD0 SHL SUB DUP5 AND PUSH1 0x20 DUP3 ADD MSTORE PUSH2 0x1E7A JUMP JUMPDEST PUSH1 0x0 SWAP2 SWAP1 JUMP JUMPDEST DUP1 SLOAD SWAP3 SWAP4 SWAP3 DUP1 ISZERO PUSH2 0x20B1 JUMPI PUSH2 0x2031 PUSH2 0x203E SWAP2 PUSH2 0x1C6C JUMP JUMPDEST DUP3 PUSH1 0x0 MSTORE PUSH1 0x20 PUSH1 0x0 KECCAK256 ADD SWAP1 JUMP JUMPDEST SWAP2 DUP3 SLOAD SWAP3 PUSH6 0xFFFFFFFFFFFF SWAP2 DUP3 DUP6 AND SWAP3 DUP2 AND DUP1 DUP5 GT PUSH2 0x1FDE JUMPI DUP8 SWAP4 SUB PUSH2 0x207D JUMPI POP PUSH2 0x1F9F SWAP3 POP SWAP1 PUSH6 0xFFFFFFFFFFFF DUP3 SLOAD SWAP2 DUP2 NOT SWAP1 PUSH1 0x30 SHL AND SWAP2 AND OR SWAP1 SSTORE JUMP JUMPDEST SWAP2 POP POP PUSH2 0x1FD9 SWAP2 PUSH2 0x209D PUSH2 0x208F PUSH2 0x11F0 JUMP JUMPDEST PUSH6 0xFFFFFFFFFFFF SWAP1 SWAP4 AND DUP4 MSTORE JUMP JUMPDEST PUSH1 0x1 PUSH1 0x1 PUSH1 0xD0 SHL SUB DUP7 AND PUSH1 0x20 DUP4 ADD MSTORE PUSH2 0x1ED3 JUMP JUMPDEST POP SWAP1 PUSH2 0x2014 SWAP2 PUSH2 0x20C2 PUSH2 0x208F PUSH2 0x11F0 JUMP JUMPDEST PUSH1 0x1 PUSH1 0x1 PUSH1 0xD0 SHL SUB DUP6 AND PUSH1 0x20 DUP4 ADD MSTORE PUSH2 0x1ED3 JUMP JUMPDEST SWAP1 JUMPDEST DUP3 DUP2 LT PUSH2 0x20E4 JUMPI POP POP SWAP1 JUMP JUMPDEST SWAP1 SWAP2 DUP1 DUP3 AND SWAP1 DUP1 DUP4 XOR PUSH1 0x1 SHR DUP3 ADD DUP1 SWAP3 GT PUSH2 0x5AA JUMPI PUSH1 0xA PUSH1 0x0 MSTORE PUSH6 0xFFFFFFFFFFFF DUP1 DUP4 PUSH1 0x0 DUP1 MLOAD PUSH1 0x20 PUSH2 0x2414 DUP4 CODECOPY DUP2 MLOAD SWAP2 MSTORE ADD SLOAD AND SWAP1 DUP6 AND LT PUSH1 0x0 EQ PUSH2 0x212D JUMPI POP SWAP2 JUMPDEST SWAP1 PUSH2 0x20D8 JUMP JUMPDEST SWAP3 SWAP2 POP PUSH2 0x2139 SWAP1 PUSH2 0x1C7B JUMP JUMPDEST SWAP1 PUSH2 0x2127 JUMP JUMPDEST SWAP2 SWAP1 JUMPDEST DUP4 DUP3 LT PUSH2 0x214F JUMPI POP POP POP SWAP1 JUMP JUMPDEST SWAP1 SWAP2 SWAP3 DUP1 DUP4 AND SWAP1 DUP1 DUP5 XOR PUSH1 0x1 SHR DUP3 ADD DUP1 SWAP3 GT PUSH2 0x5AA JUMPI PUSH1 0x0 DUP6 DUP2 MSTORE PUSH1 0x20 SWAP1 KECCAK256 DUP3 ADD SLOAD PUSH6 0xFFFFFFFFFFFF SWAP1 DUP2 AND SWAP1 DUP5 AND LT ISZERO PUSH2 0x218E JUMPI POP SWAP3 JUMPDEST SWAP2 SWAP1 PUSH2 0x2142 JUMP JUMPDEST SWAP4 SWAP3 POP PUSH2 0x219A SWAP1 PUSH2 0x1C7B JUMP JUMPDEST SWAP2 PUSH2 0x2187 JUMP JUMPDEST ISZERO PUSH2 0x21A7 JUMPI JUMP JUMPDEST PUSH1 0x40 MLOAD PUSH3 0x461BCD PUSH1 0xE5 SHL DUP2 MSTORE PUSH1 0x20 PUSH1 0x4 DUP3 ADD MSTORE PUSH1 0x13 PUSH1 0x24 DUP3 ADD MSTORE PUSH19 0x13585E081CDD5C1C1B1E48195E18D959591959 PUSH1 0x6A SHL PUSH1 0x44 DUP3 ADD MSTORE PUSH1 0x64 SWAP1 REVERT JUMPDEST PUSH2 0x21EA PUSH2 0x145B JUMP JUMPDEST POP POP PUSH1 0x1 PUSH1 0x1 PUSH1 0xA0 SHL SUB SWAP1 DUP2 AND SWAP1 DUP2 ISZERO PUSH2 0x231B JUMPI JUMPDEST PUSH1 0x8 PUSH1 0x20 MSTORE PUSH32 0x5EFF886EA0CE6CA488A3D6E336D6C0F75F46D19B42C06CE5EE98E42C96D256C7 SLOAD PUSH1 0x0 SWAP3 DUP4 MSTORE PUSH1 0x40 SWAP1 SWAP3 KECCAK256 SLOAD DUP2 AND SWAP2 AND DUP2 DUP2 EQ ISZERO DUP1 PUSH2 0x2313 JUMPI JUMPDEST PUSH2 0x2247 JUMPI POP POP JUMP JUMPDEST DUP1 PUSH2 0x22A4 JUMPI JUMPDEST POP DUP1 PUSH2 0x2256 JUMPI POP JUMP JUMPDEST PUSH1 0x1 PUSH1 0x1 PUSH1 0xA0 SHL SUB DUP2 AND PUSH1 0x0 SWAP1 DUP2 MSTORE PUSH1 0x9 PUSH1 0x20 MSTORE PUSH1 0x40 SWAP1 KECCAK256 PUSH1 0x0 DUP1 MLOAD PUSH1 0x20 PUSH2 0x2434 DUP4 CODECOPY DUP2 MLOAD SWAP2 MSTORE SWAP1 PUSH2 0x2287 SWAP1 PUSH2 0x13ED JUMP JUMPDEST PUSH1 0x40 DUP1 MLOAD PUSH1 0x1 PUSH1 0x1 PUSH1 0xD0 SHL SUB SWAP4 DUP5 AND DUP2 MSTORE SWAP2 SWAP1 SWAP3 AND PUSH1 0x20 DUP3 ADD MSTORE LOG2 JUMP JUMPDEST PUSH1 0x1 PUSH1 0x1 PUSH1 0xA0 SHL SUB DUP2 AND PUSH1 0x0 SWAP1 DUP2 MSTORE PUSH1 0x9 PUSH1 0x20 MSTORE PUSH1 0x40 SWAP1 KECCAK256 PUSH2 0x22C5 NUMBER PUSH2 0x1C3A JUMP JUMPDEST PUSH1 0x1 PUSH1 0x1 PUSH1 0xD0 SHL SUB SWAP1 PUSH9 0x56BC75E2D630FFFFF NOT DUP3 PUSH2 0x22E3 DUP6 PUSH2 0x1E1E JUMP JUMPDEST AND ADD SWAP3 DUP3 DUP5 GT PUSH2 0x5AA JUMPI PUSH1 0x0 DUP1 MLOAD PUSH1 0x20 PUSH2 0x2434 DUP4 CODECOPY DUP2 MLOAD SWAP2 MSTORE SWAP4 PUSH2 0x230A SWAP3 PUSH2 0x13C1 SWAP3 PUSH2 0x201A JUMP JUMPDEST SUB SWAP1 LOG2 CODESIZE PUSH2 0x224D JUMP JUMPDEST POP PUSH1 0x1 PUSH2 0x223F JUMP JUMPDEST PUSH2 0x2323 PUSH2 0x14C2 JUMP JUMPDEST POP POP PUSH2 0x21FF JUMP JUMPDEST SWAP1 PUSH2 0x11FD SWAP2 PUSH2 0x2340 PUSH2 0x233B DUP4 PUSH2 0x1C07 JUMP JUMPDEST PUSH2 0x1491 JUMP JUMPDEST POP POP PUSH1 0x1 PUSH1 0x1 PUSH1 0xA0 SHL SUB SWAP1 DUP2 AND SWAP1 DUP2 ISZERO PUSH2 0x2390 JUMPI JUMPDEST PUSH1 0x8 PUSH1 0x20 MSTORE PUSH32 0x5EFF886EA0CE6CA488A3D6E336D6C0F75F46D19B42C06CE5EE98E42C96D256C7 SLOAD PUSH1 0x0 SWAP3 DUP4 MSTORE PUSH1 0x40 SWAP1 SWAP3 KECCAK256 SLOAD DUP2 AND SWAP2 AND PUSH2 0x12BF JUMP JUMPDEST PUSH2 0x23A1 PUSH2 0x239C DUP5 PUSH2 0x1C07 JUMP JUMPDEST PUSH2 0x14E7 JUMP JUMPDEST POP POP PUSH2 0x2355 JUMP JUMPDEST PUSH2 0x11FD SWAP3 SWAP2 PUSH1 0x1 PUSH1 0x1 PUSH1 0xA0 SHL SUB SWAP2 DUP3 AND SWAP2 SWAP1 DUP2 SWAP1 DUP4 ISZERO PUSH2 0x2400 JUMPI JUMPDEST AND SWAP2 DUP3 ISZERO PUSH2 0x23ED JUMPI JUMPDEST PUSH1 0x0 MSTORE PUSH1 0x8 PUSH1 0x20 MSTORE DUP1 PUSH1 0x40 PUSH1 0x0 KECCAK256 SLOAD AND SWAP2 PUSH1 0x0 MSTORE PUSH1 0x40 PUSH1 0x0 KECCAK256 SLOAD AND SWAP1 PUSH2 0x12BF JUMP JUMPDEST PUSH2 0x23F9 PUSH2 0x239C DUP6 PUSH2 0x1C07 JUMP JUMPDEST POP POP PUSH2 0x23CC JUMP JUMPDEST PUSH2 0x240C PUSH2 0x233B DUP7 PUSH2 0x1C07 JUMP JUMPDEST POP POP PUSH2 0x23C3 JUMP INVALID 0xC6 GAS PUSH28 0xB8D6351C1CF70C95A316CC6A92839C986682D98BC35F958F4883F9D2 0xA8 0xDE 0xC2 0xBA 0xCD 0xD2 CREATE JUMPDEST MSIZE 0xDE CALLVALUE 0xDA SWAP12 MSTORE RETURNDATASIZE SELFDESTRUCT DUP12 0xE4 0x2E 0x5E CODESIZE 0xE8 XOR 0xC8 0x2F 0xDB SIGNEXTEND 0xAE PUSH24 0x4387A724A264697066735822122035A954F5B1B228E51873 0xCB PUSH13 0x5C2FD709243033553EDA2CB4A3 SWAP8 SWAP11 SWAP8 STOP SLT 0xD1 LOG0 PUSH5 0x736F6C6343 STOP ADDMOD EQ STOP CALLER 0xC6 GAS PUSH28 0xB8D6351C1CF70C95A316CC6A92839C986682D98BC35F958F4883F9D2 0xA8 0xDE 0xC2 0xBA 0xCD 0xD2 CREATE JUMPDEST MSIZE 0xDE CALLVALUE 0xDA SWAP12 MSTORE RETURNDATASIZE SELFDESTRUCT DUP12 0xE4 0x2E 0x5E CODESIZE 0xE8 XOR 0xC8 0x2F 0xDB SIGNEXTEND 0xAE PUSH24 0x4387A7240000000000000000000000000000000000000000 "},"methodIdentifiers":{"CLOCK_MODE()":"4bf5d7e9","DOMAIN_SEPARATOR()":"3644e515","INITIAL_MEMBER_GRANT()":"c5f3e4b2","MAX_SUPPLY()":"32cb6b0c","addMember(address)":"ca6d56dc","allowance(address,address)":"dd62ed3e","approve(address,uint256)":"095ea7b3","balanceOf(address)":"70a08231","checkpoints(address,uint32)":"f1127ed8","clock()":"91ddadf4","decimals()":"313ce567","delegate(address)":"5c19a95c","delegateBySig(address,uint256,uint256,uint8,bytes32,bytes32)":"c3cda520","delegates(address)":"587cde1e","eip712Domain()":"84b0196e","getPastTotalSupply(uint256)":"8e539e8c","getPastVotes(address,uint256)":"3a46b1a8","getVotes(address)":"9ab24eb0","mintReward(address,uint256)":"9a49090e","name()":"06fdde03","nonces(address)":"7ecebe00","numCheckpoints(address)":"6fcfff45","owner()":"8da5cb5b","permit(address,address,uint256,uint256,uint8,bytes32,bytes32)":"d505accf","renounceOwnership()":"715018a6","symbol()":"95d89b41","totalSupply()":"18160ddd","transfer(address,uint256)":"a9059cbb","transferFrom(address,address,uint256)":"23b872dd","transferOwnership(address)":"f2fde38b"}}}}}