{"contracts/MicroGrantDAO.sol":{"MicroGrantDAO":{"abi":[{"inputs":[{"internalType":"address","name":"_token","type":"address"},{"internalType":"address payable","name":"_treasury","type":"address"},{"internalType":"address","name":"admin","type":"address"}],"stateMutability":"nonpayable","type":"constructor"},{"inputs":[],"name":"AccessControlBadConfirmation","type":"error"},{"inputs":[{"internalType":"address","name":"account","type":"address"},{"internalType":"bytes32","name":"neededRole","type":"bytes32"}],"name":"AccessControlUnauthorizedAccount","type":"error"},{"inputs":[],"name":"EnforcedPause","type":"error"},{"inputs":[],"name":"ExpectedPause","type":"error"},{"inputs":[],"name":"ReentrancyGuardReentrantCall","type":"error"},{"anonymous":false,"inputs":[{"indexed":false,"internalType":"string","name":"param","type":"string"},{"indexed":false,"internalType":"uint256","name":"newValue","type":"uint256"}],"name":"ConfigUpdated","type":"event"},{"anonymous":false,"inputs":[{"indexed":false,"internalType":"address","name":"account","type":"address"}],"name":"Paused","type":"event"},{"anonymous":false,"inputs":[{"indexed":true,"internalType":"uint256","name":"id","type":"uint256"},{"indexed":false,"internalType":"uint256","name":"voteStart","type":"uint256"},{"indexed":false,"internalType":"uint256","name":"voteEnd","type":"uint256"}],"name":"ProposalActivated","type":"event"},{"anonymous":false,"inputs":[{"indexed":true,"internalType":"uint256","name":"id","type":"uint256"},{"indexed":false,"internalType":"address","name":"cancelledBy","type":"address"}],"name":"ProposalCancelled","type":"event"},{"anonymous":false,"inputs":[{"indexed":true,"internalType":"uint256","name":"id","type":"uint256"},{"indexed":true,"internalType":"address","name":"proposer","type":"address"},{"indexed":false,"internalType":"address","name":"recipient","type":"address"},{"indexed":false,"internalType":"uint256","name":"amount","type":"uint256"},{"indexed":false,"internalType":"string","name":"title","type":"string"},{"indexed":false,"internalType":"string","name":"category","type":"string"}],"name":"ProposalCreated","type":"event"},{"anonymous":false,"inputs":[{"indexed":true,"internalType":"uint256","name":"id","type":"uint256"},{"indexed":false,"internalType":"address","name":"recipient","type":"address"},{"indexed":false,"internalType":"uint256","name":"amount","type":"uint256"}],"name":"ProposalExecuted","type":"event"},{"anonymous":false,"inputs":[{"indexed":true,"internalType":"uint256","name":"id","type":"uint256"},{"indexed":false,"internalType":"enum MicroGrantDAO.ProposalStatus","name":"status","type":"uint8"}],"name":"ProposalFinalized","type":"event"},{"anonymous":false,"inputs":[{"indexed":true,"internalType":"uint256","name":"id","type":"uint256"},{"indexed":false,"internalType":"address","name":"curator","type":"address"},{"indexed":false,"internalType":"string","name":"reason","type":"string"}],"name":"ProposalFlagged","type":"event"},{"anonymous":false,"inputs":[{"indexed":true,"internalType":"bytes32","name":"role","type":"bytes32"},{"indexed":true,"internalType":"bytes32","name":"previousAdminRole","type":"bytes32"},{"indexed":true,"internalType":"bytes32","name":"newAdminRole","type":"bytes32"}],"name":"RoleAdminChanged","type":"event"},{"anonymous":false,"inputs":[{"indexed":true,"internalType":"bytes32","name":"role","type":"bytes32"},{"indexed":true,"internalType":"address","name":"account","type":"address"},{"indexed":true,"internalType":"address","name":"sender","type":"address"}],"name":"RoleGranted","type":"event"},{"anonymous":false,"inputs":[{"indexed":true,"internalType":"bytes32","name":"role","type":"bytes32"},{"indexed":true,"internalType":"address","name":"account","type":"address"},{"indexed":true,"internalType":"address","name":"sender","type":"address"}],"name":"RoleRevoked","type":"event"},{"anonymous":false,"inputs":[{"indexed":false,"internalType":"address","name":"account","type":"address"}],"name":"Unpaused","type":"event"},{"anonymous":false,"inputs":[{"indexed":true,"internalType":"uint256","name":"proposalId","type":"uint256"},{"indexed":true,"internalType":"address","name":"voter","type":"address"},{"indexed":false,"internalType":"enum MicroGrantDAO.VoteChoice","name":"choice","type":"uint8"},{"indexed":false,"internalType":"uint256","name":"weight","type":"uint256"}],"name":"VoteCast","type":"event"},{"inputs":[],"name":"ADMIN_ROLE","outputs":[{"internalType":"bytes32","name":"","type":"bytes32"}],"stateMutability":"view","type":"function"},{"inputs":[],"name":"CURATOR_ROLE","outputs":[{"internalType":"bytes32","name":"","type":"bytes32"}],"stateMutability":"view","type":"function"},{"inputs":[],"name":"DEFAULT_ADMIN_ROLE","outputs":[{"internalType":"bytes32","name":"","type":"bytes32"}],"stateMutability":"view","type":"function"},{"inputs":[{"internalType":"uint256","name":"proposalId","type":"uint256"}],"name":"activateVoting","outputs":[],"stateMutability":"nonpayable","type":"function"},{"inputs":[{"internalType":"uint256","name":"proposalId","type":"uint256"}],"name":"cancelProposal","outputs":[],"stateMutability":"nonpayable","type":"function"},{"inputs":[{"internalType":"uint256","name":"proposalId","type":"uint256"},{"internalType":"enum MicroGrantDAO.VoteChoice","name":"choice","type":"uint8"}],"name":"castVote","outputs":[],"stateMutability":"nonpayable","type":"function"},{"inputs":[{"internalType":"address payable","name":"recipient","type":"address"},{"internalType":"uint256","name":"amount","type":"uint256"},{"internalType":"string","name":"title","type":"string"},{"internalType":"string","name":"description","type":"string"},{"internalType":"string","name":"category","type":"string"},{"internalType":"string","name":"ipfsHash","type":"string"}],"name":"createProposal","outputs":[{"internalType":"uint256","name":"","type":"uint256"}],"stateMutability":"nonpayable","type":"function"},{"inputs":[{"internalType":"uint256","name":"proposalId","type":"uint256"}],"name":"executeProposal","outputs":[],"stateMutability":"nonpayable","type":"function"},{"inputs":[{"internalType":"uint256","name":"proposalId","type":"uint256"}],"name":"finalizeProposal","outputs":[],"stateMutability":"nonpayable","type":"function"},{"inputs":[{"internalType":"uint256","name":"proposalId","type":"uint256"},{"internalType":"string","name":"reason","type":"string"}],"name":"flagProposal","outputs":[],"stateMutability":"nonpayable","type":"function"},{"inputs":[{"internalType":"uint256","name":"proposalId","type":"uint256"}],"name":"getProposal","outputs":[{"components":[{"internalType":"uint256","name":"id","type":"uint256"},{"internalType":"address","name":"proposer","type":"address"},{"internalType":"address payable","name":"recipient","type":"address"},{"internalType":"uint256","name":"amount","type":"uint256"},{"internalType":"uint256","name":"createdAt","type":"uint256"},{"internalType":"uint256","name":"voteStart","type":"uint256"},{"internalType":"uint256","name":"voteEnd","type":"uint256"},{"internalType":"uint256","name":"executionTime","type":"uint256"},{"internalType":"uint256","name":"forVotes","type":"uint256"},{"internalType":"uint256","name":"againstVotes","type":"uint256"},{"internalType":"uint256","name":"abstainVotes","type":"uint256"},{"internalType":"enum MicroGrantDAO.ProposalStatus","name":"status","type":"uint8"},{"internalType":"bool","name":"flaggedByCurator","type":"bool"},{"components":[{"internalType":"string","name":"title","type":"string"},{"internalType":"string","name":"description","type":"string"},{"internalType":"string","name":"category","type":"string"},{"internalType":"string","name":"ipfsHash","type":"string"}],"internalType":"struct MicroGrantDAO.ProposalMeta","name":"meta","type":"tuple"}],"internalType":"struct MicroGrantDAO.Proposal","name":"","type":"tuple"}],"stateMutability":"view","type":"function"},{"inputs":[{"internalType":"uint256","name":"proposalId","type":"uint256"}],"name":"getProposalMeta","outputs":[{"components":[{"internalType":"string","name":"title","type":"string"},{"internalType":"string","name":"description","type":"string"},{"internalType":"string","name":"category","type":"string"},{"internalType":"string","name":"ipfsHash","type":"string"}],"internalType":"struct MicroGrantDAO.ProposalMeta","name":"","type":"tuple"}],"stateMutability":"view","type":"function"},{"inputs":[{"internalType":"address","name":"proposer","type":"address"}],"name":"getProposerHistory","outputs":[{"internalType":"uint256[]","name":"","type":"uint256[]"}],"stateMutability":"view","type":"function"},{"inputs":[{"internalType":"bytes32","name":"role","type":"bytes32"}],"name":"getRoleAdmin","outputs":[{"internalType":"bytes32","name":"","type":"bytes32"}],"stateMutability":"view","type":"function"},{"inputs":[{"internalType":"uint256","name":"proposalId","type":"uint256"}],"name":"getVoteStats","outputs":[{"internalType":"uint256","name":"forVotes","type":"uint256"},{"internalType":"uint256","name":"againstVotes","type":"uint256"},{"internalType":"uint256","name":"abstainVotes","type":"uint256"},{"internalType":"uint256","name":"totalVotes","type":"uint256"},{"internalType":"uint256","name":"quorumNeeded","type":"uint256"},{"internalType":"bool","name":"quorumReached","type":"bool"}],"stateMutability":"view","type":"function"},{"inputs":[{"internalType":"bytes32","name":"role","type":"bytes32"},{"internalType":"address","name":"account","type":"address"}],"name":"grantRole","outputs":[],"stateMutability":"nonpayable","type":"function"},{"inputs":[{"internalType":"bytes32","name":"role","type":"bytes32"},{"internalType":"address","name":"account","type":"address"}],"name":"hasRole","outputs":[{"internalType":"bool","name":"","type":"bool"}],"stateMutability":"view","type":"function"},{"inputs":[{"internalType":"uint256","name":"","type":"uint256"},{"internalType":"address","name":"","type":"address"}],"name":"hasVoted","outputs":[{"internalType":"bool","name":"","type":"bool"}],"stateMutability":"view","type":"function"},{"inputs":[],"name":"maxGrantAmount","outputs":[{"internalType":"uint256","name":"","type":"uint256"}],"stateMutability":"view","type":"function"},{"inputs":[],"name":"pause","outputs":[],"stateMutability":"nonpayable","type":"function"},{"inputs":[],"name":"paused","outputs":[{"internalType":"bool","name":"","type":"bool"}],"stateMutability":"view","type":"function"},{"inputs":[],"name":"proposalCount","outputs":[{"internalType":"uint256","name":"","type":"uint256"}],"stateMutability":"view","type":"function"},{"inputs":[],"name":"proposalThreshold","outputs":[{"internalType":"uint256","name":"","type":"uint256"}],"stateMutability":"view","type":"function"},{"inputs":[{"internalType":"uint256","name":"","type":"uint256"}],"name":"proposals","outputs":[{"internalType":"uint256","name":"id","type":"uint256"},{"internalType":"address","name":"proposer","type":"address"},{"internalType":"address payable","name":"recipient","type":"address"},{"internalType":"uint256","name":"amount","type":"uint256"},{"internalType":"uint256","name":"createdAt","type":"uint256"},{"internalType":"uint256","name":"voteStart","type":"uint256"},{"internalType":"uint256","name":"voteEnd","type":"uint256"},{"internalType":"uint256","name":"executionTime","type":"uint256"},{"internalType":"uint256","name":"forVotes","type":"uint256"},{"internalType":"uint256","name":"againstVotes","type":"uint256"},{"internalType":"uint256","name":"abstainVotes","type":"uint256"},{"internalType":"enum MicroGrantDAO.ProposalStatus","name":"status","type":"uint8"},{"internalType":"bool","name":"flaggedByCurator","type":"bool"},{"components":[{"internalType":"string","name":"title","type":"string"},{"internalType":"string","name":"description","type":"string"},{"internalType":"string","name":"category","type":"string"},{"internalType":"string","name":"ipfsHash","type":"string"}],"internalType":"struct MicroGrantDAO.ProposalMeta","name":"meta","type":"tuple"}],"stateMutability":"view","type":"function"},{"inputs":[{"internalType":"address","name":"","type":"address"},{"internalType":"uint256","name":"","type":"uint256"}],"name":"proposerHistory","outputs":[{"internalType":"uint256","name":"","type":"uint256"}],"stateMutability":"view","type":"function"},{"inputs":[],"name":"quorumPercentage","outputs":[{"internalType":"uint256","name":"","type":"uint256"}],"stateMutability":"view","type":"function"},{"inputs":[{"internalType":"bytes32","name":"role","type":"bytes32"},{"internalType":"address","name":"callerConfirmation","type":"address"}],"name":"renounceRole","outputs":[],"stateMutability":"nonpayable","type":"function"},{"inputs":[{"internalType":"bytes32","name":"role","type":"bytes32"},{"internalType":"address","name":"account","type":"address"}],"name":"revokeRole","outputs":[],"stateMutability":"nonpayable","type":"function"},{"inputs":[{"internalType":"uint256","name":"_max","type":"uint256"}],"name":"setMaxGrantAmount","outputs":[],"stateMutability":"nonpayable","type":"function"},{"inputs":[{"internalType":"uint256","name":"_threshold","type":"uint256"}],"name":"setProposalThreshold","outputs":[],"stateMutability":"nonpayable","type":"function"},{"inputs":[{"internalType":"uint256","name":"_quorum","type":"uint256"}],"name":"setQuorumPercentage","outputs":[],"stateMutability":"nonpayable","type":"function"},{"inputs":[{"internalType":"uint256","name":"_delay","type":"uint256"}],"name":"setTimelockDelay","outputs":[],"stateMutability":"nonpayable","type":"function"},{"inputs":[{"internalType":"uint256","name":"_delay","type":"uint256"}],"name":"setVotingDelay","outputs":[],"stateMutability":"nonpayable","type":"function"},{"inputs":[{"internalType":"uint256","name":"_period","type":"uint256"}],"name":"setVotingPeriod","outputs":[],"stateMutability":"nonpayable","type":"function"},{"inputs":[{"internalType":"bytes4","name":"interfaceId","type":"bytes4"}],"name":"supportsInterface","outputs":[{"internalType":"bool","name":"","type":"bool"}],"stateMutability":"view","type":"function"},{"inputs":[],"name":"timelockDelay","outputs":[{"internalType":"uint256","name":"","type":"uint256"}],"stateMutability":"view","type":"function"},{"inputs":[],"name":"token","outputs":[{"internalType":"contract GovernanceToken","name":"","type":"address"}],"stateMutability":"view","type":"function"},{"inputs":[],"name":"treasury","outputs":[{"internalType":"contract DAOTreasury","name":"","type":"address"}],"stateMutability":"view","type":"function"},{"inputs":[],"name":"unpause","outputs":[],"stateMutability":"nonpayable","type":"function"},{"inputs":[{"internalType":"uint256","name":"","type":"uint256"},{"internalType":"address","name":"","type":"address"}],"name":"voteRecord","outputs":[{"internalType":"enum MicroGrantDAO.VoteChoice","name":"","type":"uint8"}],"stateMutability":"view","type":"function"},{"inputs":[],"name":"votingDelay","outputs":[{"internalType":"uint256","name":"","type":"uint256"}],"stateMutability":"view","type":"function"},{"inputs":[],"name":"votingPeriod","outputs":[{"internalType":"uint256","name":"","type":"uint256"}],"stateMutability":"view","type":"function"}],"evm":{"bytecode":{"linkReferences":{},"object":"60c0346200012157601f62002d4538819003918201601f19168301916001600160401b03831184841017620001265780849260609460405283398101031262000121576200004d816200013c565b60208201516001600160a01b03808216918290036200012157620000786040620000d495016200013c565b926001805562015180600355620697806004556202a300600555678ac7230489e80000600655600a600755674563918244f400006008551660805260a052620000c18162000151565b50620000cd81620001d1565b5062000273565b50604051612a1490816200031182396080518181816102bc01528181610baa0152818161186501528181611b230152612243015260a051818181610347015281816117770152611fc20152f35b600080fd5b634e487b7160e01b600052604160045260246000fd5b51906001600160a01b03821682036200012157565b6001600160a01b031660008181527fad3228b676f7d3cd4284a5443f17f1962b36e491b30a40b2405849e597ba5fb5602052604081205490919060ff16620001cd57818052816020526040822081835260205260408220600160ff19825416179055339160008051602062002d258339815191528180a4600190565b5090565b6001600160a01b031660008181527f7d7ffb7a348e1c6a02869081a26547b49160dd3df72d1d75a570eb9b698292ec60205260408120549091907fa49807205ce4d355092ef5a8a18f56e8913cf4a201fbe287825b095693c217759060ff166200026e57808352826020526040832082845260205260408320600160ff1982541617905560008051602062002d25833981519152339380a4600190565b505090565b6001600160a01b031660008181527ff484c8d36633aa70eae8ee4883885db3af58778e0f4e89a6e23f032f4a70897160205260408120549091907f850d585eb7f024ccee5e68e55f2c26cc72e1e6ee456acf62135757a5eb9d4a109060ff166200026e57808352826020526040832082845260205260408320600160ff1982541617905560008051602062002d25833981519152339380a460019056fe608080604052600436101561001357600080fd5b600090813560e01c9081630117c9091461245657508063013cf08b1461236957806301ffc9a71461231257806302a251a3146122f457806304f53f6c146121e85780630d61b51914611f4f578063248a9ca314611f235780632f2ff15d14611ee657806332f6a1dc14611e6457806336568abe14611e1c5780633932abb114611dfe5780633f4ba83a14611d935780634385963214611d47578063484f370514611cf15780634a2cfb5414611cb65780634fa76ec914611c985780635652077c14611aa057806356781388146117c95780635c975abb146117a657806361d027b31461176157806370b0f660146116e157806375b238fc146116a65780638456cb591461164b5780638a6f5a591461160057806391d14854146115b5578063a217fddf14611599578063a9c2c7b81461157b578063af267f8f146114f9578063b58131b0146114db578063bc3dff6414611373578063c7f758a81461114b578063cb7384641461109d578063d547741f1461105c578063da35c6641461103e578063e0a8f6f514610ee0578063e6e1db3714610e40578063ea0217cf14610dbe578063ece40cc114610d5a578063eef09bad14610d3c578063f6ead0b914610bd9578063fc0c546a14610b945763fc988ef0146101ef57600080fd5b34610b915760c0366003190112610b91576004356001600160a01b0381168103610b8d576044356001600160401b038111610b8557610232903690600401612748565b9290916064356001600160401b038111610b8557610254903690600401612748565b9190936084356001600160401b038111610b8957610276903690600401612748565b94909360a4356001600160401b038111610b8557610298903690600401612748565b916102a161292e565b6040516370a0823160e01b81523360048201526020816024817f00000000000000000000000000000000000000000000000000000000000000006001600160a01b03165afa908115610a03578591610b53575b5060065411610b0e576001600160a01b03861615610ad557602435151580610ac7575b15610a915789151580610a86575b15610a4a576101f48111610a0e57604051629032ff60e51b81526020816004817f00000000000000000000000000000000000000000000000000000000000000006001600160a01b03165afa908115610a035785916109cc575b506024351161098757600954986000198a14610973579089939291600185016009556104226103b0600354426128ea565b6103bc600454826128ea565b6001978801808a52600a60205260408a2090815597880180546001600160a01b031990811633179091556002890180549091166001600160a01b038d161790556024356003890155426004890155600580890192909255600688018190559054906128ea565b6007860155600b8501805461ffff191690556001600160401b038c1161089f5761044f600c8601546124da565b601f811161092d575b508b86601f82116001146108be5787916108b3575b5060001960038e901b1c191660018d901b17600c8601555b6001600160401b03821161089f5781906104a2600d8701546124da565b601f811161084e575b508690601f83116001146107e25787926107d7575b50508160011b916000199060031b1c191617600d8401555b6001600160401b038811610709576104f3600e8401546124da565b601f8111610792575b508784601f821160011461072857859161071d575b508860011b906000198a60031b1c191617600e8401555b6001600160401b03821161070957610543600f8401546124da565b601f81116106c4575b508390601f831160011461065a57600f929185918361064f575b50508160011b916000199060031b1c1916179101555b338152600d602052604081208054916801000000000000000083101561063b5750610619602098936105d98461062d9460017fc44cce178a1d5c439255c60bd1a9a7c635573488a456474901aa645c5b448483999701815561271a565b81549060031b9060018c01821b91600019901b191617905560405194859460018060a01b031685526024358b86015260806040860152608085019161290d565b82810360608401523396600189019661290d565b0390a3600160405191018152f35b634e487b7160e01b81526041600452602490fd5b013590503880610566565b600f840185526020852091601f198416865b8181106106ac5750916001939185600f969410610692575b505050811b0191015561057c565b0135600019600384901b60f8161c19169055388080610684565b9193602060018192878701358155019501920161066c565b600f8401855260208520601f840160051c810160208510610702575b601f830160051c820181106106f657505061054c565b600081556001016106e0565b50806106e0565b634e487b7160e01b84526041600452602484fd5b905087013538610511565b600e85018652602086209150855b601f198b16811061077a575089601f19811610610760575b5050600188811b01600e840155610528565b88013560001960038b901b60f8161c19169055388061074e565b9091602060018192858d013581550193019101610736565b600e8401855260208520601f8a0160051c810160208b106107d0575b601f830160051c820181106107c45750506104fc565b600081556001016107ae565b50806107ae565b0135905038806104c0565b600d8701885260208820889450915b601f1984168510610836576001945083601f1981161061081c575b505050811b01600d8401556104d8565b0135600019600384901b60f8161c1916905538808061080c565b818101358355602094850194600190930192016107f1565b909150600d8601875260208720601f840160051c810160208510610898575b90849392915b601f830160051c820181106108895750506104ab565b60008155859450600101610873565b508061086d565b634e487b7160e01b86526041600452602486fd5b90508701353861046d565b600c87018852602088209150878e5b8a601f19821683106109135750601f1981161090506108f9575b505060018c811b01600c860155610485565b88013560001960038f901b60f8161c1916905538806108e7565b6001849560209394958493013581550194019201906108cd565b600c86018752602087208d6020601f820160051c8301911061096c575b601f830160051c82018110610960575050610458565b6000815560010161094a565b508061094a565b634e487b7160e01b85526011600452602485fd5b60405162461bcd60e51b815260206004820152601b60248201527f496e73756666696369656e742074726561737572792066756e647300000000006044820152606490fd5b90506020813d6020116109fb575b816109e760209383612561565b810103126109f657513861037f565b600080fd5b3d91506109da565b6040513d87823e3d90fd5b60405162461bcd60e51b81526020600482015260146024820152734465736372697074696f6e20746f6f206c6f6e6760601b6044820152606490fd5b60405162461bcd60e51b8152602060048201526014602482015273092dcecc2d8d2c840e8d2e8d8ca40d8cadccee8d60631b6044820152606490fd5b5060648a1115610325565b60405162461bcd60e51b815260206004820152600e60248201526d125b9d985b1a5908185b5bdd5b9d60921b6044820152606490fd5b506008546024351115610317565b60405162461bcd60e51b8152602060048201526011602482015270125b9d985b1a59081c9958da5c1a595b9d607a1b6044820152606490fd5b60405162461bcd60e51b815260206004820152601e60248201527f496e73756666696369656e7420746f6b656e7320746f2070726f706f736500006044820152606490fd5b90506020813d602011610b7d575b81610b6e60209383612561565b810103126109f65751386102f4565b3d9150610b61565b8280fd5b8480fd5b5080fd5b80fd5b5034610b915780600319360112610b91576040517f00000000000000000000000000000000000000000000000000000000000000006001600160a01b03168152602090f35b5034610b9157602080600319360112610b8d5760043590818352600a81526040832090600b82019182549260ff84166006811015610d2857610cf55760ff8460081c16610cb057600582015493844210610c6b5760ff191660011790556006015460408051938452918301527f4cd5ab692eca676b18fb15dbeb48f20b447b5b6949999d211fdc089aa41d3b5a91a280f35b60405162461bcd60e51b815260048101859052601860248201527f566f74696e672064656c6179206e6f7420656c617073656400000000000000006044820152606490fd5b60405162461bcd60e51b815260048101849052601b60248201527f50726f706f73616c20666c61676765642062792063757261746f7200000000006044820152606490fd5b60405162461bcd60e51b815260048101849052600b60248201526a4e6f742070656e64696e6760a81b6044820152606490fd5b634e487b7160e01b87526021600452602487fd5b5034610b915780600319360112610b91576020600554604051908152f35b5034610b91576020366003190112610b91576000805160206129bf8339815191526080600435610d88612775565b80600655604051906040825260116040830152701c1c9bdc1bdcd85b151a1c995cda1bdb19607a1b60608301526020820152a180f35b5034610b91576020366003190112610b91576000805160206129bf8339815191526080600435610dec612775565b6201518081101580610e33575b610e0290612983565b806004556040519060408252600c60408301526b1d9bdd1a5b99d4195c9a5bd960a21b60608301526020820152a180f35b5062278d00811115610df9565b5034610b91576020366003190112610b9157600435610e5d612775565b8015610ea8576080816000805160206129bf833981519152926008556040519060408252600e60408301526d1b585e11dc985b9d105b5bdd5b9d60921b60608301526020820152a180f35b60405162461bcd60e51b815260206004820152601060248201526f4d75737420626520706f73697469766560801b6044820152606490fd5b5034610b9157602080600319360112610b8d5760043590818352600a81526040832060018060a01b0360018201541633148015610fff575b15610fc957600b01805460ff81166006811015610fb5578015908115610faa575b5015610f755760ff191660051790556040513381527f74c34a008ce735d9fcf0bd03a9b238d212ad4c441c020661f4ffbb6442645b859190a280f35b60405162461bcd60e51b815260048101849052600d60248201526c10d85b9b9bdd0818d85b98d95b609a1b6044820152606490fd5b600191501438610f39565b634e487b7160e01b86526021600452602486fd5b60405162461bcd60e51b815260048101839052600e60248201526d139bdd08185d5d1a1bdc9a5e995960921b6044820152606490fd5b507f850d585eb7f024ccee5e68e55f2c26cc72e1e6ee456acf62135757a5eb9d4a1084528382526040842033600052825260ff60406000205416610f18565b5034610b915780600319360112610b91576020600954604051908152f35b5034610b91576040366003190112610b915761109960043561107c6124a1565b908084528360205261109460016040862001546127d1565b612875565b5080f35b5034610b9157602080600319360112610b8d576001600160a01b036110c06124b7565b168252600d81526040822060405192838383549182815201908193835284832090835b81811061113757505050846110f9910385612561565b60405193838594850191818652518092526040850193925b82811061112057505050500390f35b835185528695509381019392810192600101611111565b8254845292860192600192830192016110e3565b5034610b91576020366003190112610b915760405161116981612514565b8181528160208201528160408201528160608201528160808201528160a08201528160c08201528160e082015281610100820152816101208201528161014082015281610160820152816101808201526101a06111c461295f565b9101526004358152600a6020526040812090604051906111e382612514565b8254825260018301546001600160a01b03908116602084015260028401541660408301526003830154606083015260048301546080830152600583015460a083015260068084015460c0840152600784015460e084015260088401546101008401526009840154610120840152600a840154610140840152600b840154919060ff8316101561135f5750600c6101a09360ff8381611294951661016087015260081c16151561018085015201612628565b8282015261135b604051928392602084528051602085015260018060a01b03602082015116604085015260018060a01b03604082015116606085015260608101516080850152608081015160a085015260a081015160c085015260c081015160e085015260e081015161010085015261010081015161012085015261012081015161014085015261014081015161016085015261133b610160820151610180860190612676565b61018081015115158285015201516101c0808401526101e08301906126c3565b0390f35b634e487b7160e01b81526021600452602490fd5b5034610b91576040366003190112610b91576004356024356001600160401b038111610b85576113a7903690600401612748565b3360009081527ff484c8d36633aa70eae8ee4883885db3af58778e0f4e89a6e23f032f4a70897160205260409020549091907f850d585eb7f024ccee5e68e55f2c26cc72e1e6ee456acf62135757a5eb9d4a109060ff16156114bd5750828452600a602052600b60408520019182549260ff84166006811015610d2857611478576101007f7392ba7506a66b15fa69f0536822006f20bfaa1b6271e2a22b880a4211ddf4089461ff00191617905561147260405192839233845260406020850152604084019161290d565b0390a280f35b60405162461bcd60e51b815260206004820152601f60248201527f43616e206f6e6c7920666c61672070656e64696e672070726f706f73616c73006044820152606490fd5b6044906040519063e2517d3f60e01b82523360048301526024820152fd5b5034610b915780600319360112610b91576020600654604051908152f35b5034610b91576020366003190112610b91576000805160206129bf8339815191526080600435611527612775565b610e108110158061156e575b61153c90612983565b806005556040519060408252600d60408301526c74696d656c6f636b44656c617960981b60608301526020820152a180f35b5062127500811115611533565b5034610b915780600319360112610b91576020600854604051908152f35b5034610b915780600319360112610b9157602090604051908152f35b5034610b91576040366003190112610b915760406115d16124a1565b91600435815280602052209060018060a01b0316600052602052602060ff604060002054166040519015158152f35b5034610b91576020366003190112610b9157611637600c604061135b9361162561295f565b506004358152600a6020522001612628565b6040519182916020835260208301906126c3565b5034610b915780600319360112610b9157611664612775565b61166c61292e565b600160ff1960025416176002557f62e78cea01bee320cd4e420270b5ea74000d11b0c9f74754ebdbfc544b05a2586020604051338152a180f35b5034610b915780600319360112610b915760206040517fa49807205ce4d355092ef5a8a18f56e8913cf4a201fbe287825b095693c217758152f35b5034610b91576020366003190112610b91576000805160206129bf833981519152608060043561170f612775565b610e1081101580611754575b61172490612983565b806003556040519060408252600b60408301526a766f74696e6744656c617960a81b60608301526020820152a180f35b5062093a8081111561171b565b5034610b915780600319360112610b91576040517f00000000000000000000000000000000000000000000000000000000000000006001600160a01b03168152602090f35b5034610b915780600319360112610b9157602060ff600254166040519015158152f35b5034610b91576040366003190112610b91576004356024908135916003831015611a9c576117f561292e565b8184526020600a81526040852060ff600b820154166006811015611a8957600103611a5057600581015442101580611a42575b15611a0857838652600b82526040862033600052825260ff604060002054166119d5576040516370a0823160e01b815233600482015292828482817f00000000000000000000000000000000000000000000000000000000000000006001600160a01b03165afa9384156119ca57879461199b575b5083156119665750838652600b825260408620336000528252604060002060ff1990600182825416179055848752600c83526040872033600052835260406000209081541660ff87161790556001851460001461193e576008016119028382546128ea565b90555b61191260405180956124cd565b8301527fb83d25c6a5d258561330739951487acb4bd09ba5190b5d32c4f261817d90679260403393a380f35b84611958576009016119518382546128ea565b9055611905565b600a016119518382546128ea565b82600f6064926040519262461bcd60e51b845260048401528201526e2737903b37ba34b733903837bbb2b960891b6044820152fd5b9093508281813d83116119c3575b6119b38183612561565b810103126109f65751923861189d565b503d6119a9565b6040513d89823e3d90fd5b50600d6064926040519262461bcd60e51b845260048401528201526c105b1c9958591e481d9bdd1959609a1b6044820152fd5b5060146064926040519262461bcd60e51b84526004840152820152734e6f7420696e20766f74696e672077696e646f7760601b6044820152fd5b506006810154421115611828565b5060136064926040519262461bcd60e51b845260048401528201527250726f706f73616c206e6f742061637469766560681b6044820152fd5b634e487b7160e01b875260216004528387fd5b8380fd5b5034610b9157602080600319360112610b8d5760043590818352600a81526040832090600b82019182549060ff82166006811015610d2857600103611c66576006810154421115611c2a57600881015490611b0f600982015491600a611b0684866128ea565b910154906128ea565b6040516318160ddd60e01b815285816004817f00000000000000000000000000000000000000000000000000000000000000006001600160a01b03165afa908115611c1f578991611bf0575b50611b6b6064916007549061294c565b0411159182611be6575b505015611bde576002925b6006841015611bc85760ff7f34a42c4ce0a88d16ad098de6406057747139a2a3dd8dd8616ee7bbabcecb768e9416809260ff1916179055611bc46040518092612676565ba280f35b634e487b7160e01b600052602160045260246000fd5b600392611b80565b1190503880611b75565b90508581813d8311611c18575b611c078183612561565b810103126109f65751611b6b611b5b565b503d611bfd565b6040513d8b823e3d90fd5b60405162461bcd60e51b8152600481018490526014602482015273566f74696e67207374696c6c206f6e676f696e6760601b6044820152606490fd5b60405162461bcd60e51b815260048101849052600a6024820152694e6f742061637469766560b01b6044820152606490fd5b5034610b915780600319360112610b91576020600754604051908152f35b5034610b915780600319360112610b915760206040517f850d585eb7f024ccee5e68e55f2c26cc72e1e6ee456acf62135757a5eb9d4a108152f35b5034610b91576040366003190112610b9157611d0b6124b7565b6001600160a01b03168152600d6020526040812080546024359290831015610b91576020611d39848461271a565b90546040519160031b1c8152f35b5034610b91576040366003190112610b91576040611d636124a1565b916004358152600b602052209060018060a01b0316600052602052602060ff604060002054166040519015158152f35b5034610b915780600319360112610b9157611dac612775565b60025460ff811615611dec5760ff19166002557f5db9ee0a495bf2e6ff9c91a7834c1ba4fdd244a5e8aa4e537bd38aeae4b073aa6020604051338152a180f35b604051638dfc202b60e01b8152600490fd5b5034610b915780600319360112610b91576020600354604051908152f35b5034610b91576040366003190112610b9157611e366124a1565b336001600160a01b03821603611e525761109990600435612875565b60405163334bd91960e11b8152600490fd5b5034610b91576020366003190112610b91576000805160206129bf8339815191526080600435611e92612775565b600181101580611edb575b611ea690612983565b806007556040519060408252601060408301526f71756f72756d50657263656e7461676560801b60608301526020820152a180f35b506032811115611e9d565b5034610b91576040366003190112610b9157611099600435611f066124a1565b9080845283602052611f1e60016040862001546127d1565b6127f7565b5034610b91576020366003190112610b9157600160406020926004358152808452200154604051908152f35b5034610b9157602080600319360112610b8d57600435906002600154146121d6576002600155611f7d61292e565b818352600a81526040832090600b820180549260ff84166006811015610d285760020361219b576007810154421061215f57600381019384549160018060a01b0393847f00000000000000000000000000000000000000000000000000000000000000001692604051629032ff60e51b81528781600481885afa908115612154578b91612123575b5085116120e65760ff191660041790556002018054909288918516833b15610b85576064908360405195869485936336a08df160e21b8552600485015260248401528b60448401525af180156119ca57612097575b50917f3b7c90df35b419337cff0919fe91849006607bb66c4373623f06f9d48c1ebb98939160409354169154908351928352820152a26001805580f35b6001600160401b0381979297116120d257604052947f3b7c90df35b419337cff0919fe91849006607bb66c4373623f06f9d48c1ebb9861205a565b634e487b7160e01b82526041600452602482fd5b60405162461bcd60e51b8152600481018890526015602482015274151c99585cdd5c9e481a5b9cdd59999a58da595b9d605a1b6044820152606490fd5b90508781813d831161214d575b61213a8183612561565b81010312612149575138612005565b8a80fd5b503d612130565b6040513d8d823e3d90fd5b60405162461bcd60e51b8152600481018490526014602482015273151a5b595b1bd8dac81b9bdd08195b185c1cd95960621b6044820152606490fd5b60405162461bcd60e51b8152600481018490526013602482015272141c9bdc1bdcd85b081b9bdd081c185cdcd959606a1b6044820152606490fd5b604051633ee5aeb560e01b8152600490fd5b5034610b9157602080600319360112610b8d576004358252600a81526040822090600882015491600a600982015491015461222c8161222784876128ea565b6128ea565b6040516318160ddd60e01b815290929084816004817f00000000000000000000000000000000000000000000000000000000000000006001600160a01b03165afa9687156122e85780976122b3575b5050606461228e60c0976007549061294c565b04936040519586528501526040840152806060840152816080840152101560a0820152f35b9096508487813d83116122e1575b6122cb8183612561565b81010312610b915750945194606461228e61227b565b503d6122c1565b604051903d90823e3d90fd5b5034610b915780600319360112610b91576020600454604051908152f35b5034610b91576020366003190112610b915760043563ffffffff60e01b8116809103610b8d57602090637965db0b60e01b8114908115612358575b506040519015158152f35b6301ffc9a760e01b1490508261234d565b5034610b91576020366003190112610b91576004358152600a602052604090208054600160a01b60019003918260018201541692600282015416906003810154600482015460058301546006840154600785015490600886015492600987015494600a88015496600b89015498600c016123e290612628565b996040519c8d9c8d5260208d015260408c015260608b015260808a015260a089015260c088015260e0870152610100860152610120850152610140840152610160830160ff82169061243391612676565b60081c60ff1615156101808301526101c0806101a0840152820161135b916126c3565b905034610b8d576040366003190112610b8d5761249f8160ff604060209561247c6124a1565b6004358252600c88528282206001600160a01b03909116825287522054166124cd565bf35b602435906001600160a01b03821682036109f657565b600435906001600160a01b03821682036109f657565b906003821015611bc85752565b90600182811c9216801561250a575b60208310146124f457565b634e487b7160e01b600052602260045260246000fd5b91607f16916124e9565b6101c081019081106001600160401b0382111761253057604052565b634e487b7160e01b600052604160045260246000fd5b608081019081106001600160401b0382111761253057604052565b90601f801991011681019081106001600160401b0382111761253057604052565b9060405191826000825492612596846124da565b90818452600194858116908160001461260557506001146125c2575b50506125c092500383612561565b565b9093915060005260209081600020936000915b8183106125ed5750506125c0935082010138806125b2565b855488840185015294850194879450918301916125d5565b9150506125c094506020925060ff191682840152151560051b82010138806125b2565b9060405161263581612546565b60606126716003839561264781612582565b855261265560018201612582565b602086015261266660028201612582565b604086015201612582565b910152565b906006821015611bc85752565b919082519283825260005b8481106126af575050826000602080949584010152601f8019910116010190565b60208183018101518483018201520161268e565b6127179160606127066126f46126e28551608086526080860190612683565b60208601518582036020870152612683565b60408501518482036040860152612683565b920151906060818403910152612683565b90565b80548210156127325760005260206000200190600090565b634e487b7160e01b600052603260045260246000fd5b9181601f840112156109f6578235916001600160401b0383116109f657602083818601950101116109f657565b3360009081527f7d7ffb7a348e1c6a02869081a26547b49160dd3df72d1d75a570eb9b698292ec60205260409020547fa49807205ce4d355092ef5a8a18f56e8913cf4a201fbe287825b095693c217759060ff16156114bd5750565b80600052600060205260406000203360005260205260ff60406000205416156114bd5750565b9060009180835282602052604083209160018060a01b03169182845260205260ff6040842054161560001461287057808352826020526040832082845260205260408320600160ff198254161790557f2f8788117e7eff1d82e926ec794901d17c78024a50270940304540a733656f0d339380a4600190565b505090565b9060009180835282602052604083209160018060a01b03169182845260205260ff6040842054166000146128705780835282602052604083208284526020526040832060ff1981541690557ff6391f5c32d9c69d2a47ea670b442974b53935d1edc7fd64eb21e047a839171b339380a4600190565b919082018092116128f757565b634e487b7160e01b600052601160045260246000fd5b908060209392818452848401376000828201840152601f01601f1916010190565b60ff6002541661293a57565b60405163d93c066560e01b8152600490fd5b818102929181159184041417156128f757565b6040519061296c82612546565b606080838181528160208201528160408201520152565b1561298a57565b60405162461bcd60e51b815260206004820152600c60248201526b4f7574206f662072616e676560a01b6044820152606490fdfe12c9dccd129ff783f1c8228eacdfa8e334ddecb7ec5c9a79ec662a4aed3d012aa26469706673582212204399c294297f51e406d5f16dfd882316f21ed8bad945aeff0351957192424e2864736f6c634300081400332f8788117e7eff1d82e926ec794901d17c78024a50270940304540a733656f0d","opcodes":"PUSH1 0xC0 CALLVALUE PUSH3 0x121 JUMPI PUSH1 0x1F PUSH3 0x2D45 CODESIZE DUP2 SWAP1 SUB SWAP2 DUP3 ADD PUSH1 0x1F NOT AND DUP4 ADD SWAP2 PUSH1 0x1 PUSH1 0x1 PUSH1 0x40 SHL SUB DUP4 GT DUP5 DUP5 LT OR PUSH3 0x126 JUMPI DUP1 DUP5 SWAP3 PUSH1 0x60 SWAP5 PUSH1 0x40 MSTORE DUP4 CODECOPY DUP2 ADD SUB SLT PUSH3 0x121 JUMPI PUSH3 0x4D DUP2 PUSH3 0x13C JUMP JUMPDEST PUSH1 0x20 DUP3 ADD MLOAD PUSH1 0x1 PUSH1 0x1 PUSH1 0xA0 SHL SUB DUP1 DUP3 AND SWAP2 DUP3 SWAP1 SUB PUSH3 0x121 JUMPI PUSH3 0x78 PUSH1 0x40 PUSH3 0xD4 SWAP6 ADD PUSH3 0x13C JUMP JUMPDEST SWAP3 PUSH1 0x1 DUP1 SSTORE PUSH3 0x15180 PUSH1 0x3 SSTORE PUSH3 0x69780 PUSH1 0x4 SSTORE PUSH3 0x2A300 PUSH1 0x5 SSTORE PUSH8 0x8AC7230489E80000 PUSH1 0x6 SSTORE PUSH1 0xA PUSH1 0x7 SSTORE PUSH8 0x4563918244F40000 PUSH1 0x8 SSTORE AND PUSH1 0x80 MSTORE PUSH1 0xA0 MSTORE PUSH3 0xC1 DUP2 PUSH3 0x151 JUMP JUMPDEST POP PUSH3 0xCD DUP2 PUSH3 0x1D1 JUMP JUMPDEST POP PUSH3 0x273 JUMP JUMPDEST POP PUSH1 0x40 MLOAD PUSH2 0x2A14 SWAP1 DUP2 PUSH3 0x311 DUP3 CODECOPY PUSH1 0x80 MLOAD DUP2 DUP2 DUP2 PUSH2 0x2BC ADD MSTORE DUP2 DUP2 PUSH2 0xBAA ADD MSTORE DUP2 DUP2 PUSH2 0x1865 ADD MSTORE DUP2 DUP2 PUSH2 0x1B23 ADD MSTORE PUSH2 0x2243 ADD MSTORE PUSH1 0xA0 MLOAD DUP2 DUP2 DUP2 PUSH2 0x347 ADD MSTORE DUP2 DUP2 PUSH2 0x1777 ADD MSTORE PUSH2 0x1FC2 ADD MSTORE RETURN JUMPDEST PUSH1 0x0 DUP1 REVERT JUMPDEST PUSH4 0x4E487B71 PUSH1 0xE0 SHL PUSH1 0x0 MSTORE PUSH1 0x41 PUSH1 0x4 MSTORE PUSH1 0x24 PUSH1 0x0 REVERT JUMPDEST MLOAD SWAP1 PUSH1 0x1 PUSH1 0x1 PUSH1 0xA0 SHL SUB DUP3 AND DUP3 SUB PUSH3 0x121 JUMPI JUMP JUMPDEST PUSH1 0x1 PUSH1 0x1 PUSH1 0xA0 SHL SUB AND PUSH1 0x0 DUP2 DUP2 MSTORE PUSH32 0xAD3228B676F7D3CD4284A5443F17F1962B36E491B30A40B2405849E597BA5FB5 PUSH1 0x20 MSTORE PUSH1 0x40 DUP2 KECCAK256 SLOAD SWAP1 SWAP2 SWAP1 PUSH1 0xFF AND PUSH3 0x1CD JUMPI DUP2 DUP1 MSTORE DUP2 PUSH1 0x20 MSTORE PUSH1 0x40 DUP3 KECCAK256 DUP2 DUP4 MSTORE PUSH1 0x20 MSTORE PUSH1 0x40 DUP3 KECCAK256 PUSH1 0x1 PUSH1 0xFF NOT DUP3 SLOAD AND OR SWAP1 SSTORE CALLER SWAP2 PUSH1 0x0 DUP1 MLOAD PUSH1 0x20 PUSH3 0x2D25 DUP4 CODECOPY DUP2 MLOAD SWAP2 MSTORE DUP2 DUP1 LOG4 PUSH1 0x1 SWAP1 JUMP JUMPDEST POP SWAP1 JUMP JUMPDEST PUSH1 0x1 PUSH1 0x1 PUSH1 0xA0 SHL SUB AND PUSH1 0x0 DUP2 DUP2 MSTORE PUSH32 0x7D7FFB7A348E1C6A02869081A26547B49160DD3DF72D1D75A570EB9B698292EC PUSH1 0x20 MSTORE PUSH1 0x40 DUP2 KECCAK256 SLOAD SWAP1 SWAP2 SWAP1 PUSH32 0xA49807205CE4D355092EF5A8A18F56E8913CF4A201FBE287825B095693C21775 SWAP1 PUSH1 0xFF AND PUSH3 0x26E JUMPI DUP1 DUP4 MSTORE DUP3 PUSH1 0x20 MSTORE PUSH1 0x40 DUP4 KECCAK256 DUP3 DUP5 MSTORE PUSH1 0x20 MSTORE PUSH1 0x40 DUP4 KECCAK256 PUSH1 0x1 PUSH1 0xFF NOT DUP3 SLOAD AND OR SWAP1 SSTORE PUSH1 0x0 DUP1 MLOAD PUSH1 0x20 PUSH3 0x2D25 DUP4 CODECOPY DUP2 MLOAD SWAP2 MSTORE CALLER SWAP4 DUP1 LOG4 PUSH1 0x1 SWAP1 JUMP JUMPDEST POP POP SWAP1 JUMP JUMPDEST PUSH1 0x1 PUSH1 0x1 PUSH1 0xA0 SHL SUB AND PUSH1 0x0 DUP2 DUP2 MSTORE PUSH32 0xF484C8D36633AA70EAE8EE4883885DB3AF58778E0F4E89A6E23F032F4A708971 PUSH1 0x20 MSTORE PUSH1 0x40 DUP2 KECCAK256 SLOAD SWAP1 SWAP2 SWAP1 PUSH32 0x850D585EB7F024CCEE5E68E55F2C26CC72E1E6EE456ACF62135757A5EB9D4A10 SWAP1 PUSH1 0xFF AND PUSH3 0x26E JUMPI DUP1 DUP4 MSTORE DUP3 PUSH1 0x20 MSTORE PUSH1 0x40 DUP4 KECCAK256 DUP3 DUP5 MSTORE PUSH1 0x20 MSTORE PUSH1 0x40 DUP4 KECCAK256 PUSH1 0x1 PUSH1 0xFF NOT DUP3 SLOAD AND OR SWAP1 SSTORE PUSH1 0x0 DUP1 MLOAD PUSH1 0x20 PUSH3 0x2D25 DUP4 CODECOPY DUP2 MLOAD SWAP2 MSTORE CALLER SWAP4 DUP1 LOG4 PUSH1 0x1 SWAP1 JUMP INVALID PUSH1 0x80 DUP1 PUSH1 0x40 MSTORE PUSH1 0x4 CALLDATASIZE LT ISZERO PUSH2 0x13 JUMPI PUSH1 0x0 DUP1 REVERT JUMPDEST PUSH1 0x0 SWAP1 DUP2 CALLDATALOAD PUSH1 0xE0 SHR SWAP1 DUP2 PUSH4 0x117C909 EQ PUSH2 0x2456 JUMPI POP DUP1 PUSH4 0x13CF08B EQ PUSH2 0x2369 JUMPI DUP1 PUSH4 0x1FFC9A7 EQ PUSH2 0x2312 JUMPI DUP1 PUSH4 0x2A251A3 EQ PUSH2 0x22F4 JUMPI DUP1 PUSH4 0x4F53F6C EQ PUSH2 0x21E8 JUMPI DUP1 PUSH4 0xD61B519 EQ PUSH2 0x1F4F JUMPI DUP1 PUSH4 0x248A9CA3 EQ PUSH2 0x1F23 JUMPI DUP1 PUSH4 0x2F2FF15D EQ PUSH2 0x1EE6 JUMPI DUP1 PUSH4 0x32F6A1DC EQ PUSH2 0x1E64 JUMPI DUP1 PUSH4 0x36568ABE EQ PUSH2 0x1E1C JUMPI DUP1 PUSH4 0x3932ABB1 EQ PUSH2 0x1DFE JUMPI DUP1 PUSH4 0x3F4BA83A EQ PUSH2 0x1D93 JUMPI DUP1 PUSH4 0x43859632 EQ PUSH2 0x1D47 JUMPI DUP1 PUSH4 0x484F3705 EQ PUSH2 0x1CF1 JUMPI DUP1 PUSH4 0x4A2CFB54 EQ PUSH2 0x1CB6 JUMPI DUP1 PUSH4 0x4FA76EC9 EQ PUSH2 0x1C98 JUMPI DUP1 PUSH4 0x5652077C EQ PUSH2 0x1AA0 JUMPI DUP1 PUSH4 0x56781388 EQ PUSH2 0x17C9 JUMPI DUP1 PUSH4 0x5C975ABB EQ PUSH2 0x17A6 JUMPI DUP1 PUSH4 0x61D027B3 EQ PUSH2 0x1761 JUMPI DUP1 PUSH4 0x70B0F660 EQ PUSH2 0x16E1 JUMPI DUP1 PUSH4 0x75B238FC EQ PUSH2 0x16A6 JUMPI DUP1 PUSH4 0x8456CB59 EQ PUSH2 0x164B JUMPI DUP1 PUSH4 0x8A6F5A59 EQ PUSH2 0x1600 JUMPI DUP1 PUSH4 0x91D14854 EQ PUSH2 0x15B5 JUMPI DUP1 PUSH4 0xA217FDDF EQ PUSH2 0x1599 JUMPI DUP1 PUSH4 0xA9C2C7B8 EQ PUSH2 0x157B JUMPI DUP1 PUSH4 0xAF267F8F EQ PUSH2 0x14F9 JUMPI DUP1 PUSH4 0xB58131B0 EQ PUSH2 0x14DB JUMPI DUP1 PUSH4 0xBC3DFF64 EQ PUSH2 0x1373 JUMPI DUP1 PUSH4 0xC7F758A8 EQ PUSH2 0x114B JUMPI DUP1 PUSH4 0xCB738464 EQ PUSH2 0x109D JUMPI DUP1 PUSH4 0xD547741F EQ PUSH2 0x105C JUMPI DUP1 PUSH4 0xDA35C664 EQ PUSH2 0x103E JUMPI DUP1 PUSH4 0xE0A8F6F5 EQ PUSH2 0xEE0 JUMPI DUP1 PUSH4 0xE6E1DB37 EQ PUSH2 0xE40 JUMPI DUP1 PUSH4 0xEA0217CF EQ PUSH2 0xDBE JUMPI DUP1 PUSH4 0xECE40CC1 EQ PUSH2 0xD5A JUMPI DUP1 PUSH4 0xEEF09BAD EQ PUSH2 0xD3C JUMPI DUP1 PUSH4 0xF6EAD0B9 EQ PUSH2 0xBD9 JUMPI DUP1 PUSH4 0xFC0C546A EQ PUSH2 0xB94 JUMPI PUSH4 0xFC988EF0 EQ PUSH2 0x1EF JUMPI PUSH1 0x0 DUP1 REVERT JUMPDEST CALLVALUE PUSH2 0xB91 JUMPI PUSH1 0xC0 CALLDATASIZE PUSH1 0x3 NOT ADD SLT PUSH2 0xB91 JUMPI PUSH1 0x4 CALLDATALOAD PUSH1 0x1 PUSH1 0x1 PUSH1 0xA0 SHL SUB DUP2 AND DUP2 SUB PUSH2 0xB8D JUMPI PUSH1 0x44 CALLDATALOAD PUSH1 0x1 PUSH1 0x1 PUSH1 0x40 SHL SUB DUP2 GT PUSH2 0xB85 JUMPI PUSH2 0x232 SWAP1 CALLDATASIZE SWAP1 PUSH1 0x4 ADD PUSH2 0x2748 JUMP JUMPDEST SWAP3 SWAP1 SWAP2 PUSH1 0x64 CALLDATALOAD PUSH1 0x1 PUSH1 0x1 PUSH1 0x40 SHL SUB DUP2 GT PUSH2 0xB85 JUMPI PUSH2 0x254 SWAP1 CALLDATASIZE SWAP1 PUSH1 0x4 ADD PUSH2 0x2748 JUMP JUMPDEST SWAP2 SWAP1 SWAP4 PUSH1 0x84 CALLDATALOAD PUSH1 0x1 PUSH1 0x1 PUSH1 0x40 SHL SUB DUP2 GT PUSH2 0xB89 JUMPI PUSH2 0x276 SWAP1 CALLDATASIZE SWAP1 PUSH1 0x4 ADD PUSH2 0x2748 JUMP JUMPDEST SWAP5 SWAP1 SWAP4 PUSH1 0xA4 CALLDATALOAD PUSH1 0x1 PUSH1 0x1 PUSH1 0x40 SHL SUB DUP2 GT PUSH2 0xB85 JUMPI PUSH2 0x298 SWAP1 CALLDATASIZE SWAP1 PUSH1 0x4 ADD PUSH2 0x2748 JUMP JUMPDEST SWAP2 PUSH2 0x2A1 PUSH2 0x292E JUMP JUMPDEST PUSH1 0x40 MLOAD PUSH4 0x70A08231 PUSH1 0xE0 SHL DUP2 MSTORE CALLER PUSH1 0x4 DUP3 ADD MSTORE PUSH1 0x20 DUP2 PUSH1 0x24 DUP2 PUSH32 0x0 PUSH1 0x1 PUSH1 0x1 PUSH1 0xA0 SHL SUB AND GAS STATICCALL SWAP1 DUP2 ISZERO PUSH2 0xA03 JUMPI DUP6 SWAP2 PUSH2 0xB53 JUMPI JUMPDEST POP PUSH1 0x6 SLOAD GT PUSH2 0xB0E JUMPI PUSH1 0x1 PUSH1 0x1 PUSH1 0xA0 SHL SUB DUP7 AND ISZERO PUSH2 0xAD5 JUMPI PUSH1 0x24 CALLDATALOAD ISZERO ISZERO DUP1 PUSH2 0xAC7 JUMPI JUMPDEST ISZERO PUSH2 0xA91 JUMPI DUP10 ISZERO ISZERO DUP1 PUSH2 0xA86 JUMPI JUMPDEST ISZERO PUSH2 0xA4A JUMPI PUSH2 0x1F4 DUP2 GT PUSH2 0xA0E JUMPI PUSH1 0x40 MLOAD PUSH3 0x9032FF PUSH1 0xE5 SHL DUP2 MSTORE PUSH1 0x20 DUP2 PUSH1 0x4 DUP2 PUSH32 0x0 PUSH1 0x1 PUSH1 0x1 PUSH1 0xA0 SHL SUB AND GAS STATICCALL SWAP1 DUP2 ISZERO PUSH2 0xA03 JUMPI DUP6 SWAP2 PUSH2 0x9CC JUMPI JUMPDEST POP PUSH1 0x24 CALLDATALOAD GT PUSH2 0x987 JUMPI PUSH1 0x9 SLOAD SWAP9 PUSH1 0x0 NOT DUP11 EQ PUSH2 0x973 JUMPI SWAP1 DUP10 SWAP4 SWAP3 SWAP2 PUSH1 0x1 DUP6 ADD PUSH1 0x9 SSTORE PUSH2 0x422 PUSH2 0x3B0 PUSH1 0x3 SLOAD TIMESTAMP PUSH2 0x28EA JUMP JUMPDEST PUSH2 0x3BC PUSH1 0x4 SLOAD DUP3 PUSH2 0x28EA JUMP JUMPDEST PUSH1 0x1 SWAP8 DUP9 ADD DUP1 DUP11 MSTORE PUSH1 0xA PUSH1 0x20 MSTORE PUSH1 0x40 DUP11 KECCAK256 SWAP1 DUP2 SSTORE SWAP8 DUP9 ADD DUP1 SLOAD PUSH1 0x1 PUSH1 0x1 PUSH1 0xA0 SHL SUB NOT SWAP1 DUP2 AND CALLER OR SWAP1 SWAP2 SSTORE PUSH1 0x2 DUP10 ADD DUP1 SLOAD SWAP1 SWAP2 AND PUSH1 0x1 PUSH1 0x1 PUSH1 0xA0 SHL SUB DUP14 AND OR SWAP1 SSTORE PUSH1 0x24 CALLDATALOAD PUSH1 0x3 DUP10 ADD SSTORE TIMESTAMP PUSH1 0x4 DUP10 ADD SSTORE PUSH1 0x5 DUP1 DUP10 ADD SWAP3 SWAP1 SWAP3 SSTORE PUSH1 0x6 DUP9 ADD DUP2 SWAP1 SSTORE SWAP1 SLOAD SWAP1 PUSH2 0x28EA JUMP JUMPDEST PUSH1 0x7 DUP7 ADD SSTORE PUSH1 0xB DUP6 ADD DUP1 SLOAD PUSH2 0xFFFF NOT AND SWAP1 SSTORE PUSH1 0x1 PUSH1 0x1 PUSH1 0x40 SHL SUB DUP13 GT PUSH2 0x89F JUMPI PUSH2 0x44F PUSH1 0xC DUP7 ADD SLOAD PUSH2 0x24DA JUMP JUMPDEST PUSH1 0x1F DUP2 GT PUSH2 0x92D JUMPI JUMPDEST POP DUP12 DUP7 PUSH1 0x1F DUP3 GT PUSH1 0x1 EQ PUSH2 0x8BE JUMPI DUP8 SWAP2 PUSH2 0x8B3 JUMPI JUMPDEST POP PUSH1 0x0 NOT PUSH1 0x3 DUP15 SWAP1 SHL SHR NOT AND PUSH1 0x1 DUP14 SWAP1 SHL OR PUSH1 0xC DUP7 ADD SSTORE JUMPDEST PUSH1 0x1 PUSH1 0x1 PUSH1 0x40 SHL SUB DUP3 GT PUSH2 0x89F JUMPI DUP2 SWAP1 PUSH2 0x4A2 PUSH1 0xD DUP8 ADD SLOAD PUSH2 0x24DA JUMP JUMPDEST PUSH1 0x1F DUP2 GT PUSH2 0x84E JUMPI JUMPDEST POP DUP7 SWAP1 PUSH1 0x1F DUP4 GT PUSH1 0x1 EQ PUSH2 0x7E2 JUMPI DUP8 SWAP3 PUSH2 0x7D7 JUMPI JUMPDEST POP POP DUP2 PUSH1 0x1 SHL SWAP2 PUSH1 0x0 NOT SWAP1 PUSH1 0x3 SHL SHR NOT AND OR PUSH1 0xD DUP5 ADD SSTORE JUMPDEST PUSH1 0x1 PUSH1 0x1 PUSH1 0x40 SHL SUB DUP9 GT PUSH2 0x709 JUMPI PUSH2 0x4F3 PUSH1 0xE DUP5 ADD SLOAD PUSH2 0x24DA JUMP JUMPDEST PUSH1 0x1F DUP2 GT PUSH2 0x792 JUMPI JUMPDEST POP DUP8 DUP5 PUSH1 0x1F DUP3 GT PUSH1 0x1 EQ PUSH2 0x728 JUMPI DUP6 SWAP2 PUSH2 0x71D JUMPI JUMPDEST POP DUP9 PUSH1 0x1 SHL SWAP1 PUSH1 0x0 NOT DUP11 PUSH1 0x3 SHL SHR NOT AND OR PUSH1 0xE DUP5 ADD SSTORE JUMPDEST PUSH1 0x1 PUSH1 0x1 PUSH1 0x40 SHL SUB DUP3 GT PUSH2 0x709 JUMPI PUSH2 0x543 PUSH1 0xF DUP5 ADD SLOAD PUSH2 0x24DA JUMP JUMPDEST PUSH1 0x1F DUP2 GT PUSH2 0x6C4 JUMPI JUMPDEST POP DUP4 SWAP1 PUSH1 0x1F DUP4 GT PUSH1 0x1 EQ PUSH2 0x65A JUMPI PUSH1 0xF SWAP3 SWAP2 DUP6 SWAP2 DUP4 PUSH2 0x64F JUMPI JUMPDEST POP POP DUP2 PUSH1 0x1 SHL SWAP2 PUSH1 0x0 NOT SWAP1 PUSH1 0x3 SHL SHR NOT AND OR SWAP2 ADD SSTORE JUMPDEST CALLER DUP2 MSTORE PUSH1 0xD PUSH1 0x20 MSTORE PUSH1 0x40 DUP2 KECCAK256 DUP1 SLOAD SWAP2 PUSH9 0x10000000000000000 DUP4 LT ISZERO PUSH2 0x63B JUMPI POP PUSH2 0x619 PUSH1 0x20 SWAP9 SWAP4 PUSH2 0x5D9 DUP5 PUSH2 0x62D SWAP5 PUSH1 0x1 PUSH32 0xC44CCE178A1D5C439255C60BD1A9A7C635573488A456474901AA645C5B448483 SWAP10 SWAP8 ADD DUP2 SSTORE PUSH2 0x271A JUMP JUMPDEST DUP2 SLOAD SWAP1 PUSH1 0x3 SHL SWAP1 PUSH1 0x1 DUP13 ADD DUP3 SHL SWAP2 PUSH1 0x0 NOT SWAP1 SHL NOT AND OR SWAP1 SSTORE PUSH1 0x40 MLOAD SWAP5 DUP6 SWAP5 PUSH1 0x1 DUP1 PUSH1 0xA0 SHL SUB AND DUP6 MSTORE PUSH1 0x24 CALLDATALOAD DUP12 DUP7 ADD MSTORE PUSH1 0x80 PUSH1 0x40 DUP7 ADD MSTORE PUSH1 0x80 DUP6 ADD SWAP2 PUSH2 0x290D JUMP JUMPDEST DUP3 DUP2 SUB PUSH1 0x60 DUP5 ADD MSTORE CALLER SWAP7 PUSH1 0x1 DUP10 ADD SWAP7 PUSH2 0x290D JUMP JUMPDEST SUB SWAP1 LOG3 PUSH1 0x1 PUSH1 0x40 MLOAD SWAP2 ADD DUP2 MSTORE RETURN JUMPDEST PUSH4 0x4E487B71 PUSH1 0xE0 SHL DUP2 MSTORE PUSH1 0x41 PUSH1 0x4 MSTORE PUSH1 0x24 SWAP1 REVERT JUMPDEST ADD CALLDATALOAD SWAP1 POP CODESIZE DUP1 PUSH2 0x566 JUMP JUMPDEST PUSH1 0xF DUP5 ADD DUP6 MSTORE PUSH1 0x20 DUP6 KECCAK256 SWAP2 PUSH1 0x1F NOT DUP5 AND DUP7 JUMPDEST DUP2 DUP2 LT PUSH2 0x6AC JUMPI POP SWAP2 PUSH1 0x1 SWAP4 SWAP2 DUP6 PUSH1 0xF SWAP7 SWAP5 LT PUSH2 0x692 JUMPI JUMPDEST POP POP POP DUP2 SHL ADD SWAP2 ADD SSTORE PUSH2 0x57C JUMP JUMPDEST ADD CALLDATALOAD PUSH1 0x0 NOT PUSH1 0x3 DUP5 SWAP1 SHL PUSH1 0xF8 AND SHR NOT AND SWAP1 SSTORE CODESIZE DUP1 DUP1 PUSH2 0x684 JUMP JUMPDEST SWAP2 SWAP4 PUSH1 0x20 PUSH1 0x1 DUP2 SWAP3 DUP8 DUP8 ADD CALLDATALOAD DUP2 SSTORE ADD SWAP6 ADD SWAP3 ADD PUSH2 0x66C JUMP JUMPDEST PUSH1 0xF DUP5 ADD DUP6 MSTORE PUSH1 0x20 DUP6 KECCAK256 PUSH1 0x1F DUP5 ADD PUSH1 0x5 SHR DUP2 ADD PUSH1 0x20 DUP6 LT PUSH2 0x702 JUMPI JUMPDEST PUSH1 0x1F DUP4 ADD PUSH1 0x5 SHR DUP3 ADD DUP2 LT PUSH2 0x6F6 JUMPI POP POP PUSH2 0x54C JUMP JUMPDEST PUSH1 0x0 DUP2 SSTORE PUSH1 0x1 ADD PUSH2 0x6E0 JUMP JUMPDEST POP DUP1 PUSH2 0x6E0 JUMP JUMPDEST PUSH4 0x4E487B71 PUSH1 0xE0 SHL DUP5 MSTORE PUSH1 0x41 PUSH1 0x4 MSTORE PUSH1 0x24 DUP5 REVERT JUMPDEST SWAP1 POP DUP8 ADD CALLDATALOAD CODESIZE PUSH2 0x511 JUMP JUMPDEST PUSH1 0xE DUP6 ADD DUP7 MSTORE PUSH1 0x20 DUP7 KECCAK256 SWAP2 POP DUP6 JUMPDEST PUSH1 0x1F NOT DUP12 AND DUP2 LT PUSH2 0x77A JUMPI POP DUP10 PUSH1 0x1F NOT DUP2 AND LT PUSH2 0x760 JUMPI JUMPDEST POP POP PUSH1 0x1 DUP9 DUP2 SHL ADD PUSH1 0xE DUP5 ADD SSTORE PUSH2 0x528 JUMP JUMPDEST DUP9 ADD CALLDATALOAD PUSH1 0x0 NOT PUSH1 0x3 DUP12 SWAP1 SHL PUSH1 0xF8 AND SHR NOT AND SWAP1 SSTORE CODESIZE DUP1 PUSH2 0x74E JUMP JUMPDEST SWAP1 SWAP2 PUSH1 0x20 PUSH1 0x1 DUP2 SWAP3 DUP6 DUP14 ADD CALLDATALOAD DUP2 SSTORE ADD SWAP4 ADD SWAP2 ADD PUSH2 0x736 JUMP JUMPDEST PUSH1 0xE DUP5 ADD DUP6 MSTORE PUSH1 0x20 DUP6 KECCAK256 PUSH1 0x1F DUP11 ADD PUSH1 0x5 SHR DUP2 ADD PUSH1 0x20 DUP12 LT PUSH2 0x7D0 JUMPI JUMPDEST PUSH1 0x1F DUP4 ADD PUSH1 0x5 SHR DUP3 ADD DUP2 LT PUSH2 0x7C4 JUMPI POP POP PUSH2 0x4FC JUMP JUMPDEST PUSH1 0x0 DUP2 SSTORE PUSH1 0x1 ADD PUSH2 0x7AE JUMP JUMPDEST POP DUP1 PUSH2 0x7AE JUMP JUMPDEST ADD CALLDATALOAD SWAP1 POP CODESIZE DUP1 PUSH2 0x4C0 JUMP JUMPDEST PUSH1 0xD DUP8 ADD DUP9 MSTORE PUSH1 0x20 DUP9 KECCAK256 DUP9 SWAP5 POP SWAP2 JUMPDEST PUSH1 0x1F NOT DUP5 AND DUP6 LT PUSH2 0x836 JUMPI PUSH1 0x1 SWAP5 POP DUP4 PUSH1 0x1F NOT DUP2 AND LT PUSH2 0x81C JUMPI JUMPDEST POP POP POP DUP2 SHL ADD PUSH1 0xD DUP5 ADD SSTORE PUSH2 0x4D8 JUMP JUMPDEST ADD CALLDATALOAD PUSH1 0x0 NOT PUSH1 0x3 DUP5 SWAP1 SHL PUSH1 0xF8 AND SHR NOT AND SWAP1 SSTORE CODESIZE DUP1 DUP1 PUSH2 0x80C JUMP JUMPDEST DUP2 DUP2 ADD CALLDATALOAD DUP4 SSTORE PUSH1 0x20 SWAP5 DUP6 ADD SWAP5 PUSH1 0x1 SWAP1 SWAP4 ADD SWAP3 ADD PUSH2 0x7F1 JUMP JUMPDEST SWAP1 SWAP2 POP PUSH1 0xD DUP7 ADD DUP8 MSTORE PUSH1 0x20 DUP8 KECCAK256 PUSH1 0x1F DUP5 ADD PUSH1 0x5 SHR DUP2 ADD PUSH1 0x20 DUP6 LT PUSH2 0x898 JUMPI JUMPDEST SWAP1 DUP5 SWAP4 SWAP3 SWAP2 JUMPDEST PUSH1 0x1F DUP4 ADD PUSH1 0x5 SHR DUP3 ADD DUP2 LT PUSH2 0x889 JUMPI POP POP PUSH2 0x4AB JUMP JUMPDEST PUSH1 0x0 DUP2 SSTORE DUP6 SWAP5 POP PUSH1 0x1 ADD PUSH2 0x873 JUMP JUMPDEST POP DUP1 PUSH2 0x86D JUMP JUMPDEST PUSH4 0x4E487B71 PUSH1 0xE0 SHL DUP7 MSTORE PUSH1 0x41 PUSH1 0x4 MSTORE PUSH1 0x24 DUP7 REVERT JUMPDEST SWAP1 POP DUP8 ADD CALLDATALOAD CODESIZE PUSH2 0x46D JUMP JUMPDEST PUSH1 0xC DUP8 ADD DUP9 MSTORE PUSH1 0x20 DUP9 KECCAK256 SWAP2 POP DUP8 DUP15 JUMPDEST DUP11 PUSH1 0x1F NOT DUP3 AND DUP4 LT PUSH2 0x913 JUMPI POP PUSH1 0x1F NOT DUP2 AND LT SWAP1 POP PUSH2 0x8F9 JUMPI JUMPDEST POP POP PUSH1 0x1 DUP13 DUP2 SHL ADD PUSH1 0xC DUP7 ADD SSTORE PUSH2 0x485 JUMP JUMPDEST DUP9 ADD CALLDATALOAD PUSH1 0x0 NOT PUSH1 0x3 DUP16 SWAP1 SHL PUSH1 0xF8 AND SHR NOT AND SWAP1 SSTORE CODESIZE DUP1 PUSH2 0x8E7 JUMP JUMPDEST PUSH1 0x1 DUP5 SWAP6 PUSH1 0x20 SWAP4 SWAP5 SWAP6 DUP5 SWAP4 ADD CALLDATALOAD DUP2 SSTORE ADD SWAP5 ADD SWAP3 ADD SWAP1 PUSH2 0x8CD JUMP JUMPDEST PUSH1 0xC DUP7 ADD DUP8 MSTORE PUSH1 0x20 DUP8 KECCAK256 DUP14 PUSH1 0x20 PUSH1 0x1F DUP3 ADD PUSH1 0x5 SHR DUP4 ADD SWAP2 LT PUSH2 0x96C JUMPI JUMPDEST PUSH1 0x1F DUP4 ADD PUSH1 0x5 SHR DUP3 ADD DUP2 LT PUSH2 0x960 JUMPI POP POP PUSH2 0x458 JUMP JUMPDEST PUSH1 0x0 DUP2 SSTORE PUSH1 0x1 ADD PUSH2 0x94A JUMP JUMPDEST POP DUP1 PUSH2 0x94A JUMP JUMPDEST PUSH4 0x4E487B71 PUSH1 0xE0 SHL DUP6 MSTORE PUSH1 0x11 PUSH1 0x4 MSTORE PUSH1 0x24 DUP6 REVERT JUMPDEST PUSH1 0x40 MLOAD PUSH3 0x461BCD PUSH1 0xE5 SHL DUP2 MSTORE PUSH1 0x20 PUSH1 0x4 DUP3 ADD MSTORE PUSH1 0x1B PUSH1 0x24 DUP3 ADD MSTORE PUSH32 0x496E73756666696369656E742074726561737572792066756E64730000000000 PUSH1 0x44 DUP3 ADD MSTORE PUSH1 0x64 SWAP1 REVERT JUMPDEST SWAP1 POP PUSH1 0x20 DUP2 RETURNDATASIZE PUSH1 0x20 GT PUSH2 0x9FB JUMPI JUMPDEST DUP2 PUSH2 0x9E7 PUSH1 0x20 SWAP4 DUP4 PUSH2 0x2561 JUMP JUMPDEST DUP2 ADD SUB SLT PUSH2 0x9F6 JUMPI MLOAD CODESIZE PUSH2 0x37F JUMP JUMPDEST PUSH1 0x0 DUP1 REVERT JUMPDEST RETURNDATASIZE SWAP2 POP PUSH2 0x9DA JUMP JUMPDEST PUSH1 0x40 MLOAD RETURNDATASIZE DUP8 DUP3 RETURNDATACOPY RETURNDATASIZE SWAP1 REVERT JUMPDEST PUSH1 0x40 MLOAD PUSH3 0x461BCD PUSH1 0xE5 SHL DUP2 MSTORE PUSH1 0x20 PUSH1 0x4 DUP3 ADD MSTORE PUSH1 0x14 PUSH1 0x24 DUP3 ADD MSTORE PUSH20 0x4465736372697074696F6E20746F6F206C6F6E67 PUSH1 0x60 SHL PUSH1 0x44 DUP3 ADD MSTORE PUSH1 0x64 SWAP1 REVERT JUMPDEST PUSH1 0x40 MLOAD PUSH3 0x461BCD PUSH1 0xE5 SHL DUP2 MSTORE PUSH1 0x20 PUSH1 0x4 DUP3 ADD MSTORE PUSH1 0x14 PUSH1 0x24 DUP3 ADD MSTORE PUSH20 0x92DCECC2D8D2C840E8D2E8D8CA40D8CADCCEE8D PUSH1 0x63 SHL PUSH1 0x44 DUP3 ADD MSTORE PUSH1 0x64 SWAP1 REVERT JUMPDEST POP PUSH1 0x64 DUP11 GT ISZERO PUSH2 0x325 JUMP JUMPDEST PUSH1 0x40 MLOAD PUSH3 0x461BCD PUSH1 0xE5 SHL DUP2 MSTORE PUSH1 0x20 PUSH1 0x4 DUP3 ADD MSTORE PUSH1 0xE PUSH1 0x24 DUP3 ADD MSTORE PUSH14 0x125B9D985B1A5908185B5BDD5B9D PUSH1 0x92 SHL PUSH1 0x44 DUP3 ADD MSTORE PUSH1 0x64 SWAP1 REVERT JUMPDEST POP PUSH1 0x8 SLOAD PUSH1 0x24 CALLDATALOAD GT ISZERO PUSH2 0x317 JUMP JUMPDEST PUSH1 0x40 MLOAD PUSH3 0x461BCD PUSH1 0xE5 SHL DUP2 MSTORE PUSH1 0x20 PUSH1 0x4 DUP3 ADD MSTORE PUSH1 0x11 PUSH1 0x24 DUP3 ADD MSTORE PUSH17 0x125B9D985B1A59081C9958DA5C1A595B9D PUSH1 0x7A SHL PUSH1 0x44 DUP3 ADD MSTORE PUSH1 0x64 SWAP1 REVERT JUMPDEST PUSH1 0x40 MLOAD PUSH3 0x461BCD PUSH1 0xE5 SHL DUP2 MSTORE PUSH1 0x20 PUSH1 0x4 DUP3 ADD MSTORE PUSH1 0x1E PUSH1 0x24 DUP3 ADD MSTORE PUSH32 0x496E73756666696369656E7420746F6B656E7320746F2070726F706F73650000 PUSH1 0x44 DUP3 ADD MSTORE PUSH1 0x64 SWAP1 REVERT JUMPDEST SWAP1 POP PUSH1 0x20 DUP2 RETURNDATASIZE PUSH1 0x20 GT PUSH2 0xB7D JUMPI JUMPDEST DUP2 PUSH2 0xB6E PUSH1 0x20 SWAP4 DUP4 PUSH2 0x2561 JUMP JUMPDEST DUP2 ADD SUB SLT PUSH2 0x9F6 JUMPI MLOAD CODESIZE PUSH2 0x2F4 JUMP JUMPDEST RETURNDATASIZE SWAP2 POP PUSH2 0xB61 JUMP JUMPDEST DUP3 DUP1 REVERT JUMPDEST DUP5 DUP1 REVERT JUMPDEST POP DUP1 REVERT JUMPDEST DUP1 REVERT JUMPDEST POP CALLVALUE PUSH2 0xB91 JUMPI DUP1 PUSH1 0x3 NOT CALLDATASIZE ADD SLT PUSH2 0xB91 JUMPI PUSH1 0x40 MLOAD PUSH32 0x0 PUSH1 0x1 PUSH1 0x1 PUSH1 0xA0 SHL SUB AND DUP2 MSTORE PUSH1 0x20 SWAP1 RETURN JUMPDEST POP CALLVALUE PUSH2 0xB91 JUMPI PUSH1 0x20 DUP1 PUSH1 0x3 NOT CALLDATASIZE ADD SLT PUSH2 0xB8D JUMPI PUSH1 0x4 CALLDATALOAD SWAP1 DUP2 DUP4 MSTORE PUSH1 0xA DUP2 MSTORE PUSH1 0x40 DUP4 KECCAK256 SWAP1 PUSH1 0xB DUP3 ADD SWAP2 DUP3 SLOAD SWAP3 PUSH1 0xFF DUP5 AND PUSH1 0x6 DUP2 LT ISZERO PUSH2 0xD28 JUMPI PUSH2 0xCF5 JUMPI PUSH1 0xFF DUP5 PUSH1 0x8 SHR AND PUSH2 0xCB0 JUMPI PUSH1 0x5 DUP3 ADD SLOAD SWAP4 DUP5 TIMESTAMP LT PUSH2 0xC6B JUMPI PUSH1 0xFF NOT AND PUSH1 0x1 OR SWAP1 SSTORE PUSH1 0x6 ADD SLOAD PUSH1 0x40 DUP1 MLOAD SWAP4 DUP5 MSTORE SWAP2 DUP4 ADD MSTORE PUSH32 0x4CD5AB692ECA676B18FB15DBEB48F20B447B5B6949999D211FDC089AA41D3B5A SWAP2 LOG2 DUP1 RETURN JUMPDEST PUSH1 0x40 MLOAD PUSH3 0x461BCD PUSH1 0xE5 SHL DUP2 MSTORE PUSH1 0x4 DUP2 ADD DUP6 SWAP1 MSTORE PUSH1 0x18 PUSH1 0x24 DUP3 ADD MSTORE PUSH32 0x566F74696E672064656C6179206E6F7420656C61707365640000000000000000 PUSH1 0x44 DUP3 ADD MSTORE PUSH1 0x64 SWAP1 REVERT JUMPDEST PUSH1 0x40 MLOAD PUSH3 0x461BCD PUSH1 0xE5 SHL DUP2 MSTORE PUSH1 0x4 DUP2 ADD DUP5 SWAP1 MSTORE PUSH1 0x1B PUSH1 0x24 DUP3 ADD MSTORE PUSH32 0x50726F706F73616C20666C61676765642062792063757261746F720000000000 PUSH1 0x44 DUP3 ADD MSTORE PUSH1 0x64 SWAP1 REVERT JUMPDEST PUSH1 0x40 MLOAD PUSH3 0x461BCD PUSH1 0xE5 SHL DUP2 MSTORE PUSH1 0x4 DUP2 ADD DUP5 SWAP1 MSTORE PUSH1 0xB PUSH1 0x24 DUP3 ADD MSTORE PUSH11 0x4E6F742070656E64696E67 PUSH1 0xA8 SHL PUSH1 0x44 DUP3 ADD MSTORE PUSH1 0x64 SWAP1 REVERT JUMPDEST PUSH4 0x4E487B71 PUSH1 0xE0 SHL DUP8 MSTORE PUSH1 0x21 PUSH1 0x4 MSTORE PUSH1 0x24 DUP8 REVERT JUMPDEST POP CALLVALUE PUSH2 0xB91 JUMPI DUP1 PUSH1 0x3 NOT CALLDATASIZE ADD SLT PUSH2 0xB91 JUMPI PUSH1 0x20 PUSH1 0x5 SLOAD PUSH1 0x40 MLOAD SWAP1 DUP2 MSTORE RETURN JUMPDEST POP CALLVALUE PUSH2 0xB91 JUMPI PUSH1 0x20 CALLDATASIZE PUSH1 0x3 NOT ADD SLT PUSH2 0xB91 JUMPI PUSH1 0x0 DUP1 MLOAD PUSH1 0x20 PUSH2 0x29BF DUP4 CODECOPY DUP2 MLOAD SWAP2 MSTORE PUSH1 0x80 PUSH1 0x4 CALLDATALOAD PUSH2 0xD88 PUSH2 0x2775 JUMP JUMPDEST DUP1 PUSH1 0x6 SSTORE PUSH1 0x40 MLOAD SWAP1 PUSH1 0x40 DUP3 MSTORE PUSH1 0x11 PUSH1 0x40 DUP4 ADD MSTORE PUSH17 0x1C1C9BDC1BDCD85B151A1C995CDA1BDB19 PUSH1 0x7A SHL PUSH1 0x60 DUP4 ADD MSTORE PUSH1 0x20 DUP3 ADD MSTORE LOG1 DUP1 RETURN JUMPDEST POP CALLVALUE PUSH2 0xB91 JUMPI PUSH1 0x20 CALLDATASIZE PUSH1 0x3 NOT ADD SLT PUSH2 0xB91 JUMPI PUSH1 0x0 DUP1 MLOAD PUSH1 0x20 PUSH2 0x29BF DUP4 CODECOPY DUP2 MLOAD SWAP2 MSTORE PUSH1 0x80 PUSH1 0x4 CALLDATALOAD PUSH2 0xDEC PUSH2 0x2775 JUMP JUMPDEST PUSH3 0x15180 DUP2 LT ISZERO DUP1 PUSH2 0xE33 JUMPI JUMPDEST PUSH2 0xE02 SWAP1 PUSH2 0x2983 JUMP JUMPDEST DUP1 PUSH1 0x4 SSTORE PUSH1 0x40 MLOAD SWAP1 PUSH1 0x40 DUP3 MSTORE PUSH1 0xC PUSH1 0x40 DUP4 ADD MSTORE PUSH12 0x1D9BDD1A5B99D4195C9A5BD9 PUSH1 0xA2 SHL PUSH1 0x60 DUP4 ADD MSTORE PUSH1 0x20 DUP3 ADD MSTORE LOG1 DUP1 RETURN JUMPDEST POP PUSH3 0x278D00 DUP2 GT ISZERO PUSH2 0xDF9 JUMP JUMPDEST POP CALLVALUE PUSH2 0xB91 JUMPI PUSH1 0x20 CALLDATASIZE PUSH1 0x3 NOT ADD SLT PUSH2 0xB91 JUMPI PUSH1 0x4 CALLDATALOAD PUSH2 0xE5D PUSH2 0x2775 JUMP JUMPDEST DUP1 ISZERO PUSH2 0xEA8 JUMPI PUSH1 0x80 DUP2 PUSH1 0x0 DUP1 MLOAD PUSH1 0x20 PUSH2 0x29BF DUP4 CODECOPY DUP2 MLOAD SWAP2 MSTORE SWAP3 PUSH1 0x8 SSTORE PUSH1 0x40 MLOAD SWAP1 PUSH1 0x40 DUP3 MSTORE PUSH1 0xE PUSH1 0x40 DUP4 ADD MSTORE PUSH14 0x1B585E11DC985B9D105B5BDD5B9D PUSH1 0x92 SHL PUSH1 0x60 DUP4 ADD MSTORE PUSH1 0x20 DUP3 ADD MSTORE LOG1 DUP1 RETURN JUMPDEST PUSH1 0x40 MLOAD PUSH3 0x461BCD PUSH1 0xE5 SHL DUP2 MSTORE PUSH1 0x20 PUSH1 0x4 DUP3 ADD MSTORE PUSH1 0x10 PUSH1 0x24 DUP3 ADD MSTORE PUSH16 0x4D75737420626520706F736974697665 PUSH1 0x80 SHL PUSH1 0x44 DUP3 ADD MSTORE PUSH1 0x64 SWAP1 REVERT JUMPDEST POP CALLVALUE PUSH2 0xB91 JUMPI PUSH1 0x20 DUP1 PUSH1 0x3 NOT CALLDATASIZE ADD SLT PUSH2 0xB8D JUMPI PUSH1 0x4 CALLDATALOAD SWAP1 DUP2 DUP4 MSTORE PUSH1 0xA DUP2 MSTORE PUSH1 0x40 DUP4 KECCAK256 PUSH1 0x1 DUP1 PUSH1 0xA0 SHL SUB PUSH1 0x1 DUP3 ADD SLOAD AND CALLER EQ DUP1 ISZERO PUSH2 0xFFF JUMPI JUMPDEST ISZERO PUSH2 0xFC9 JUMPI PUSH1 0xB ADD DUP1 SLOAD PUSH1 0xFF DUP2 AND PUSH1 0x6 DUP2 LT ISZERO PUSH2 0xFB5 JUMPI DUP1 ISZERO SWAP1 DUP2 ISZERO PUSH2 0xFAA JUMPI JUMPDEST POP ISZERO PUSH2 0xF75 JUMPI PUSH1 0xFF NOT AND PUSH1 0x5 OR SWAP1 SSTORE PUSH1 0x40 MLOAD CALLER DUP2 MSTORE PUSH32 0x74C34A008CE735D9FCF0BD03A9B238D212AD4C441C020661F4FFBB6442645B85 SWAP2 SWAP1 LOG2 DUP1 RETURN JUMPDEST PUSH1 0x40 MLOAD PUSH3 0x461BCD PUSH1 0xE5 SHL DUP2 MSTORE PUSH1 0x4 DUP2 ADD DUP5 SWAP1 MSTORE PUSH1 0xD PUSH1 0x24 DUP3 ADD MSTORE PUSH13 0x10D85B9B9BDD0818D85B98D95B PUSH1 0x9A SHL PUSH1 0x44 DUP3 ADD MSTORE PUSH1 0x64 SWAP1 REVERT JUMPDEST PUSH1 0x1 SWAP2 POP EQ CODESIZE PUSH2 0xF39 JUMP JUMPDEST PUSH4 0x4E487B71 PUSH1 0xE0 SHL DUP7 MSTORE PUSH1 0x21 PUSH1 0x4 MSTORE PUSH1 0x24 DUP7 REVERT JUMPDEST PUSH1 0x40 MLOAD PUSH3 0x461BCD PUSH1 0xE5 SHL DUP2 MSTORE PUSH1 0x4 DUP2 ADD DUP4 SWAP1 MSTORE PUSH1 0xE PUSH1 0x24 DUP3 ADD MSTORE PUSH14 0x139BDD08185D5D1A1BDC9A5E9959 PUSH1 0x92 SHL PUSH1 0x44 DUP3 ADD MSTORE PUSH1 0x64 SWAP1 REVERT JUMPDEST POP PUSH32 0x850D585EB7F024CCEE5E68E55F2C26CC72E1E6EE456ACF62135757A5EB9D4A10 DUP5 MSTORE DUP4 DUP3 MSTORE PUSH1 0x40 DUP5 KECCAK256 CALLER PUSH1 0x0 MSTORE DUP3 MSTORE PUSH1 0xFF PUSH1 0x40 PUSH1 0x0 KECCAK256 SLOAD AND PUSH2 0xF18 JUMP JUMPDEST POP CALLVALUE PUSH2 0xB91 JUMPI DUP1 PUSH1 0x3 NOT CALLDATASIZE ADD SLT PUSH2 0xB91 JUMPI PUSH1 0x20 PUSH1 0x9 SLOAD PUSH1 0x40 MLOAD SWAP1 DUP2 MSTORE RETURN JUMPDEST POP CALLVALUE PUSH2 0xB91 JUMPI PUSH1 0x40 CALLDATASIZE PUSH1 0x3 NOT ADD SLT PUSH2 0xB91 JUMPI PUSH2 0x1099 PUSH1 0x4 CALLDATALOAD PUSH2 0x107C PUSH2 0x24A1 JUMP JUMPDEST SWAP1 DUP1 DUP5 MSTORE DUP4 PUSH1 0x20 MSTORE PUSH2 0x1094 PUSH1 0x1 PUSH1 0x40 DUP7 KECCAK256 ADD SLOAD PUSH2 0x27D1 JUMP JUMPDEST PUSH2 0x2875 JUMP JUMPDEST POP DUP1 RETURN JUMPDEST POP CALLVALUE PUSH2 0xB91 JUMPI PUSH1 0x20 DUP1 PUSH1 0x3 NOT CALLDATASIZE ADD SLT PUSH2 0xB8D JUMPI PUSH1 0x1 PUSH1 0x1 PUSH1 0xA0 SHL SUB PUSH2 0x10C0 PUSH2 0x24B7 JUMP JUMPDEST AND DUP3 MSTORE PUSH1 0xD DUP2 MSTORE PUSH1 0x40 DUP3 KECCAK256 PUSH1 0x40 MLOAD SWAP3 DUP4 DUP4 DUP4 SLOAD SWAP2 DUP3 DUP2 MSTORE ADD SWAP1 DUP2 SWAP4 DUP4 MSTORE DUP5 DUP4 KECCAK256 SWAP1 DUP4 JUMPDEST DUP2 DUP2 LT PUSH2 0x1137 JUMPI POP POP POP DUP5 PUSH2 0x10F9 SWAP2 SUB DUP6 PUSH2 0x2561 JUMP JUMPDEST PUSH1 0x40 MLOAD SWAP4 DUP4 DUP6 SWAP5 DUP6 ADD SWAP2 DUP2 DUP7 MSTORE MLOAD DUP1 SWAP3 MSTORE PUSH1 0x40 DUP6 ADD SWAP4 SWAP3 JUMPDEST DUP3 DUP2 LT PUSH2 0x1120 JUMPI POP POP POP POP SUB SWAP1 RETURN JUMPDEST DUP4 MLOAD DUP6 MSTORE DUP7 SWAP6 POP SWAP4 DUP2 ADD SWAP4 SWAP3 DUP2 ADD SWAP3 PUSH1 0x1 ADD PUSH2 0x1111 JUMP JUMPDEST DUP3 SLOAD DUP5 MSTORE SWAP3 DUP7 ADD SWAP3 PUSH1 0x1 SWAP3 DUP4 ADD SWAP3 ADD PUSH2 0x10E3 JUMP JUMPDEST POP CALLVALUE PUSH2 0xB91 JUMPI PUSH1 0x20 CALLDATASIZE PUSH1 0x3 NOT ADD SLT PUSH2 0xB91 JUMPI PUSH1 0x40 MLOAD PUSH2 0x1169 DUP2 PUSH2 0x2514 JUMP JUMPDEST DUP2 DUP2 MSTORE DUP2 PUSH1 0x20 DUP3 ADD MSTORE DUP2 PUSH1 0x40 DUP3 ADD MSTORE DUP2 PUSH1 0x60 DUP3 ADD MSTORE DUP2 PUSH1 0x80 DUP3 ADD MSTORE DUP2 PUSH1 0xA0 DUP3 ADD MSTORE DUP2 PUSH1 0xC0 DUP3 ADD MSTORE DUP2 PUSH1 0xE0 DUP3 ADD MSTORE DUP2 PUSH2 0x100 DUP3 ADD MSTORE DUP2 PUSH2 0x120 DUP3 ADD MSTORE DUP2 PUSH2 0x140 DUP3 ADD MSTORE DUP2 PUSH2 0x160 DUP3 ADD MSTORE DUP2 PUSH2 0x180 DUP3 ADD MSTORE PUSH2 0x1A0 PUSH2 0x11C4 PUSH2 0x295F JUMP JUMPDEST SWAP2 ADD MSTORE PUSH1 0x4 CALLDATALOAD DUP2 MSTORE PUSH1 0xA PUSH1 0x20 MSTORE PUSH1 0x40 DUP2 KECCAK256 SWAP1 PUSH1 0x40 MLOAD SWAP1 PUSH2 0x11E3 DUP3 PUSH2 0x2514 JUMP JUMPDEST DUP3 SLOAD DUP3 MSTORE PUSH1 0x1 DUP4 ADD SLOAD PUSH1 0x1 PUSH1 0x1 PUSH1 0xA0 SHL SUB SWAP1 DUP2 AND PUSH1 0x20 DUP5 ADD MSTORE PUSH1 0x2 DUP5 ADD SLOAD AND PUSH1 0x40 DUP4 ADD MSTORE PUSH1 0x3 DUP4 ADD SLOAD PUSH1 0x60 DUP4 ADD MSTORE PUSH1 0x4 DUP4 ADD SLOAD PUSH1 0x80 DUP4 ADD MSTORE PUSH1 0x5 DUP4 ADD SLOAD PUSH1 0xA0 DUP4 ADD MSTORE PUSH1 0x6 DUP1 DUP5 ADD SLOAD PUSH1 0xC0 DUP5 ADD MSTORE PUSH1 0x7 DUP5 ADD SLOAD PUSH1 0xE0 DUP5 ADD MSTORE PUSH1 0x8 DUP5 ADD SLOAD PUSH2 0x100 DUP5 ADD MSTORE PUSH1 0x9 DUP5 ADD SLOAD PUSH2 0x120 DUP5 ADD MSTORE PUSH1 0xA DUP5 ADD SLOAD PUSH2 0x140 DUP5 ADD MSTORE PUSH1 0xB DUP5 ADD SLOAD SWAP2 SWAP1 PUSH1 0xFF DUP4 AND LT ISZERO PUSH2 0x135F JUMPI POP PUSH1 0xC PUSH2 0x1A0 SWAP4 PUSH1 0xFF DUP4 DUP2 PUSH2 0x1294 SWAP6 AND PUSH2 0x160 DUP8 ADD MSTORE PUSH1 0x8 SHR AND ISZERO ISZERO PUSH2 0x180 DUP6 ADD MSTORE ADD PUSH2 0x2628 JUMP JUMPDEST DUP3 DUP3 ADD MSTORE PUSH2 0x135B PUSH1 0x40 MLOAD SWAP3 DUP4 SWAP3 PUSH1 0x20 DUP5 MSTORE DUP1 MLOAD PUSH1 0x20 DUP6 ADD MSTORE PUSH1 0x1 DUP1 PUSH1 0xA0 SHL SUB PUSH1 0x20 DUP3 ADD MLOAD AND PUSH1 0x40 DUP6 ADD MSTORE PUSH1 0x1 DUP1 PUSH1 0xA0 SHL SUB PUSH1 0x40 DUP3 ADD MLOAD AND PUSH1 0x60 DUP6 ADD MSTORE PUSH1 0x60 DUP2 ADD MLOAD PUSH1 0x80 DUP6 ADD MSTORE PUSH1 0x80 DUP2 ADD MLOAD PUSH1 0xA0 DUP6 ADD MSTORE PUSH1 0xA0 DUP2 ADD MLOAD PUSH1 0xC0 DUP6 ADD MSTORE PUSH1 0xC0 DUP2 ADD MLOAD PUSH1 0xE0 DUP6 ADD MSTORE PUSH1 0xE0 DUP2 ADD MLOAD PUSH2 0x100 DUP6 ADD MSTORE PUSH2 0x100 DUP2 ADD MLOAD PUSH2 0x120 DUP6 ADD MSTORE PUSH2 0x120 DUP2 ADD MLOAD PUSH2 0x140 DUP6 ADD MSTORE PUSH2 0x140 DUP2 ADD MLOAD PUSH2 0x160 DUP6 ADD MSTORE PUSH2 0x133B PUSH2 0x160 DUP3 ADD MLOAD PUSH2 0x180 DUP7 ADD SWAP1 PUSH2 0x2676 JUMP JUMPDEST PUSH2 0x180 DUP2 ADD MLOAD ISZERO ISZERO DUP3 DUP6 ADD MSTORE ADD MLOAD PUSH2 0x1C0 DUP1 DUP5 ADD MSTORE PUSH2 0x1E0 DUP4 ADD SWAP1 PUSH2 0x26C3 JUMP JUMPDEST SUB SWAP1 RETURN JUMPDEST PUSH4 0x4E487B71 PUSH1 0xE0 SHL DUP2 MSTORE PUSH1 0x21 PUSH1 0x4 MSTORE PUSH1 0x24 SWAP1 REVERT JUMPDEST POP CALLVALUE PUSH2 0xB91 JUMPI PUSH1 0x40 CALLDATASIZE PUSH1 0x3 NOT ADD SLT PUSH2 0xB91 JUMPI PUSH1 0x4 CALLDATALOAD PUSH1 0x24 CALLDATALOAD PUSH1 0x1 PUSH1 0x1 PUSH1 0x40 SHL SUB DUP2 GT PUSH2 0xB85 JUMPI PUSH2 0x13A7 SWAP1 CALLDATASIZE SWAP1 PUSH1 0x4 ADD PUSH2 0x2748 JUMP JUMPDEST CALLER PUSH1 0x0 SWAP1 DUP2 MSTORE PUSH32 0xF484C8D36633AA70EAE8EE4883885DB3AF58778E0F4E89A6E23F032F4A708971 PUSH1 0x20 MSTORE PUSH1 0x40 SWAP1 KECCAK256 SLOAD SWAP1 SWAP2 SWAP1 PUSH32 0x850D585EB7F024CCEE5E68E55F2C26CC72E1E6EE456ACF62135757A5EB9D4A10 SWAP1 PUSH1 0xFF AND ISZERO PUSH2 0x14BD JUMPI POP DUP3 DUP5 MSTORE PUSH1 0xA PUSH1 0x20 MSTORE PUSH1 0xB PUSH1 0x40 DUP6 KECCAK256 ADD SWAP2 DUP3 SLOAD SWAP3 PUSH1 0xFF DUP5 AND PUSH1 0x6 DUP2 LT ISZERO PUSH2 0xD28 JUMPI PUSH2 0x1478 JUMPI PUSH2 0x100 PUSH32 0x7392BA7506A66B15FA69F0536822006F20BFAA1B6271E2A22B880A4211DDF408 SWAP5 PUSH2 0xFF00 NOT AND OR SWAP1 SSTORE PUSH2 0x1472 PUSH1 0x40 MLOAD SWAP3 DUP4 SWAP3 CALLER DUP5 MSTORE PUSH1 0x40 PUSH1 0x20 DUP6 ADD MSTORE PUSH1 0x40 DUP5 ADD SWAP2 PUSH2 0x290D JUMP JUMPDEST SUB SWAP1 LOG2 DUP1 RETURN JUMPDEST PUSH1 0x40 MLOAD PUSH3 0x461BCD PUSH1 0xE5 SHL DUP2 MSTORE PUSH1 0x20 PUSH1 0x4 DUP3 ADD MSTORE PUSH1 0x1F PUSH1 0x24 DUP3 ADD MSTORE PUSH32 0x43616E206F6E6C7920666C61672070656E64696E672070726F706F73616C7300 PUSH1 0x44 DUP3 ADD MSTORE PUSH1 0x64 SWAP1 REVERT JUMPDEST PUSH1 0x44 SWAP1 PUSH1 0x40 MLOAD SWAP1 PUSH4 0xE2517D3F PUSH1 0xE0 SHL DUP3 MSTORE CALLER PUSH1 0x4 DUP4 ADD MSTORE PUSH1 0x24 DUP3 ADD MSTORE REVERT JUMPDEST POP CALLVALUE PUSH2 0xB91 JUMPI DUP1 PUSH1 0x3 NOT CALLDATASIZE ADD SLT PUSH2 0xB91 JUMPI PUSH1 0x20 PUSH1 0x6 SLOAD PUSH1 0x40 MLOAD SWAP1 DUP2 MSTORE RETURN JUMPDEST POP CALLVALUE PUSH2 0xB91 JUMPI PUSH1 0x20 CALLDATASIZE PUSH1 0x3 NOT ADD SLT PUSH2 0xB91 JUMPI PUSH1 0x0 DUP1 MLOAD PUSH1 0x20 PUSH2 0x29BF DUP4 CODECOPY DUP2 MLOAD SWAP2 MSTORE PUSH1 0x80 PUSH1 0x4 CALLDATALOAD PUSH2 0x1527 PUSH2 0x2775 JUMP JUMPDEST PUSH2 0xE10 DUP2 LT ISZERO DUP1 PUSH2 0x156E JUMPI JUMPDEST PUSH2 0x153C SWAP1 PUSH2 0x2983 JUMP JUMPDEST DUP1 PUSH1 0x5 SSTORE PUSH1 0x40 MLOAD SWAP1 PUSH1 0x40 DUP3 MSTORE PUSH1 0xD PUSH1 0x40 DUP4 ADD MSTORE PUSH13 0x74696D656C6F636B44656C6179 PUSH1 0x98 SHL PUSH1 0x60 DUP4 ADD MSTORE PUSH1 0x20 DUP3 ADD MSTORE LOG1 DUP1 RETURN JUMPDEST POP PUSH3 0x127500 DUP2 GT ISZERO PUSH2 0x1533 JUMP JUMPDEST POP CALLVALUE PUSH2 0xB91 JUMPI DUP1 PUSH1 0x3 NOT CALLDATASIZE ADD SLT PUSH2 0xB91 JUMPI PUSH1 0x20 PUSH1 0x8 SLOAD PUSH1 0x40 MLOAD SWAP1 DUP2 MSTORE RETURN JUMPDEST POP CALLVALUE PUSH2 0xB91 JUMPI DUP1 PUSH1 0x3 NOT CALLDATASIZE ADD SLT PUSH2 0xB91 JUMPI PUSH1 0x20 SWAP1 PUSH1 0x40 MLOAD SWAP1 DUP2 MSTORE RETURN JUMPDEST POP CALLVALUE PUSH2 0xB91 JUMPI PUSH1 0x40 CALLDATASIZE PUSH1 0x3 NOT ADD SLT PUSH2 0xB91 JUMPI PUSH1 0x40 PUSH2 0x15D1 PUSH2 0x24A1 JUMP JUMPDEST SWAP2 PUSH1 0x4 CALLDATALOAD DUP2 MSTORE DUP1 PUSH1 0x20 MSTORE KECCAK256 SWAP1 PUSH1 0x1 DUP1 PUSH1 0xA0 SHL SUB AND PUSH1 0x0 MSTORE PUSH1 0x20 MSTORE PUSH1 0x20 PUSH1 0xFF PUSH1 0x40 PUSH1 0x0 KECCAK256 SLOAD AND PUSH1 0x40 MLOAD SWAP1 ISZERO ISZERO DUP2 MSTORE RETURN JUMPDEST POP CALLVALUE PUSH2 0xB91 JUMPI PUSH1 0x20 CALLDATASIZE PUSH1 0x3 NOT ADD SLT PUSH2 0xB91 JUMPI PUSH2 0x1637 PUSH1 0xC PUSH1 0x40 PUSH2 0x135B SWAP4 PUSH2 0x1625 PUSH2 0x295F JUMP JUMPDEST POP PUSH1 0x4 CALLDATALOAD DUP2 MSTORE PUSH1 0xA PUSH1 0x20 MSTORE KECCAK256 ADD PUSH2 0x2628 JUMP JUMPDEST PUSH1 0x40 MLOAD SWAP2 DUP3 SWAP2 PUSH1 0x20 DUP4 MSTORE PUSH1 0x20 DUP4 ADD SWAP1 PUSH2 0x26C3 JUMP JUMPDEST POP CALLVALUE PUSH2 0xB91 JUMPI DUP1 PUSH1 0x3 NOT CALLDATASIZE ADD SLT PUSH2 0xB91 JUMPI PUSH2 0x1664 PUSH2 0x2775 JUMP JUMPDEST PUSH2 0x166C PUSH2 0x292E JUMP JUMPDEST PUSH1 0x1 PUSH1 0xFF NOT PUSH1 0x2 SLOAD AND OR PUSH1 0x2 SSTORE PUSH32 0x62E78CEA01BEE320CD4E420270B5EA74000D11B0C9F74754EBDBFC544B05A258 PUSH1 0x20 PUSH1 0x40 MLOAD CALLER DUP2 MSTORE LOG1 DUP1 RETURN JUMPDEST POP CALLVALUE PUSH2 0xB91 JUMPI DUP1 PUSH1 0x3 NOT CALLDATASIZE ADD SLT PUSH2 0xB91 JUMPI PUSH1 0x20 PUSH1 0x40 MLOAD PUSH32 0xA49807205CE4D355092EF5A8A18F56E8913CF4A201FBE287825B095693C21775 DUP2 MSTORE RETURN JUMPDEST POP CALLVALUE PUSH2 0xB91 JUMPI PUSH1 0x20 CALLDATASIZE PUSH1 0x3 NOT ADD SLT PUSH2 0xB91 JUMPI PUSH1 0x0 DUP1 MLOAD PUSH1 0x20 PUSH2 0x29BF DUP4 CODECOPY DUP2 MLOAD SWAP2 MSTORE PUSH1 0x80 PUSH1 0x4 CALLDATALOAD PUSH2 0x170F PUSH2 0x2775 JUMP JUMPDEST PUSH2 0xE10 DUP2 LT ISZERO DUP1 PUSH2 0x1754 JUMPI JUMPDEST PUSH2 0x1724 SWAP1 PUSH2 0x2983 JUMP JUMPDEST DUP1 PUSH1 0x3 SSTORE PUSH1 0x40 MLOAD SWAP1 PUSH1 0x40 DUP3 MSTORE PUSH1 0xB PUSH1 0x40 DUP4 ADD MSTORE PUSH11 0x766F74696E6744656C6179 PUSH1 0xA8 SHL PUSH1 0x60 DUP4 ADD MSTORE PUSH1 0x20 DUP3 ADD MSTORE LOG1 DUP1 RETURN JUMPDEST POP PUSH3 0x93A80 DUP2 GT ISZERO PUSH2 0x171B JUMP JUMPDEST POP CALLVALUE PUSH2 0xB91 JUMPI DUP1 PUSH1 0x3 NOT CALLDATASIZE ADD SLT PUSH2 0xB91 JUMPI PUSH1 0x40 MLOAD PUSH32 0x0 PUSH1 0x1 PUSH1 0x1 PUSH1 0xA0 SHL SUB AND DUP2 MSTORE PUSH1 0x20 SWAP1 RETURN JUMPDEST POP CALLVALUE PUSH2 0xB91 JUMPI DUP1 PUSH1 0x3 NOT CALLDATASIZE ADD SLT PUSH2 0xB91 JUMPI PUSH1 0x20 PUSH1 0xFF PUSH1 0x2 SLOAD AND PUSH1 0x40 MLOAD SWAP1 ISZERO ISZERO DUP2 MSTORE RETURN JUMPDEST POP CALLVALUE PUSH2 0xB91 JUMPI PUSH1 0x40 CALLDATASIZE PUSH1 0x3 NOT ADD SLT PUSH2 0xB91 JUMPI PUSH1 0x4 CALLDATALOAD PUSH1 0x24 SWAP1 DUP2 CALLDATALOAD SWAP2 PUSH1 0x3 DUP4 LT ISZERO PUSH2 0x1A9C JUMPI PUSH2 0x17F5 PUSH2 0x292E JUMP JUMPDEST DUP2 DUP5 MSTORE PUSH1 0x20 PUSH1 0xA DUP2 MSTORE PUSH1 0x40 DUP6 KECCAK256 PUSH1 0xFF PUSH1 0xB DUP3 ADD SLOAD AND PUSH1 0x6 DUP2 LT ISZERO PUSH2 0x1A89 JUMPI PUSH1 0x1 SUB PUSH2 0x1A50 JUMPI PUSH1 0x5 DUP2 ADD SLOAD TIMESTAMP LT ISZERO DUP1 PUSH2 0x1A42 JUMPI JUMPDEST ISZERO PUSH2 0x1A08 JUMPI DUP4 DUP7 MSTORE PUSH1 0xB DUP3 MSTORE PUSH1 0x40 DUP7 KECCAK256 CALLER PUSH1 0x0 MSTORE DUP3 MSTORE PUSH1 0xFF PUSH1 0x40 PUSH1 0x0 KECCAK256 SLOAD AND PUSH2 0x19D5 JUMPI PUSH1 0x40 MLOAD PUSH4 0x70A08231 PUSH1 0xE0 SHL DUP2 MSTORE CALLER PUSH1 0x4 DUP3 ADD MSTORE SWAP3 DUP3 DUP5 DUP3 DUP2 PUSH32 0x0 PUSH1 0x1 PUSH1 0x1 PUSH1 0xA0 SHL SUB AND GAS STATICCALL SWAP4 DUP5 ISZERO PUSH2 0x19CA JUMPI DUP8 SWAP5 PUSH2 0x199B JUMPI JUMPDEST POP DUP4 ISZERO PUSH2 0x1966 JUMPI POP DUP4 DUP7 MSTORE PUSH1 0xB DUP3 MSTORE PUSH1 0x40 DUP7 KECCAK256 CALLER PUSH1 0x0 MSTORE DUP3 MSTORE PUSH1 0x40 PUSH1 0x0 KECCAK256 PUSH1 0xFF NOT SWAP1 PUSH1 0x1 DUP3 DUP3 SLOAD AND OR SWAP1 SSTORE DUP5 DUP8 MSTORE PUSH1 0xC DUP4 MSTORE PUSH1 0x40 DUP8 KECCAK256 CALLER PUSH1 0x0 MSTORE DUP4 MSTORE PUSH1 0x40 PUSH1 0x0 KECCAK256 SWAP1 DUP2 SLOAD AND PUSH1 0xFF DUP8 AND OR SWAP1 SSTORE PUSH1 0x1 DUP6 EQ PUSH1 0x0 EQ PUSH2 0x193E JUMPI PUSH1 0x8 ADD PUSH2 0x1902 DUP4 DUP3 SLOAD PUSH2 0x28EA JUMP JUMPDEST SWAP1 SSTORE JUMPDEST PUSH2 0x1912 PUSH1 0x40 MLOAD DUP1 SWAP6 PUSH2 0x24CD JUMP JUMPDEST DUP4 ADD MSTORE PUSH32 0xB83D25C6A5D258561330739951487ACB4BD09BA5190B5D32C4F261817D906792 PUSH1 0x40 CALLER SWAP4 LOG3 DUP1 RETURN JUMPDEST DUP5 PUSH2 0x1958 JUMPI PUSH1 0x9 ADD PUSH2 0x1951 DUP4 DUP3 SLOAD PUSH2 0x28EA JUMP JUMPDEST SWAP1 SSTORE PUSH2 0x1905 JUMP JUMPDEST PUSH1 0xA ADD PUSH2 0x1951 DUP4 DUP3 SLOAD PUSH2 0x28EA JUMP JUMPDEST DUP3 PUSH1 0xF PUSH1 0x64 SWAP3 PUSH1 0x40 MLOAD SWAP3 PUSH3 0x461BCD PUSH1 0xE5 SHL DUP5 MSTORE PUSH1 0x4 DUP5 ADD MSTORE DUP3 ADD MSTORE PUSH15 0x2737903B37BA34B733903837BBB2B9 PUSH1 0x89 SHL PUSH1 0x44 DUP3 ADD MSTORE REVERT JUMPDEST SWAP1 SWAP4 POP DUP3 DUP2 DUP2 RETURNDATASIZE DUP4 GT PUSH2 0x19C3 JUMPI JUMPDEST PUSH2 0x19B3 DUP2 DUP4 PUSH2 0x2561 JUMP JUMPDEST DUP2 ADD SUB SLT PUSH2 0x9F6 JUMPI MLOAD SWAP3 CODESIZE PUSH2 0x189D JUMP JUMPDEST POP RETURNDATASIZE PUSH2 0x19A9 JUMP JUMPDEST PUSH1 0x40 MLOAD RETURNDATASIZE DUP10 DUP3 RETURNDATACOPY RETURNDATASIZE SWAP1 REVERT JUMPDEST POP PUSH1 0xD PUSH1 0x64 SWAP3 PUSH1 0x40 MLOAD SWAP3 PUSH3 0x461BCD PUSH1 0xE5 SHL DUP5 MSTORE PUSH1 0x4 DUP5 ADD MSTORE DUP3 ADD MSTORE PUSH13 0x105B1C9958591E481D9BDD1959 PUSH1 0x9A SHL PUSH1 0x44 DUP3 ADD MSTORE REVERT JUMPDEST POP PUSH1 0x14 PUSH1 0x64 SWAP3 PUSH1 0x40 MLOAD SWAP3 PUSH3 0x461BCD PUSH1 0xE5 SHL DUP5 MSTORE PUSH1 0x4 DUP5 ADD MSTORE DUP3 ADD MSTORE PUSH20 0x4E6F7420696E20766F74696E672077696E646F77 PUSH1 0x60 SHL PUSH1 0x44 DUP3 ADD MSTORE REVERT JUMPDEST POP PUSH1 0x6 DUP2 ADD SLOAD TIMESTAMP GT ISZERO PUSH2 0x1828 JUMP JUMPDEST POP PUSH1 0x13 PUSH1 0x64 SWAP3 PUSH1 0x40 MLOAD SWAP3 PUSH3 0x461BCD PUSH1 0xE5 SHL DUP5 MSTORE PUSH1 0x4 DUP5 ADD MSTORE DUP3 ADD MSTORE PUSH19 0x50726F706F73616C206E6F7420616374697665 PUSH1 0x68 SHL PUSH1 0x44 DUP3 ADD MSTORE REVERT JUMPDEST PUSH4 0x4E487B71 PUSH1 0xE0 SHL DUP8 MSTORE PUSH1 0x21 PUSH1 0x4 MSTORE DUP4 DUP8 REVERT JUMPDEST DUP4 DUP1 REVERT JUMPDEST POP CALLVALUE PUSH2 0xB91 JUMPI PUSH1 0x20 DUP1 PUSH1 0x3 NOT CALLDATASIZE ADD SLT PUSH2 0xB8D JUMPI PUSH1 0x4 CALLDATALOAD SWAP1 DUP2 DUP4 MSTORE PUSH1 0xA DUP2 MSTORE PUSH1 0x40 DUP4 KECCAK256 SWAP1 PUSH1 0xB DUP3 ADD SWAP2 DUP3 SLOAD SWAP1 PUSH1 0xFF DUP3 AND PUSH1 0x6 DUP2 LT ISZERO PUSH2 0xD28 JUMPI PUSH1 0x1 SUB PUSH2 0x1C66 JUMPI PUSH1 0x6 DUP2 ADD SLOAD TIMESTAMP GT ISZERO PUSH2 0x1C2A JUMPI PUSH1 0x8 DUP2 ADD SLOAD SWAP1 PUSH2 0x1B0F PUSH1 0x9 DUP3 ADD SLOAD SWAP2 PUSH1 0xA PUSH2 0x1B06 DUP5 DUP7 PUSH2 0x28EA JUMP JUMPDEST SWAP2 ADD SLOAD SWAP1 PUSH2 0x28EA JUMP JUMPDEST PUSH1 0x40 MLOAD PUSH4 0x18160DDD PUSH1 0xE0 SHL DUP2 MSTORE DUP6 DUP2 PUSH1 0x4 DUP2 PUSH32 0x0 PUSH1 0x1 PUSH1 0x1 PUSH1 0xA0 SHL SUB AND GAS STATICCALL SWAP1 DUP2 ISZERO PUSH2 0x1C1F JUMPI DUP10 SWAP2 PUSH2 0x1BF0 JUMPI JUMPDEST POP PUSH2 0x1B6B PUSH1 0x64 SWAP2 PUSH1 0x7 SLOAD SWAP1 PUSH2 0x294C JUMP JUMPDEST DIV GT ISZERO SWAP2 DUP3 PUSH2 0x1BE6 JUMPI JUMPDEST POP POP ISZERO PUSH2 0x1BDE JUMPI PUSH1 0x2 SWAP3 JUMPDEST PUSH1 0x6 DUP5 LT ISZERO PUSH2 0x1BC8 JUMPI PUSH1 0xFF PUSH32 0x34A42C4CE0A88D16AD098DE6406057747139A2A3DD8DD8616EE7BBABCECB768E SWAP5 AND DUP1 SWAP3 PUSH1 0xFF NOT AND OR SWAP1 SSTORE PUSH2 0x1BC4 PUSH1 0x40 MLOAD DUP1 SWAP3 PUSH2 0x2676 JUMP JUMPDEST LOG2 DUP1 RETURN JUMPDEST PUSH4 0x4E487B71 PUSH1 0xE0 SHL PUSH1 0x0 MSTORE PUSH1 0x21 PUSH1 0x4 MSTORE PUSH1 0x24 PUSH1 0x0 REVERT JUMPDEST PUSH1 0x3 SWAP3 PUSH2 0x1B80 JUMP JUMPDEST GT SWAP1 POP CODESIZE DUP1 PUSH2 0x1B75 JUMP JUMPDEST SWAP1 POP DUP6 DUP2 DUP2 RETURNDATASIZE DUP4 GT PUSH2 0x1C18 JUMPI JUMPDEST PUSH2 0x1C07 DUP2 DUP4 PUSH2 0x2561 JUMP JUMPDEST DUP2 ADD SUB SLT PUSH2 0x9F6 JUMPI MLOAD PUSH2 0x1B6B PUSH2 0x1B5B JUMP JUMPDEST POP RETURNDATASIZE PUSH2 0x1BFD JUMP JUMPDEST PUSH1 0x40 MLOAD RETURNDATASIZE DUP12 DUP3 RETURNDATACOPY RETURNDATASIZE SWAP1 REVERT JUMPDEST PUSH1 0x40 MLOAD PUSH3 0x461BCD PUSH1 0xE5 SHL DUP2 MSTORE PUSH1 0x4 DUP2 ADD DUP5 SWAP1 MSTORE PUSH1 0x14 PUSH1 0x24 DUP3 ADD MSTORE PUSH20 0x566F74696E67207374696C6C206F6E676F696E67 PUSH1 0x60 SHL PUSH1 0x44 DUP3 ADD MSTORE PUSH1 0x64 SWAP1 REVERT JUMPDEST PUSH1 0x40 MLOAD PUSH3 0x461BCD PUSH1 0xE5 SHL DUP2 MSTORE PUSH1 0x4 DUP2 ADD DUP5 SWAP1 MSTORE PUSH1 0xA PUSH1 0x24 DUP3 ADD MSTORE PUSH10 0x4E6F7420616374697665 PUSH1 0xB0 SHL PUSH1 0x44 DUP3 ADD MSTORE PUSH1 0x64 SWAP1 REVERT JUMPDEST POP CALLVALUE PUSH2 0xB91 JUMPI DUP1 PUSH1 0x3 NOT CALLDATASIZE ADD SLT PUSH2 0xB91 JUMPI PUSH1 0x20 PUSH1 0x7 SLOAD PUSH1 0x40 MLOAD SWAP1 DUP2 MSTORE RETURN JUMPDEST POP CALLVALUE PUSH2 0xB91 JUMPI DUP1 PUSH1 0x3 NOT CALLDATASIZE ADD SLT PUSH2 0xB91 JUMPI PUSH1 0x20 PUSH1 0x40 MLOAD PUSH32 0x850D585EB7F024CCEE5E68E55F2C26CC72E1E6EE456ACF62135757A5EB9D4A10 DUP2 MSTORE RETURN JUMPDEST POP CALLVALUE PUSH2 0xB91 JUMPI PUSH1 0x40 CALLDATASIZE PUSH1 0x3 NOT ADD SLT PUSH2 0xB91 JUMPI PUSH2 0x1D0B PUSH2 0x24B7 JUMP JUMPDEST PUSH1 0x1 PUSH1 0x1 PUSH1 0xA0 SHL SUB AND DUP2 MSTORE PUSH1 0xD PUSH1 0x20 MSTORE PUSH1 0x40 DUP2 KECCAK256 DUP1 SLOAD PUSH1 0x24 CALLDATALOAD SWAP3 SWAP1 DUP4 LT ISZERO PUSH2 0xB91 JUMPI PUSH1 0x20 PUSH2 0x1D39 DUP5 DUP5 PUSH2 0x271A JUMP JUMPDEST SWAP1 SLOAD PUSH1 0x40 MLOAD SWAP2 PUSH1 0x3 SHL SHR DUP2 MSTORE RETURN JUMPDEST POP CALLVALUE PUSH2 0xB91 JUMPI PUSH1 0x40 CALLDATASIZE PUSH1 0x3 NOT ADD SLT PUSH2 0xB91 JUMPI PUSH1 0x40 PUSH2 0x1D63 PUSH2 0x24A1 JUMP JUMPDEST SWAP2 PUSH1 0x4 CALLDATALOAD DUP2 MSTORE PUSH1 0xB PUSH1 0x20 MSTORE KECCAK256 SWAP1 PUSH1 0x1 DUP1 PUSH1 0xA0 SHL SUB AND PUSH1 0x0 MSTORE PUSH1 0x20 MSTORE PUSH1 0x20 PUSH1 0xFF PUSH1 0x40 PUSH1 0x0 KECCAK256 SLOAD AND PUSH1 0x40 MLOAD SWAP1 ISZERO ISZERO DUP2 MSTORE RETURN JUMPDEST POP CALLVALUE PUSH2 0xB91 JUMPI DUP1 PUSH1 0x3 NOT CALLDATASIZE ADD SLT PUSH2 0xB91 JUMPI PUSH2 0x1DAC PUSH2 0x2775 JUMP JUMPDEST PUSH1 0x2 SLOAD PUSH1 0xFF DUP2 AND ISZERO PUSH2 0x1DEC JUMPI PUSH1 0xFF NOT AND PUSH1 0x2 SSTORE PUSH32 0x5DB9EE0A495BF2E6FF9C91A7834C1BA4FDD244A5E8AA4E537BD38AEAE4B073AA PUSH1 0x20 PUSH1 0x40 MLOAD CALLER DUP2 MSTORE LOG1 DUP1 RETURN JUMPDEST PUSH1 0x40 MLOAD PUSH4 0x8DFC202B PUSH1 0xE0 SHL DUP2 MSTORE PUSH1 0x4 SWAP1 REVERT JUMPDEST POP CALLVALUE PUSH2 0xB91 JUMPI DUP1 PUSH1 0x3 NOT CALLDATASIZE ADD SLT PUSH2 0xB91 JUMPI PUSH1 0x20 PUSH1 0x3 SLOAD PUSH1 0x40 MLOAD SWAP1 DUP2 MSTORE RETURN JUMPDEST POP CALLVALUE PUSH2 0xB91 JUMPI PUSH1 0x40 CALLDATASIZE PUSH1 0x3 NOT ADD SLT PUSH2 0xB91 JUMPI PUSH2 0x1E36 PUSH2 0x24A1 JUMP JUMPDEST CALLER PUSH1 0x1 PUSH1 0x1 PUSH1 0xA0 SHL SUB DUP3 AND SUB PUSH2 0x1E52 JUMPI PUSH2 0x1099 SWAP1 PUSH1 0x4 CALLDATALOAD PUSH2 0x2875 JUMP JUMPDEST PUSH1 0x40 MLOAD PUSH4 0x334BD919 PUSH1 0xE1 SHL DUP2 MSTORE PUSH1 0x4 SWAP1 REVERT JUMPDEST POP CALLVALUE PUSH2 0xB91 JUMPI PUSH1 0x20 CALLDATASIZE PUSH1 0x3 NOT ADD SLT PUSH2 0xB91 JUMPI PUSH1 0x0 DUP1 MLOAD PUSH1 0x20 PUSH2 0x29BF DUP4 CODECOPY DUP2 MLOAD SWAP2 MSTORE PUSH1 0x80 PUSH1 0x4 CALLDATALOAD PUSH2 0x1E92 PUSH2 0x2775 JUMP JUMPDEST PUSH1 0x1 DUP2 LT ISZERO DUP1 PUSH2 0x1EDB JUMPI JUMPDEST PUSH2 0x1EA6 SWAP1 PUSH2 0x2983 JUMP JUMPDEST DUP1 PUSH1 0x7 SSTORE PUSH1 0x40 MLOAD SWAP1 PUSH1 0x40 DUP3 MSTORE PUSH1 0x10 PUSH1 0x40 DUP4 ADD MSTORE PUSH16 0x71756F72756D50657263656E74616765 PUSH1 0x80 SHL PUSH1 0x60 DUP4 ADD MSTORE PUSH1 0x20 DUP3 ADD MSTORE LOG1 DUP1 RETURN JUMPDEST POP PUSH1 0x32 DUP2 GT ISZERO PUSH2 0x1E9D JUMP JUMPDEST POP CALLVALUE PUSH2 0xB91 JUMPI PUSH1 0x40 CALLDATASIZE PUSH1 0x3 NOT ADD SLT PUSH2 0xB91 JUMPI PUSH2 0x1099 PUSH1 0x4 CALLDATALOAD PUSH2 0x1F06 PUSH2 0x24A1 JUMP JUMPDEST SWAP1 DUP1 DUP5 MSTORE DUP4 PUSH1 0x20 MSTORE PUSH2 0x1F1E PUSH1 0x1 PUSH1 0x40 DUP7 KECCAK256 ADD SLOAD PUSH2 0x27D1 JUMP JUMPDEST PUSH2 0x27F7 JUMP JUMPDEST POP CALLVALUE PUSH2 0xB91 JUMPI PUSH1 0x20 CALLDATASIZE PUSH1 0x3 NOT ADD SLT PUSH2 0xB91 JUMPI PUSH1 0x1 PUSH1 0x40 PUSH1 0x20 SWAP3 PUSH1 0x4 CALLDATALOAD DUP2 MSTORE DUP1 DUP5 MSTORE KECCAK256 ADD SLOAD PUSH1 0x40 MLOAD SWAP1 DUP2 MSTORE RETURN JUMPDEST POP CALLVALUE PUSH2 0xB91 JUMPI PUSH1 0x20 DUP1 PUSH1 0x3 NOT CALLDATASIZE ADD SLT PUSH2 0xB8D JUMPI PUSH1 0x4 CALLDATALOAD SWAP1 PUSH1 0x2 PUSH1 0x1 SLOAD EQ PUSH2 0x21D6 JUMPI PUSH1 0x2 PUSH1 0x1 SSTORE PUSH2 0x1F7D PUSH2 0x292E JUMP JUMPDEST DUP2 DUP4 MSTORE PUSH1 0xA DUP2 MSTORE PUSH1 0x40 DUP4 KECCAK256 SWAP1 PUSH1 0xB DUP3 ADD DUP1 SLOAD SWAP3 PUSH1 0xFF DUP5 AND PUSH1 0x6 DUP2 LT ISZERO PUSH2 0xD28 JUMPI PUSH1 0x2 SUB PUSH2 0x219B JUMPI PUSH1 0x7 DUP2 ADD SLOAD TIMESTAMP LT PUSH2 0x215F JUMPI PUSH1 0x3 DUP2 ADD SWAP4 DUP5 SLOAD SWAP2 PUSH1 0x1 DUP1 PUSH1 0xA0 SHL SUB SWAP4 DUP5 PUSH32 0x0 AND SWAP3 PUSH1 0x40 MLOAD PUSH3 0x9032FF PUSH1 0xE5 SHL DUP2 MSTORE DUP8 DUP2 PUSH1 0x4 DUP2 DUP9 GAS STATICCALL SWAP1 DUP2 ISZERO PUSH2 0x2154 JUMPI DUP12 SWAP2 PUSH2 0x2123 JUMPI JUMPDEST POP DUP6 GT PUSH2 0x20E6 JUMPI PUSH1 0xFF NOT AND PUSH1 0x4 OR SWAP1 SSTORE PUSH1 0x2 ADD DUP1 SLOAD SWAP1 SWAP3 DUP9 SWAP2 DUP6 AND DUP4 EXTCODESIZE ISZERO PUSH2 0xB85 JUMPI PUSH1 0x64 SWAP1 DUP4 PUSH1 0x40 MLOAD SWAP6 DUP7 SWAP5 DUP6 SWAP4 PUSH4 0x36A08DF1 PUSH1 0xE2 SHL DUP6 MSTORE PUSH1 0x4 DUP6 ADD MSTORE PUSH1 0x24 DUP5 ADD MSTORE DUP12 PUSH1 0x44 DUP5 ADD MSTORE GAS CALL DUP1 ISZERO PUSH2 0x19CA JUMPI PUSH2 0x2097 JUMPI JUMPDEST POP SWAP2 PUSH32 0x3B7C90DF35B419337CFF0919FE91849006607BB66C4373623F06F9D48C1EBB98 SWAP4 SWAP2 PUSH1 0x40 SWAP4 SLOAD AND SWAP2 SLOAD SWAP1 DUP4 MLOAD SWAP3 DUP4 MSTORE DUP3 ADD MSTORE LOG2 PUSH1 0x1 DUP1 SSTORE DUP1 RETURN JUMPDEST PUSH1 0x1 PUSH1 0x1 PUSH1 0x40 SHL SUB DUP2 SWAP8 SWAP3 SWAP8 GT PUSH2 0x20D2 JUMPI PUSH1 0x40 MSTORE SWAP5 PUSH32 0x3B7C90DF35B419337CFF0919FE91849006607BB66C4373623F06F9D48C1EBB98 PUSH2 0x205A JUMP JUMPDEST PUSH4 0x4E487B71 PUSH1 0xE0 SHL DUP3 MSTORE PUSH1 0x41 PUSH1 0x4 MSTORE PUSH1 0x24 DUP3 REVERT JUMPDEST PUSH1 0x40 MLOAD PUSH3 0x461BCD PUSH1 0xE5 SHL DUP2 MSTORE PUSH1 0x4 DUP2 ADD DUP9 SWAP1 MSTORE PUSH1 0x15 PUSH1 0x24 DUP3 ADD MSTORE PUSH21 0x151C99585CDD5C9E481A5B9CDD59999A58DA595B9D PUSH1 0x5A SHL PUSH1 0x44 DUP3 ADD MSTORE PUSH1 0x64 SWAP1 REVERT JUMPDEST SWAP1 POP DUP8 DUP2 DUP2 RETURNDATASIZE DUP4 GT PUSH2 0x214D JUMPI JUMPDEST PUSH2 0x213A DUP2 DUP4 PUSH2 0x2561 JUMP JUMPDEST DUP2 ADD SUB SLT PUSH2 0x2149 JUMPI MLOAD CODESIZE PUSH2 0x2005 JUMP JUMPDEST DUP11 DUP1 REVERT JUMPDEST POP RETURNDATASIZE PUSH2 0x2130 JUMP JUMPDEST PUSH1 0x40 MLOAD RETURNDATASIZE DUP14 DUP3 RETURNDATACOPY RETURNDATASIZE SWAP1 REVERT JUMPDEST PUSH1 0x40 MLOAD PUSH3 0x461BCD PUSH1 0xE5 SHL DUP2 MSTORE PUSH1 0x4 DUP2 ADD DUP5 SWAP1 MSTORE PUSH1 0x14 PUSH1 0x24 DUP3 ADD MSTORE PUSH20 0x151A5B595B1BD8DAC81B9BDD08195B185C1CD959 PUSH1 0x62 SHL PUSH1 0x44 DUP3 ADD MSTORE PUSH1 0x64 SWAP1 REVERT JUMPDEST PUSH1 0x40 MLOAD PUSH3 0x461BCD PUSH1 0xE5 SHL DUP2 MSTORE PUSH1 0x4 DUP2 ADD DUP5 SWAP1 MSTORE PUSH1 0x13 PUSH1 0x24 DUP3 ADD MSTORE PUSH19 0x141C9BDC1BDCD85B081B9BDD081C185CDCD959 PUSH1 0x6A SHL PUSH1 0x44 DUP3 ADD MSTORE PUSH1 0x64 SWAP1 REVERT JUMPDEST PUSH1 0x40 MLOAD PUSH4 0x3EE5AEB5 PUSH1 0xE0 SHL DUP2 MSTORE PUSH1 0x4 SWAP1 REVERT JUMPDEST POP CALLVALUE PUSH2 0xB91 JUMPI PUSH1 0x20 DUP1 PUSH1 0x3 NOT CALLDATASIZE ADD SLT PUSH2 0xB8D JUMPI PUSH1 0x4 CALLDATALOAD DUP3 MSTORE PUSH1 0xA DUP2 MSTORE PUSH1 0x40 DUP3 KECCAK256 SWAP1 PUSH1 0x8 DUP3 ADD SLOAD SWAP2 PUSH1 0xA PUSH1 0x9 DUP3 ADD SLOAD SWAP2 ADD SLOAD PUSH2 0x222C DUP2 PUSH2 0x2227 DUP5 DUP8 PUSH2 0x28EA JUMP JUMPDEST PUSH2 0x28EA JUMP JUMPDEST PUSH1 0x40 MLOAD PUSH4 0x18160DDD PUSH1 0xE0 SHL DUP2 MSTORE SWAP1 SWAP3 SWAP1 DUP5 DUP2 PUSH1 0x4 DUP2 PUSH32 0x0 PUSH1 0x1 PUSH1 0x1 PUSH1 0xA0 SHL SUB AND GAS STATICCALL SWAP7 DUP8 ISZERO PUSH2 0x22E8 JUMPI DUP1 SWAP8 PUSH2 0x22B3 JUMPI JUMPDEST POP POP PUSH1 0x64 PUSH2 0x228E PUSH1 0xC0 SWAP8 PUSH1 0x7 SLOAD SWAP1 PUSH2 0x294C JUMP JUMPDEST DIV SWAP4 PUSH1 0x40 MLOAD SWAP6 DUP7 MSTORE DUP6 ADD MSTORE PUSH1 0x40 DUP5 ADD MSTORE DUP1 PUSH1 0x60 DUP5 ADD MSTORE DUP2 PUSH1 0x80 DUP5 ADD MSTORE LT ISZERO PUSH1 0xA0 DUP3 ADD MSTORE RETURN JUMPDEST SWAP1 SWAP7 POP DUP5 DUP8 DUP2 RETURNDATASIZE DUP4 GT PUSH2 0x22E1 JUMPI JUMPDEST PUSH2 0x22CB DUP2 DUP4 PUSH2 0x2561 JUMP JUMPDEST DUP2 ADD SUB SLT PUSH2 0xB91 JUMPI POP SWAP5 MLOAD SWAP5 PUSH1 0x64 PUSH2 0x228E PUSH2 0x227B JUMP JUMPDEST POP RETURNDATASIZE PUSH2 0x22C1 JUMP JUMPDEST PUSH1 0x40 MLOAD SWAP1 RETURNDATASIZE SWAP1 DUP3 RETURNDATACOPY RETURNDATASIZE SWAP1 REVERT JUMPDEST POP CALLVALUE PUSH2 0xB91 JUMPI DUP1 PUSH1 0x3 NOT CALLDATASIZE ADD SLT PUSH2 0xB91 JUMPI PUSH1 0x20 PUSH1 0x4 SLOAD PUSH1 0x40 MLOAD SWAP1 DUP2 MSTORE RETURN JUMPDEST POP CALLVALUE PUSH2 0xB91 JUMPI PUSH1 0x20 CALLDATASIZE PUSH1 0x3 NOT ADD SLT PUSH2 0xB91 JUMPI PUSH1 0x4 CALLDATALOAD PUSH4 0xFFFFFFFF PUSH1 0xE0 SHL DUP2 AND DUP1 SWAP2 SUB PUSH2 0xB8D JUMPI PUSH1 0x20 SWAP1 PUSH4 0x7965DB0B PUSH1 0xE0 SHL DUP2 EQ SWAP1 DUP2 ISZERO PUSH2 0x2358 JUMPI JUMPDEST POP PUSH1 0x40 MLOAD SWAP1 ISZERO ISZERO DUP2 MSTORE RETURN JUMPDEST PUSH4 0x1FFC9A7 PUSH1 0xE0 SHL EQ SWAP1 POP DUP3 PUSH2 0x234D JUMP JUMPDEST POP CALLVALUE PUSH2 0xB91 JUMPI PUSH1 0x20 CALLDATASIZE PUSH1 0x3 NOT ADD SLT PUSH2 0xB91 JUMPI PUSH1 0x4 CALLDATALOAD DUP2 MSTORE PUSH1 0xA PUSH1 0x20 MSTORE PUSH1 0x40 SWAP1 KECCAK256 DUP1 SLOAD PUSH1 0x1 PUSH1 0xA0 SHL PUSH1 0x1 SWAP1 SUB SWAP2 DUP3 PUSH1 0x1 DUP3 ADD SLOAD AND SWAP3 PUSH1 0x2 DUP3 ADD SLOAD AND SWAP1 PUSH1 0x3 DUP2 ADD SLOAD PUSH1 0x4 DUP3 ADD SLOAD PUSH1 0x5 DUP4 ADD SLOAD PUSH1 0x6 DUP5 ADD SLOAD PUSH1 0x7 DUP6 ADD SLOAD SWAP1 PUSH1 0x8 DUP7 ADD SLOAD SWAP3 PUSH1 0x9 DUP8 ADD SLOAD SWAP5 PUSH1 0xA DUP9 ADD SLOAD SWAP7 PUSH1 0xB DUP10 ADD SLOAD SWAP9 PUSH1 0xC ADD PUSH2 0x23E2 SWAP1 PUSH2 0x2628 JUMP JUMPDEST SWAP10 PUSH1 0x40 MLOAD SWAP13 DUP14 SWAP13 DUP14 MSTORE PUSH1 0x20 DUP14 ADD MSTORE PUSH1 0x40 DUP13 ADD MSTORE PUSH1 0x60 DUP12 ADD MSTORE PUSH1 0x80 DUP11 ADD MSTORE PUSH1 0xA0 DUP10 ADD MSTORE PUSH1 0xC0 DUP9 ADD MSTORE PUSH1 0xE0 DUP8 ADD MSTORE PUSH2 0x100 DUP7 ADD MSTORE PUSH2 0x120 DUP6 ADD MSTORE PUSH2 0x140 DUP5 ADD MSTORE PUSH2 0x160 DUP4 ADD PUSH1 0xFF DUP3 AND SWAP1 PUSH2 0x2433 SWAP2 PUSH2 0x2676 JUMP JUMPDEST PUSH1 0x8 SHR PUSH1 0xFF AND ISZERO ISZERO PUSH2 0x180 DUP4 ADD MSTORE PUSH2 0x1C0 DUP1 PUSH2 0x1A0 DUP5 ADD MSTORE DUP3 ADD PUSH2 0x135B SWAP2 PUSH2 0x26C3 JUMP JUMPDEST SWAP1 POP CALLVALUE PUSH2 0xB8D JUMPI PUSH1 0x40 CALLDATASIZE PUSH1 0x3 NOT ADD SLT PUSH2 0xB8D JUMPI PUSH2 0x249F DUP2 PUSH1 0xFF PUSH1 0x40 PUSH1 0x20 SWAP6 PUSH2 0x247C PUSH2 0x24A1 JUMP JUMPDEST PUSH1 0x4 CALLDATALOAD DUP3 MSTORE PUSH1 0xC DUP9 MSTORE DUP3 DUP3 KECCAK256 PUSH1 0x1 PUSH1 0x1 PUSH1 0xA0 SHL SUB SWAP1 SWAP2 AND DUP3 MSTORE DUP8 MSTORE KECCAK256 SLOAD AND PUSH2 0x24CD JUMP JUMPDEST RETURN JUMPDEST PUSH1 0x24 CALLDATALOAD SWAP1 PUSH1 0x1 PUSH1 0x1 PUSH1 0xA0 SHL SUB DUP3 AND DUP3 SUB PUSH2 0x9F6 JUMPI JUMP JUMPDEST PUSH1 0x4 CALLDATALOAD SWAP1 PUSH1 0x1 PUSH1 0x1 PUSH1 0xA0 SHL SUB DUP3 AND DUP3 SUB PUSH2 0x9F6 JUMPI JUMP JUMPDEST SWAP1 PUSH1 0x3 DUP3 LT ISZERO PUSH2 0x1BC8 JUMPI MSTORE JUMP JUMPDEST SWAP1 PUSH1 0x1 DUP3 DUP2 SHR SWAP3 AND DUP1 ISZERO PUSH2 0x250A JUMPI JUMPDEST PUSH1 0x20 DUP4 LT EQ PUSH2 0x24F4 JUMPI JUMP JUMPDEST PUSH4 0x4E487B71 PUSH1 0xE0 SHL PUSH1 0x0 MSTORE PUSH1 0x22 PUSH1 0x4 MSTORE PUSH1 0x24 PUSH1 0x0 REVERT JUMPDEST SWAP2 PUSH1 0x7F AND SWAP2 PUSH2 0x24E9 JUMP JUMPDEST PUSH2 0x1C0 DUP2 ADD SWAP1 DUP2 LT PUSH1 0x1 PUSH1 0x1 PUSH1 0x40 SHL SUB DUP3 GT OR PUSH2 0x2530 JUMPI PUSH1 0x40 MSTORE JUMP JUMPDEST PUSH4 0x4E487B71 PUSH1 0xE0 SHL PUSH1 0x0 MSTORE PUSH1 0x41 PUSH1 0x4 MSTORE PUSH1 0x24 PUSH1 0x0 REVERT JUMPDEST PUSH1 0x80 DUP2 ADD SWAP1 DUP2 LT PUSH1 0x1 PUSH1 0x1 PUSH1 0x40 SHL SUB DUP3 GT OR PUSH2 0x2530 JUMPI PUSH1 0x40 MSTORE JUMP JUMPDEST SWAP1 PUSH1 0x1F DUP1 NOT SWAP2 ADD AND DUP2 ADD SWAP1 DUP2 LT PUSH1 0x1 PUSH1 0x1 PUSH1 0x40 SHL SUB DUP3 GT OR PUSH2 0x2530 JUMPI PUSH1 0x40 MSTORE JUMP JUMPDEST SWAP1 PUSH1 0x40 MLOAD SWAP2 DUP3 PUSH1 0x0 DUP3 SLOAD SWAP3 PUSH2 0x2596 DUP5 PUSH2 0x24DA JUMP JUMPDEST SWAP1 DUP2 DUP5 MSTORE PUSH1 0x1 SWAP5 DUP6 DUP2 AND SWAP1 DUP2 PUSH1 0x0 EQ PUSH2 0x2605 JUMPI POP PUSH1 0x1 EQ PUSH2 0x25C2 JUMPI JUMPDEST POP POP PUSH2 0x25C0 SWAP3 POP SUB DUP4 PUSH2 0x2561 JUMP JUMPDEST JUMP JUMPDEST SWAP1 SWAP4 SWAP2 POP PUSH1 0x0 MSTORE PUSH1 0x20 SWAP1 DUP2 PUSH1 0x0 KECCAK256 SWAP4 PUSH1 0x0 SWAP2 JUMPDEST DUP2 DUP4 LT PUSH2 0x25ED JUMPI POP POP PUSH2 0x25C0 SWAP4 POP DUP3 ADD ADD CODESIZE DUP1 PUSH2 0x25B2 JUMP JUMPDEST DUP6 SLOAD DUP9 DUP5 ADD DUP6 ADD MSTORE SWAP5 DUP6 ADD SWAP5 DUP8 SWAP5 POP SWAP2 DUP4 ADD SWAP2 PUSH2 0x25D5 JUMP JUMPDEST SWAP2 POP POP PUSH2 0x25C0 SWAP5 POP PUSH1 0x20 SWAP3 POP PUSH1 0xFF NOT AND DUP3 DUP5 ADD MSTORE ISZERO ISZERO PUSH1 0x5 SHL DUP3 ADD ADD CODESIZE DUP1 PUSH2 0x25B2 JUMP JUMPDEST SWAP1 PUSH1 0x40 MLOAD PUSH2 0x2635 DUP2 PUSH2 0x2546 JUMP JUMPDEST PUSH1 0x60 PUSH2 0x2671 PUSH1 0x3 DUP4 SWAP6 PUSH2 0x2647 DUP2 PUSH2 0x2582 JUMP JUMPDEST DUP6 MSTORE PUSH2 0x2655 PUSH1 0x1 DUP3 ADD PUSH2 0x2582 JUMP JUMPDEST PUSH1 0x20 DUP7 ADD MSTORE PUSH2 0x2666 PUSH1 0x2 DUP3 ADD PUSH2 0x2582 JUMP JUMPDEST PUSH1 0x40 DUP7 ADD MSTORE ADD PUSH2 0x2582 JUMP JUMPDEST SWAP2 ADD MSTORE JUMP JUMPDEST SWAP1 PUSH1 0x6 DUP3 LT ISZERO PUSH2 0x1BC8 JUMPI MSTORE JUMP JUMPDEST SWAP2 SWAP1 DUP3 MLOAD SWAP3 DUP4 DUP3 MSTORE PUSH1 0x0 JUMPDEST DUP5 DUP2 LT PUSH2 0x26AF JUMPI POP POP DUP3 PUSH1 0x0 PUSH1 0x20 DUP1 SWAP5 SWAP6 DUP5 ADD ADD MSTORE PUSH1 0x1F DUP1 NOT SWAP2 ADD AND ADD ADD SWAP1 JUMP JUMPDEST PUSH1 0x20 DUP2 DUP4 ADD DUP2 ADD MLOAD DUP5 DUP4 ADD DUP3 ADD MSTORE ADD PUSH2 0x268E JUMP JUMPDEST PUSH2 0x2717 SWAP2 PUSH1 0x60 PUSH2 0x2706 PUSH2 0x26F4 PUSH2 0x26E2 DUP6 MLOAD PUSH1 0x80 DUP7 MSTORE PUSH1 0x80 DUP7 ADD SWAP1 PUSH2 0x2683 JUMP JUMPDEST PUSH1 0x20 DUP7 ADD MLOAD DUP6 DUP3 SUB PUSH1 0x20 DUP8 ADD MSTORE PUSH2 0x2683 JUMP JUMPDEST PUSH1 0x40 DUP6 ADD MLOAD DUP5 DUP3 SUB PUSH1 0x40 DUP7 ADD MSTORE PUSH2 0x2683 JUMP JUMPDEST SWAP3 ADD MLOAD SWAP1 PUSH1 0x60 DUP2 DUP5 SUB SWAP2 ADD MSTORE PUSH2 0x2683 JUMP JUMPDEST SWAP1 JUMP JUMPDEST DUP1 SLOAD DUP3 LT ISZERO PUSH2 0x2732 JUMPI PUSH1 0x0 MSTORE PUSH1 0x20 PUSH1 0x0 KECCAK256 ADD SWAP1 PUSH1 0x0 SWAP1 JUMP JUMPDEST PUSH4 0x4E487B71 PUSH1 0xE0 SHL PUSH1 0x0 MSTORE PUSH1 0x32 PUSH1 0x4 MSTORE PUSH1 0x24 PUSH1 0x0 REVERT JUMPDEST SWAP2 DUP2 PUSH1 0x1F DUP5 ADD SLT ISZERO PUSH2 0x9F6 JUMPI DUP3 CALLDATALOAD SWAP2 PUSH1 0x1 PUSH1 0x1 PUSH1 0x40 SHL SUB DUP4 GT PUSH2 0x9F6 JUMPI PUSH1 0x20 DUP4 DUP2 DUP7 ADD SWAP6 ADD ADD GT PUSH2 0x9F6 JUMPI JUMP JUMPDEST CALLER PUSH1 0x0 SWAP1 DUP2 MSTORE PUSH32 0x7D7FFB7A348E1C6A02869081A26547B49160DD3DF72D1D75A570EB9B698292EC PUSH1 0x20 MSTORE PUSH1 0x40 SWAP1 KECCAK256 SLOAD PUSH32 0xA49807205CE4D355092EF5A8A18F56E8913CF4A201FBE287825B095693C21775 SWAP1 PUSH1 0xFF AND ISZERO PUSH2 0x14BD JUMPI POP JUMP JUMPDEST DUP1 PUSH1 0x0 MSTORE PUSH1 0x0 PUSH1 0x20 MSTORE PUSH1 0x40 PUSH1 0x0 KECCAK256 CALLER PUSH1 0x0 MSTORE PUSH1 0x20 MSTORE PUSH1 0xFF PUSH1 0x40 PUSH1 0x0 KECCAK256 SLOAD AND ISZERO PUSH2 0x14BD JUMPI POP JUMP JUMPDEST SWAP1 PUSH1 0x0 SWAP2 DUP1 DUP4 MSTORE DUP3 PUSH1 0x20 MSTORE PUSH1 0x40 DUP4 KECCAK256 SWAP2 PUSH1 0x1 DUP1 PUSH1 0xA0 SHL SUB AND SWAP2 DUP3 DUP5 MSTORE PUSH1 0x20 MSTORE PUSH1 0xFF PUSH1 0x40 DUP5 KECCAK256 SLOAD AND ISZERO PUSH1 0x0 EQ PUSH2 0x2870 JUMPI DUP1 DUP4 MSTORE DUP3 PUSH1 0x20 MSTORE PUSH1 0x40 DUP4 KECCAK256 DUP3 DUP5 MSTORE PUSH1 0x20 MSTORE PUSH1 0x40 DUP4 KECCAK256 PUSH1 0x1 PUSH1 0xFF NOT DUP3 SLOAD AND OR SWAP1 SSTORE PUSH32 0x2F8788117E7EFF1D82E926EC794901D17C78024A50270940304540A733656F0D CALLER SWAP4 DUP1 LOG4 PUSH1 0x1 SWAP1 JUMP JUMPDEST POP POP SWAP1 JUMP JUMPDEST SWAP1 PUSH1 0x0 SWAP2 DUP1 DUP4 MSTORE DUP3 PUSH1 0x20 MSTORE PUSH1 0x40 DUP4 KECCAK256 SWAP2 PUSH1 0x1 DUP1 PUSH1 0xA0 SHL SUB AND SWAP2 DUP3 DUP5 MSTORE PUSH1 0x20 MSTORE PUSH1 0xFF PUSH1 0x40 DUP5 KECCAK256 SLOAD AND PUSH1 0x0 EQ PUSH2 0x2870 JUMPI DUP1 DUP4 MSTORE DUP3 PUSH1 0x20 MSTORE PUSH1 0x40 DUP4 KECCAK256 DUP3 DUP5 MSTORE PUSH1 0x20 MSTORE PUSH1 0x40 DUP4 KECCAK256 PUSH1 0xFF NOT DUP2 SLOAD AND SWAP1 SSTORE PUSH32 0xF6391F5C32D9C69D2A47EA670B442974B53935D1EDC7FD64EB21E047A839171B CALLER SWAP4 DUP1 LOG4 PUSH1 0x1 SWAP1 JUMP JUMPDEST SWAP2 SWAP1 DUP3 ADD DUP1 SWAP3 GT PUSH2 0x28F7 JUMPI JUMP JUMPDEST PUSH4 0x4E487B71 PUSH1 0xE0 SHL PUSH1 0x0 MSTORE PUSH1 0x11 PUSH1 0x4 MSTORE PUSH1 0x24 PUSH1 0x0 REVERT JUMPDEST SWAP1 DUP1 PUSH1 0x20 SWAP4 SWAP3 DUP2 DUP5 MSTORE DUP5 DUP5 ADD CALLDATACOPY PUSH1 0x0 DUP3 DUP3 ADD DUP5 ADD MSTORE PUSH1 0x1F ADD PUSH1 0x1F NOT AND ADD ADD SWAP1 JUMP JUMPDEST PUSH1 0xFF PUSH1 0x2 SLOAD AND PUSH2 0x293A JUMPI JUMP JUMPDEST PUSH1 0x40 MLOAD PUSH4 0xD93C0665 PUSH1 0xE0 SHL DUP2 MSTORE PUSH1 0x4 SWAP1 REVERT JUMPDEST DUP2 DUP2 MUL SWAP3 SWAP2 DUP2 ISZERO SWAP2 DUP5 DIV EQ OR ISZERO PUSH2 0x28F7 JUMPI JUMP JUMPDEST PUSH1 0x40 MLOAD SWAP1 PUSH2 0x296C DUP3 PUSH2 0x2546 JUMP JUMPDEST PUSH1 0x60 DUP1 DUP4 DUP2 DUP2 MSTORE DUP2 PUSH1 0x20 DUP3 ADD MSTORE DUP2 PUSH1 0x40 DUP3 ADD MSTORE ADD MSTORE JUMP JUMPDEST ISZERO PUSH2 0x298A JUMPI JUMP JUMPDEST PUSH1 0x40 MLOAD PUSH3 0x461BCD PUSH1 0xE5 SHL DUP2 MSTORE PUSH1 0x20 PUSH1 0x4 DUP3 ADD MSTORE PUSH1 0xC PUSH1 0x24 DUP3 ADD MSTORE PUSH12 0x4F7574206F662072616E6765 PUSH1 0xA0 SHL PUSH1 0x44 DUP3 ADD MSTORE PUSH1 0x64 SWAP1 REVERT INVALID SLT 0xC9 0xDC 0xCD SLT SWAP16 0xF7 DUP4 CALL 0xC8 0x22 DUP15 0xAC 0xDF 0xA8 0xE3 CALLVALUE 0xDD 0xEC 0xB7 0xEC 0x5C SWAP11 PUSH26 0xEC662A4AED3D012AA26469706673582212204399C294297F51E4 MOD 0xD5 CALL PUSH14 0xFD882316F21ED8BAD945AEFF0351 SWAP6 PUSH18 0x92424E2864736F6C634300081400332F8788 GT PUSH31 0x7EFF1D82E926EC794901D17C78024A50270940304540A733656F0D00000000 "},"methodIdentifiers":{"ADMIN_ROLE()":"75b238fc","CURATOR_ROLE()":"4a2cfb54","DEFAULT_ADMIN_ROLE()":"a217fddf","activateVoting(uint256)":"f6ead0b9","cancelProposal(uint256)":"e0a8f6f5","castVote(uint256,uint8)":"56781388","createProposal(address,uint256,string,string,string,string)":"fc988ef0","executeProposal(uint256)":"0d61b519","finalizeProposal(uint256)":"5652077c","flagProposal(uint256,string)":"bc3dff64","getProposal(uint256)":"c7f758a8","getProposalMeta(uint256)":"8a6f5a59","getProposerHistory(address)":"cb738464","getRoleAdmin(bytes32)":"248a9ca3","getVoteStats(uint256)":"04f53f6c","grantRole(bytes32,address)":"2f2ff15d","hasRole(bytes32,address)":"91d14854","hasVoted(uint256,address)":"43859632","maxGrantAmount()":"a9c2c7b8","pause()":"8456cb59","paused()":"5c975abb","proposalCount()":"da35c664","proposalThreshold()":"b58131b0","proposals(uint256)":"013cf08b","proposerHistory(address,uint256)":"484f3705","quorumPercentage()":"4fa76ec9","renounceRole(bytes32,address)":"36568abe","revokeRole(bytes32,address)":"d547741f","setMaxGrantAmount(uint256)":"e6e1db37","setProposalThreshold(uint256)":"ece40cc1","setQuorumPercentage(uint256)":"32f6a1dc","setTimelockDelay(uint256)":"af267f8f","setVotingDelay(uint256)":"70b0f660","setVotingPeriod(uint256)":"ea0217cf","supportsInterface(bytes4)":"01ffc9a7","timelockDelay()":"eef09bad","token()":"fc0c546a","treasury()":"61d027b3","unpause()":"3f4ba83a","voteRecord(uint256,address)":"0117c909","votingDelay()":"3932abb1","votingPeriod()":"02a251a3"}}}}}